{
	"contracts/prac13.sol": {
		"DeploymentReset": {
			"abi": [
				{
					"inputs": [],
					"stateMutability": "nonpayable",
					"type": "constructor"
				},
				{
					"inputs": [],
					"name": "getNumber",
					"outputs": [
						{
							"internalType": "uint256",
							"name": "",
							"type": "uint256"
						}
					],
					"stateMutability": "view",
					"type": "function"
				},
				{
					"inputs": [],
					"name": "number",
					"outputs": [
						{
							"internalType": "uint256",
							"name": "",
							"type": "uint256"
						}
					],
					"stateMutability": "view",
					"type": "function"
				},
				{
					"inputs": [],
					"name": "owner",
					"outputs": [
						{
							"internalType": "address",
							"name": "",
							"type": "address"
						}
					],
					"stateMutability": "view",
					"type": "function"
				},
				{
					"inputs": [
						{
							"internalType": "uint256",
							"name": "_number",
							"type": "uint256"
						}
					],
					"name": "setNumber",
					"outputs": [],
					"stateMutability": "nonpayable",
					"type": "function"
				}
			],
			"devdoc": {
				"kind": "dev",
				"methods": {},
				"version": 1
			},
			"evm": {
				"assembly": "    /* \"contracts/prac13.sol\":9445:10041  contract DeploymentReset {... */\n  mstore(0x40, 0x80)\n    /* \"contracts/prac13.sol\":9538:9672  constructor() {... */\n  callvalue\n  dup1\n  iszero\n  tag_1\n  jumpi\n  revert(0x00, 0x00)\ntag_1:\n  pop\n    /* \"contracts/prac13.sol\":9654:9664  msg.sender */\n  caller\n    /* \"contracts/prac13.sol\":9646:9651  owner */\n  0x01\n  0x00\n    /* \"contracts/prac13.sol\":9646:9664  owner = msg.sender */\n  0x0100\n  exp\n  dup2\n  sload\n  dup2\n  0xffffffffffffffffffffffffffffffffffffffff\n  mul\n  not\n  and\n  swap1\n  dup4\n  0xffffffffffffffffffffffffffffffffffffffff\n  and\n  mul\n  or\n  swap1\n  sstore\n  pop\n    /* \"contracts/prac13.sol\":9445:10041  contract DeploymentReset {... */\n  dataSize(sub_0)\n  dup1\n  dataOffset(sub_0)\n  0x00\n  codecopy\n  0x00\n  return\nstop\n\nsub_0: assembly {\n        /* \"contracts/prac13.sol\":9445:10041  contract DeploymentReset {... */\n      mstore(0x40, 0x80)\n      callvalue\n      dup1\n      iszero\n      tag_1\n      jumpi\n      revert(0x00, 0x00)\n    tag_1:\n      pop\n      jumpi(tag_2, lt(calldatasize, 0x04))\n      shr(0xe0, calldataload(0x00))\n      dup1\n      0x3fb5c1cb\n      eq\n      tag_3\n      jumpi\n      dup1\n      0x8381f58a\n      eq\n      tag_4\n      jumpi\n      dup1\n      0x8da5cb5b\n      eq\n      tag_5\n      jumpi\n      dup1\n      0xf2c9ecd8\n      eq\n      tag_6\n      jumpi\n    tag_2:\n      revert(0x00, 0x00)\n        /* \"contracts/prac13.sol\":9680:9945  function setNumber(uint256 _number) public {... */\n    tag_3:\n      tag_7\n      0x04\n      dup1\n      calldatasize\n      sub\n      dup2\n      add\n      swap1\n      tag_8\n      swap2\n      swap1\n      tag_9\n      jump\t// in\n    tag_8:\n      tag_10\n      jump\t// in\n    tag_7:\n      stop\n        /* \"contracts/prac13.sol\":9479:9500  uint256 public number */\n    tag_4:\n      tag_11\n      tag_12\n      jump\t// in\n    tag_11:\n      mload(0x40)\n      tag_13\n      swap2\n      swap1\n      tag_14\n      jump\t// in\n    tag_13:\n      mload(0x40)\n      dup1\n      swap2\n      sub\n      swap1\n      return\n        /* \"contracts/prac13.sol\":9509:9529  address public owner */\n    tag_5:\n      tag_15\n      tag_16\n      jump\t// in\n    tag_15:\n      mload(0x40)\n      tag_17\n      swap2\n      swap1\n      tag_18\n      jump\t// in\n    tag_17:\n      mload(0x40)\n      dup1\n      swap2\n      sub\n      swap1\n      return\n        /* \"contracts/prac13.sol\":9953:10038  function getNumber() public view returns (uint256) {... */\n    tag_6:\n      tag_19\n      tag_20\n      jump\t// in\n    tag_19:\n      mload(0x40)\n      tag_21\n      swap2\n      swap1\n      tag_14\n      jump\t// in\n    tag_21:\n      mload(0x40)\n      dup1\n      swap2\n      sub\n      swap1\n      return\n        /* \"contracts/prac13.sol\":9680:9945  function setNumber(uint256 _number) public {... */\n    tag_10:\n        /* \"contracts/prac13.sol\":9889:9894  owner */\n      0x01\n      0x00\n      swap1\n      sload\n      swap1\n      0x0100\n      exp\n      swap1\n      div\n      0xffffffffffffffffffffffffffffffffffffffff\n      and\n        /* \"contracts/prac13.sol\":9875:9894  msg.sender == owner */\n      0xffffffffffffffffffffffffffffffffffffffff\n      and\n        /* \"contracts/prac13.sol\":9875:9885  msg.sender */\n      caller\n        /* \"contracts/prac13.sol\":9875:9894  msg.sender == owner */\n      0xffffffffffffffffffffffffffffffffffffffff\n      and\n      eq\n        /* \"contracts/prac13.sol\":9867:9908  require(msg.sender == owner, \"Not owner\") */\n      tag_23\n      jumpi\n      mload(0x40)\n      0x08c379a000000000000000000000000000000000000000000000000000000000\n      dup2\n      mstore\n      0x04\n      add\n      tag_24\n      swap1\n      tag_25\n      jump\t// in\n    tag_24:\n      mload(0x40)\n      dup1\n      swap2\n      sub\n      swap1\n      revert\n    tag_23:\n        /* \"contracts/prac13.sol\":9930:9937  _number */\n      dup1\n        /* \"contracts/prac13.sol\":9921:9927  number */\n      0x00\n        /* \"contracts/prac13.sol\":9921:9937  number = _number */\n      dup2\n      swap1\n      sstore\n      pop\n        /* \"contracts/prac13.sol\":9680:9945  function setNumber(uint256 _number) public {... */\n      pop\n      jump\t// out\n        /* \"contracts/prac13.sol\":9479:9500  uint256 public number */\n    tag_12:\n      sload(0x00)\n      dup2\n      jump\t// out\n        /* \"contracts/prac13.sol\":9509:9529  address public owner */\n    tag_16:\n      0x01\n      0x00\n      swap1\n      sload\n      swap1\n      0x0100\n      exp\n      swap1\n      div\n      0xffffffffffffffffffffffffffffffffffffffff\n      and\n      dup2\n      jump\t// out\n        /* \"contracts/prac13.sol\":9953:10038  function getNumber() public view returns (uint256) {... */\n    tag_20:\n        /* \"contracts/prac13.sol\":9995:10002  uint256 */\n      0x00\n        /* \"contracts/prac13.sol\":10024:10030  number */\n      sload(0x00)\n        /* \"contracts/prac13.sol\":10017:10030  return number */\n      swap1\n      pop\n        /* \"contracts/prac13.sol\":9953:10038  function getNumber() public view returns (uint256) {... */\n      swap1\n      jump\t// out\n        /* \"#utility.yul\":88:205   */\n    tag_28:\n        /* \"#utility.yul\":197:198   */\n      0x00\n        /* \"#utility.yul\":194:195   */\n      0x00\n        /* \"#utility.yul\":187:199   */\n      revert\n        /* \"#utility.yul\":334:411   */\n    tag_30:\n        /* \"#utility.yul\":371:378   */\n      0x00\n        /* \"#utility.yul\":400:405   */\n      dup2\n        /* \"#utility.yul\":389:405   */\n      swap1\n      pop\n        /* \"#utility.yul\":334:411   */\n      swap2\n      swap1\n      pop\n      jump\t// out\n        /* \"#utility.yul\":417:539   */\n    tag_31:\n        /* \"#utility.yul\":490:514   */\n      tag_46\n        /* \"#utility.yul\":508:513   */\n      dup2\n        /* \"#utility.yul\":490:514   */\n      tag_30\n      jump\t// in\n    tag_46:\n        /* \"#utility.yul\":483:488   */\n      dup2\n        /* \"#utility.yul\":480:515   */\n      eq\n        /* \"#utility.yul\":470:533   */\n      tag_47\n      jumpi\n        /* \"#utility.yul\":529:530   */\n      0x00\n        /* \"#utility.yul\":526:527   */\n      0x00\n        /* \"#utility.yul\":519:531   */\n      revert\n        /* \"#utility.yul\":470:533   */\n    tag_47:\n        /* \"#utility.yul\":417:539   */\n      pop\n      jump\t// out\n        /* \"#utility.yul\":545:684   */\n    tag_32:\n        /* \"#utility.yul\":591:596   */\n      0x00\n        /* \"#utility.yul\":629:635   */\n      dup2\n        /* \"#utility.yul\":616:636   */\n      calldataload\n        /* \"#utility.yul\":607:636   */\n      swap1\n      pop\n        /* \"#utility.yul\":645:678   */\n      tag_49\n        /* \"#utility.yul\":672:677   */\n      dup2\n        /* \"#utility.yul\":645:678   */\n      tag_31\n      jump\t// in\n    tag_49:\n        /* \"#utility.yul\":545:684   */\n      swap3\n      swap2\n      pop\n      pop\n      jump\t// out\n        /* \"#utility.yul\":690:1019   */\n    tag_9:\n        /* \"#utility.yul\":749:755   */\n      0x00\n        /* \"#utility.yul\":798:800   */\n      0x20\n        /* \"#utility.yul\":786:795   */\n      dup3\n        /* \"#utility.yul\":777:784   */\n      dup5\n        /* \"#utility.yul\":773:796   */\n      sub\n        /* \"#utility.yul\":769:801   */\n      slt\n        /* \"#utility.yul\":766:885   */\n      iszero\n      tag_51\n      jumpi\n        /* \"#utility.yul\":804:883   */\n      tag_52\n      tag_28\n      jump\t// in\n    tag_52:\n        /* \"#utility.yul\":766:885   */\n    tag_51:\n        /* \"#utility.yul\":924:925   */\n      0x00\n        /* \"#utility.yul\":949:1002   */\n      tag_53\n        /* \"#utility.yul\":994:1001   */\n      dup5\n        /* \"#utility.yul\":985:991   */\n      dup3\n        /* \"#utility.yul\":974:983   */\n      dup6\n        /* \"#utility.yul\":970:992   */\n      add\n        /* \"#utility.yul\":949:1002   */\n      tag_32\n      jump\t// in\n    tag_53:\n        /* \"#utility.yul\":939:1002   */\n      swap2\n      pop\n        /* \"#utility.yul\":895:1012   */\n      pop\n        /* \"#utility.yul\":690:1019   */\n      swap3\n      swap2\n      pop\n      pop\n      jump\t// out\n        /* \"#utility.yul\":1025:1143   */\n    tag_33:\n        /* \"#utility.yul\":1112:1136   */\n      tag_55\n        /* \"#utility.yul\":1130:1135   */\n      dup2\n        /* \"#utility.yul\":1112:1136   */\n      tag_30\n      jump\t// in\n    tag_55:\n        /* \"#utility.yul\":1107:1110   */\n      dup3\n        /* \"#utility.yul\":1100:1137   */\n      mstore\n        /* \"#utility.yul\":1025:1143   */\n      pop\n      pop\n      jump\t// out\n        /* \"#utility.yul\":1149:1371   */\n    tag_14:\n        /* \"#utility.yul\":1242:1246   */\n      0x00\n        /* \"#utility.yul\":1280:1282   */\n      0x20\n        /* \"#utility.yul\":1269:1278   */\n      dup3\n        /* \"#utility.yul\":1265:1283   */\n      add\n        /* \"#utility.yul\":1257:1283   */\n      swap1\n      pop\n        /* \"#utility.yul\":1293:1364   */\n      tag_57\n        /* \"#utility.yul\":1361:1362   */\n      0x00\n        /* \"#utility.yul\":1350:1359   */\n      dup4\n        /* \"#utility.yul\":1346:1363   */\n      add\n        /* \"#utility.yul\":1337:1343   */\n      dup5\n        /* \"#utility.yul\":1293:1364   */\n      tag_33\n      jump\t// in\n    tag_57:\n        /* \"#utility.yul\":1149:1371   */\n      swap3\n      swap2\n      pop\n      pop\n      jump\t// out\n        /* \"#utility.yul\":1377:1503   */\n    tag_34:\n        /* \"#utility.yul\":1414:1421   */\n      0x00\n        /* \"#utility.yul\":1454:1496   */\n      0xffffffffffffffffffffffffffffffffffffffff\n        /* \"#utility.yul\":1447:1452   */\n      dup3\n        /* \"#utility.yul\":1443:1497   */\n      and\n        /* \"#utility.yul\":1432:1497   */\n      swap1\n      pop\n        /* \"#utility.yul\":1377:1503   */\n      swap2\n      swap1\n      pop\n      jump\t// out\n        /* \"#utility.yul\":1509:1605   */\n    tag_35:\n        /* \"#utility.yul\":1546:1553   */\n      0x00\n        /* \"#utility.yul\":1575:1599   */\n      tag_60\n        /* \"#utility.yul\":1593:1598   */\n      dup3\n        /* \"#utility.yul\":1575:1599   */\n      tag_34\n      jump\t// in\n    tag_60:\n        /* \"#utility.yul\":1564:1599   */\n      swap1\n      pop\n        /* \"#utility.yul\":1509:1605   */\n      swap2\n      swap1\n      pop\n      jump\t// out\n        /* \"#utility.yul\":1611:1729   */\n    tag_36:\n        /* \"#utility.yul\":1698:1722   */\n      tag_62\n        /* \"#utility.yul\":1716:1721   */\n      dup2\n        /* \"#utility.yul\":1698:1722   */\n      tag_35\n      jump\t// in\n    tag_62:\n        /* \"#utility.yul\":1693:1696   */\n      dup3\n        /* \"#utility.yul\":1686:1723   */\n      mstore\n        /* \"#utility.yul\":1611:1729   */\n      pop\n      pop\n      jump\t// out\n        /* \"#utility.yul\":1735:1957   */\n    tag_18:\n        /* \"#utility.yul\":1828:1832   */\n      0x00\n        /* \"#utility.yul\":1866:1868   */\n      0x20\n        /* \"#utility.yul\":1855:1864   */\n      dup3\n        /* \"#utility.yul\":1851:1869   */\n      add\n        /* \"#utility.yul\":1843:1869   */\n      swap1\n      pop\n        /* \"#utility.yul\":1879:1950   */\n      tag_64\n        /* \"#utility.yul\":1947:1948   */\n      0x00\n        /* \"#utility.yul\":1936:1945   */\n      dup4\n        /* \"#utility.yul\":1932:1949   */\n      add\n        /* \"#utility.yul\":1923:1929   */\n      dup5\n        /* \"#utility.yul\":1879:1950   */\n      tag_36\n      jump\t// in\n    tag_64:\n        /* \"#utility.yul\":1735:1957   */\n      swap3\n      swap2\n      pop\n      pop\n      jump\t// out\n        /* \"#utility.yul\":1963:2132   */\n    tag_37:\n        /* \"#utility.yul\":2047:2058   */\n      0x00\n        /* \"#utility.yul\":2081:2087   */\n      dup3\n        /* \"#utility.yul\":2076:2079   */\n      dup3\n        /* \"#utility.yul\":2069:2088   */\n      mstore\n        /* \"#utility.yul\":2121:2125   */\n      0x20\n        /* \"#utility.yul\":2116:2119   */\n      dup3\n        /* \"#utility.yul\":2112:2126   */\n      add\n        /* \"#utility.yul\":2097:2126   */\n      swap1\n      pop\n        /* \"#utility.yul\":1963:2132   */\n      swap3\n      swap2\n      pop\n      pop\n      jump\t// out\n        /* \"#utility.yul\":2138:2297   */\n    tag_38:\n        /* \"#utility.yul\":2278:2289   */\n      0x4e6f74206f776e65720000000000000000000000000000000000000000000000\n        /* \"#utility.yul\":2274:2275   */\n      0x00\n        /* \"#utility.yul\":2266:2272   */\n      dup3\n        /* \"#utility.yul\":2262:2276   */\n      add\n        /* \"#utility.yul\":2255:2290   */\n      mstore\n        /* \"#utility.yul\":2138:2297   */\n      pop\n      jump\t// out\n        /* \"#utility.yul\":2303:2668   */\n    tag_39:\n        /* \"#utility.yul\":2445:2448   */\n      0x00\n        /* \"#utility.yul\":2466:2532   */\n      tag_68\n        /* \"#utility.yul\":2530:2531   */\n      0x09\n        /* \"#utility.yul\":2525:2528   */\n      dup4\n        /* \"#utility.yul\":2466:2532   */\n      tag_37\n      jump\t// in\n    tag_68:\n        /* \"#utility.yul\":2459:2532   */\n      swap2\n      pop\n        /* \"#utility.yul\":2541:2634   */\n      tag_69\n        /* \"#utility.yul\":2630:2633   */\n      dup3\n        /* \"#utility.yul\":2541:2634   */\n      tag_38\n      jump\t// in\n    tag_69:\n        /* \"#utility.yul\":2659:2661   */\n      0x20\n        /* \"#utility.yul\":2654:2657   */\n      dup3\n        /* \"#utility.yul\":2650:2662   */\n      add\n        /* \"#utility.yul\":2643:2662   */\n      swap1\n      pop\n        /* \"#utility.yul\":2303:2668   */\n      swap2\n      swap1\n      pop\n      jump\t// out\n        /* \"#utility.yul\":2674:3093   */\n    tag_25:\n        /* \"#utility.yul\":2840:2844   */\n      0x00\n        /* \"#utility.yul\":2878:2880   */\n      0x20\n        /* \"#utility.yul\":2867:2876   */\n      dup3\n        /* \"#utility.yul\":2863:2881   */\n      add\n        /* \"#utility.yul\":2855:2881   */\n      swap1\n      pop\n        /* \"#utility.yul\":2927:2936   */\n      dup2\n        /* \"#utility.yul\":2921:2925   */\n      dup2\n        /* \"#utility.yul\":2917:2937   */\n      sub\n        /* \"#utility.yul\":2913:2914   */\n      0x00\n        /* \"#utility.yul\":2902:2911   */\n      dup4\n        /* \"#utility.yul\":2898:2915   */\n      add\n        /* \"#utility.yul\":2891:2938   */\n      mstore\n        /* \"#utility.yul\":2955:3086   */\n      tag_71\n        /* \"#utility.yul\":3081:3085   */\n      dup2\n        /* \"#utility.yul\":2955:3086   */\n      tag_39\n      jump\t// in\n    tag_71:\n        /* \"#utility.yul\":2947:3086   */\n      swap1\n      pop\n        /* \"#utility.yul\":2674:3093   */\n      swap2\n      swap1\n      pop\n      jump\t// out\n\n    auxdata: 0xa26469706673582212209b6aa1bb322a5a74033c9696369e355924b744af968b8461b3ca9c49b21eab8064736f6c63430008220033\n}\n",
				"bytecode": {
					"linkReferences": {},
					"object": "6080604052348015600e575f5ffd5b503360015f6101000a81548173ffffffffffffffffffffffffffffffffffffffff021916908373ffffffffffffffffffffffffffffffffffffffff16021790555061031e8061005c5f395ff3fe608060405234801561000f575f5ffd5b506004361061004a575f3560e01c80633fb5c1cb1461004e5780638381f58a1461006a5780638da5cb5b14610088578063f2c9ecd8146100a6575b5f5ffd5b610068600480360381019061006391906101c5565b6100c4565b005b61007261015c565b60405161007f91906101ff565b60405180910390f35b610090610161565b60405161009d9190610257565b60405180910390f35b6100ae610186565b6040516100bb91906101ff565b60405180910390f35b60015f9054906101000a900473ffffffffffffffffffffffffffffffffffffffff1673ffffffffffffffffffffffffffffffffffffffff163373ffffffffffffffffffffffffffffffffffffffff1614610153576040517f08c379a000000000000000000000000000000000000000000000000000000000815260040161014a906102ca565b60405180910390fd5b805f8190555050565b5f5481565b60015f9054906101000a900473ffffffffffffffffffffffffffffffffffffffff1681565b5f5f54905090565b5f5ffd5b5f819050919050565b6101a481610192565b81146101ae575f5ffd5b50565b5f813590506101bf8161019b565b92915050565b5f602082840312156101da576101d961018e565b5b5f6101e7848285016101b1565b91505092915050565b6101f981610192565b82525050565b5f6020820190506102125f8301846101f0565b92915050565b5f73ffffffffffffffffffffffffffffffffffffffff82169050919050565b5f61024182610218565b9050919050565b61025181610237565b82525050565b5f60208201905061026a5f830184610248565b92915050565b5f82825260208201905092915050565b7f4e6f74206f776e657200000000000000000000000000000000000000000000005f82015250565b5f6102b4600983610270565b91506102bf82610280565b602082019050919050565b5f6020820190508181035f8301526102e1816102a8565b905091905056fea26469706673582212209b6aa1bb322a5a74033c9696369e355924b744af968b8461b3ca9c49b21eab8064736f6c63430008220033",
					"opcodes": "PUSH1 0x80 PUSH1 0x40 MSTORE CALLVALUE DUP1 ISZERO PUSH1 0xE JUMPI PUSH0 PUSH0 REVERT JUMPDEST POP CALLER PUSH1 0x1 PUSH0 PUSH2 0x100 EXP DUP2 SLOAD DUP2 PUSH20 0xFFFFFFFFFFFFFFFFFFFFFFFFFFFFFFFFFFFFFFFF MUL NOT AND SWAP1 DUP4 PUSH20 0xFFFFFFFFFFFFFFFFFFFFFFFFFFFFFFFFFFFFFFFF AND MUL OR SWAP1 SSTORE POP PUSH2 0x31E DUP1 PUSH2 0x5C PUSH0 CODECOPY PUSH0 RETURN INVALID PUSH1 0x80 PUSH1 0x40 MSTORE CALLVALUE DUP1 ISZERO PUSH2 0xF JUMPI PUSH0 PUSH0 REVERT JUMPDEST POP PUSH1 0x4 CALLDATASIZE LT PUSH2 0x4A JUMPI PUSH0 CALLDATALOAD PUSH1 0xE0 SHR DUP1 PUSH4 0x3FB5C1CB EQ PUSH2 0x4E JUMPI DUP1 PUSH4 0x8381F58A EQ PUSH2 0x6A JUMPI DUP1 PUSH4 0x8DA5CB5B EQ PUSH2 0x88 JUMPI DUP1 PUSH4 0xF2C9ECD8 EQ PUSH2 0xA6 JUMPI JUMPDEST PUSH0 PUSH0 REVERT JUMPDEST PUSH2 0x68 PUSH1 0x4 DUP1 CALLDATASIZE SUB DUP2 ADD SWAP1 PUSH2 0x63 SWAP2 SWAP1 PUSH2 0x1C5 JUMP JUMPDEST PUSH2 0xC4 JUMP JUMPDEST STOP JUMPDEST PUSH2 0x72 PUSH2 0x15C JUMP JUMPDEST PUSH1 0x40 MLOAD PUSH2 0x7F SWAP2 SWAP1 PUSH2 0x1FF JUMP JUMPDEST PUSH1 0x40 MLOAD DUP1 SWAP2 SUB SWAP1 RETURN JUMPDEST PUSH2 0x90 PUSH2 0x161 JUMP JUMPDEST PUSH1 0x40 MLOAD PUSH2 0x9D SWAP2 SWAP1 PUSH2 0x257 JUMP JUMPDEST PUSH1 0x40 MLOAD DUP1 SWAP2 SUB SWAP1 RETURN JUMPDEST PUSH2 0xAE PUSH2 0x186 JUMP JUMPDEST PUSH1 0x40 MLOAD PUSH2 0xBB SWAP2 SWAP1 PUSH2 0x1FF JUMP JUMPDEST PUSH1 0x40 MLOAD DUP1 SWAP2 SUB SWAP1 RETURN JUMPDEST PUSH1 0x1 PUSH0 SWAP1 SLOAD SWAP1 PUSH2 0x100 EXP SWAP1 DIV PUSH20 0xFFFFFFFFFFFFFFFFFFFFFFFFFFFFFFFFFFFFFFFF AND PUSH20 0xFFFFFFFFFFFFFFFFFFFFFFFFFFFFFFFFFFFFFFFF AND CALLER PUSH20 0xFFFFFFFFFFFFFFFFFFFFFFFFFFFFFFFFFFFFFFFF AND EQ PUSH2 0x153 JUMPI PUSH1 0x40 MLOAD PUSH32 0x8C379A000000000000000000000000000000000000000000000000000000000 DUP2 MSTORE PUSH1 0x4 ADD PUSH2 0x14A SWAP1 PUSH2 0x2CA JUMP JUMPDEST PUSH1 0x40 MLOAD DUP1 SWAP2 SUB SWAP1 REVERT JUMPDEST DUP1 PUSH0 DUP2 SWAP1 SSTORE POP POP JUMP JUMPDEST PUSH0 SLOAD DUP2 JUMP JUMPDEST PUSH1 0x1 PUSH0 SWAP1 SLOAD SWAP1 PUSH2 0x100 EXP SWAP1 DIV PUSH20 0xFFFFFFFFFFFFFFFFFFFFFFFFFFFFFFFFFFFFFFFF AND DUP2 JUMP JUMPDEST PUSH0 PUSH0 SLOAD SWAP1 POP SWAP1 JUMP JUMPDEST PUSH0 PUSH0 REVERT JUMPDEST PUSH0 DUP2 SWAP1 POP SWAP2 SWAP1 POP JUMP JUMPDEST PUSH2 0x1A4 DUP2 PUSH2 0x192 JUMP JUMPDEST DUP2 EQ PUSH2 0x1AE JUMPI PUSH0 PUSH0 REVERT JUMPDEST POP JUMP JUMPDEST PUSH0 DUP2 CALLDATALOAD SWAP1 POP PUSH2 0x1BF DUP2 PUSH2 0x19B JUMP JUMPDEST SWAP3 SWAP2 POP POP JUMP JUMPDEST PUSH0 PUSH1 0x20 DUP3 DUP5 SUB SLT ISZERO PUSH2 0x1DA JUMPI PUSH2 0x1D9 PUSH2 0x18E JUMP JUMPDEST JUMPDEST PUSH0 PUSH2 0x1E7 DUP5 DUP3 DUP6 ADD PUSH2 0x1B1 JUMP JUMPDEST SWAP2 POP POP SWAP3 SWAP2 POP POP JUMP JUMPDEST PUSH2 0x1F9 DUP2 PUSH2 0x192 JUMP JUMPDEST DUP3 MSTORE POP POP JUMP JUMPDEST PUSH0 PUSH1 0x20 DUP3 ADD SWAP1 POP PUSH2 0x212 PUSH0 DUP4 ADD DUP5 PUSH2 0x1F0 JUMP JUMPDEST SWAP3 SWAP2 POP POP JUMP JUMPDEST PUSH0 PUSH20 0xFFFFFFFFFFFFFFFFFFFFFFFFFFFFFFFFFFFFFFFF DUP3 AND SWAP1 POP SWAP2 SWAP1 POP JUMP JUMPDEST PUSH0 PUSH2 0x241 DUP3 PUSH2 0x218 JUMP JUMPDEST SWAP1 POP SWAP2 SWAP1 POP JUMP JUMPDEST PUSH2 0x251 DUP2 PUSH2 0x237 JUMP JUMPDEST DUP3 MSTORE POP POP JUMP JUMPDEST PUSH0 PUSH1 0x20 DUP3 ADD SWAP1 POP PUSH2 0x26A PUSH0 DUP4 ADD DUP5 PUSH2 0x248 JUMP JUMPDEST SWAP3 SWAP2 POP POP JUMP JUMPDEST PUSH0 DUP3 DUP3 MSTORE PUSH1 0x20 DUP3 ADD SWAP1 POP SWAP3 SWAP2 POP POP JUMP JUMPDEST PUSH32 0x4E6F74206F776E65720000000000000000000000000000000000000000000000 PUSH0 DUP3 ADD MSTORE POP JUMP JUMPDEST PUSH0 PUSH2 0x2B4 PUSH1 0x9 DUP4 PUSH2 0x270 JUMP JUMPDEST SWAP2 POP PUSH2 0x2BF DUP3 PUSH2 0x280 JUMP JUMPDEST PUSH1 0x20 DUP3 ADD SWAP1 POP SWAP2 SWAP1 POP JUMP JUMPDEST PUSH0 PUSH1 0x20 DUP3 ADD SWAP1 POP DUP2 DUP2 SUB PUSH0 DUP4 ADD MSTORE PUSH2 0x2E1 DUP2 PUSH2 0x2A8 JUMP JUMPDEST SWAP1 POP SWAP2 SWAP1 POP JUMP INVALID LOG2 PUSH5 0x6970667358 0x22 SLT KECCAK256 SWAP12 PUSH11 0xA1BB322A5A74033C969636 SWAP15 CALLDATALOAD MSIZE 0x24 0xB7 PREVRANDAO 0xAF SWAP7 DUP12 DUP5 PUSH2 0xB3CA SWAP13 BLOBHASH 0xB2 CLZ 0xAB DUP1 PUSH5 0x736F6C6343 STOP ADDMOD 0x22 STOP CALLER "
				},
				"gasEstimates": {
					"creation": {
						"codeDepositCost": "159600",
						"executionCost": "24465",
						"totalCost": "184065"
					},
					"external": {
						"getNumber()": "2475",
						"number()": "2424",
						"owner()": "2530",
						"setNumber(uint256)": "24661"
					}
				},
				"methodIdentifiers": {
					"getNumber()": "f2c9ecd8",
					"number()": "8381f58a",
					"owner()": "8da5cb5b",
					"setNumber(uint256)": "3fb5c1cb"
				}
			},
			"storageLayout": {
				"storage": [
					{
						"astId": 24,
						"contract": "contracts/prac13.sol:DeploymentReset",
						"label": "number",
						"offset": 0,
						"slot": "0",
						"type": "t_uint256"
					},
					{
						"astId": 26,
						"contract": "contracts/prac13.sol:DeploymentReset",
						"label": "owner",
						"offset": 0,
						"slot": "1",
						"type": "t_address"
					}
				],
				"types": {
					"t_address": {
						"encoding": "inplace",
						"label": "address",
						"numberOfBytes": "20"
					},
					"t_uint256": {
						"encoding": "inplace",
						"label": "uint256",
						"numberOfBytes": "32"
					}
				}
			},
			"userdoc": {
				"kind": "user",
				"methods": {},
				"version": 1
			}
		}
	}
}