{
	"contracts/prac20.sol": {
		"ModifyMemoryArray": {
			"abi": [
				{
					"inputs": [],
					"name": "createAndModifyArray",
					"outputs": [
						{
							"internalType": "uint256[]",
							"name": "",
							"type": "uint256[]"
						}
					],
					"stateMutability": "pure",
					"type": "function"
				},
				{
					"inputs": [
						{
							"internalType": "uint256[]",
							"name": "_numbers",
							"type": "uint256[]"
						}
					],
					"name": "modifyInputArray",
					"outputs": [
						{
							"internalType": "uint256[]",
							"name": "",
							"type": "uint256[]"
						}
					],
					"stateMutability": "pure",
					"type": "function"
				},
				{
					"inputs": [
						{
							"internalType": "uint256",
							"name": "_value",
							"type": "uint256"
						}
					],
					"name": "storeValue",
					"outputs": [],
					"stateMutability": "nonpayable",
					"type": "function"
				},
				{
					"inputs": [
						{
							"internalType": "uint256",
							"name": "",
							"type": "uint256"
						}
					],
					"name": "storedNumbers",
					"outputs": [
						{
							"internalType": "uint256",
							"name": "",
							"type": "uint256"
						}
					],
					"stateMutability": "view",
					"type": "function"
				}
			],
			"devdoc": {
				"kind": "dev",
				"methods": {},
				"version": 1
			},
			"evm": {
				"assembly": "    /* \"contracts/prac20.sol\":1832:3065  contract ModifyMemoryArray {... */\n  mstore(0x40, 0x80)\n  callvalue\n  dup1\n  iszero\n  tag_1\n  jumpi\n  revert(0x00, 0x00)\ntag_1:\n  pop\n  dataSize(sub_0)\n  dup1\n  dataOffset(sub_0)\n  0x00\n  codecopy\n  0x00\n  return\nstop\n\nsub_0: assembly {\n        /* \"contracts/prac20.sol\":1832:3065  contract ModifyMemoryArray {... */\n      mstore(0x40, 0x80)\n      callvalue\n      dup1\n      iszero\n      tag_1\n      jumpi\n      revert(0x00, 0x00)\n    tag_1:\n      pop\n      jumpi(tag_2, lt(calldatasize, 0x04))\n      shr(0xe0, calldataload(0x00))\n      dup1\n      0x191ec845\n      eq\n      tag_3\n      jumpi\n      dup1\n      0x3b1f0cd0\n      eq\n      tag_4\n      jumpi\n      dup1\n      0x7221a26a\n      eq\n      tag_5\n      jumpi\n      dup1\n      0xd672f278\n      eq\n      tag_6\n      jumpi\n    tag_2:\n      revert(0x00, 0x00)\n        /* \"contracts/prac20.sol\":2557:2876  function modifyInputArray(uint256[] memory _numbers)... */\n    tag_3:\n      tag_7\n      0x04\n      dup1\n      calldatasize\n      sub\n      dup2\n      add\n      swap1\n      tag_8\n      swap2\n      swap1\n      tag_9\n      jump\t// in\n    tag_8:\n      tag_10\n      jump\t// in\n    tag_7:\n      mload(0x40)\n      tag_11\n      swap2\n      swap1\n      tag_12\n      jump\t// in\n    tag_11:\n      mload(0x40)\n      dup1\n      swap2\n      sub\n      swap1\n      return\n        /* \"contracts/prac20.sol\":1868:1898  uint256[] public storedNumbers */\n    tag_4:\n      tag_13\n      0x04\n      dup1\n      calldatasize\n      sub\n      dup2\n      add\n      swap1\n      tag_14\n      swap2\n      swap1\n      tag_15\n      jump\t// in\n    tag_14:\n      tag_16\n      jump\t// in\n    tag_13:\n      mload(0x40)\n      tag_17\n      swap2\n      swap1\n      tag_18\n      jump\t// in\n    tag_17:\n      mload(0x40)\n      dup1\n      swap2\n      sub\n      swap1\n      return\n        /* \"contracts/prac20.sol\":2884:3062  function storeValue(uint256 _value) public {... */\n    tag_5:\n      tag_19\n      0x04\n      dup1\n      calldatasize\n      sub\n      dup2\n      add\n      swap1\n      tag_20\n      swap2\n      swap1\n      tag_15\n      jump\t// in\n    tag_20:\n      tag_21\n      jump\t// in\n    tag_19:\n      stop\n        /* \"contracts/prac20.sol\":1907:2549  function createAndModifyArray()... */\n    tag_6:\n      tag_22\n      tag_23\n      jump\t// in\n    tag_22:\n      mload(0x40)\n      tag_24\n      swap2\n      swap1\n      tag_12\n      jump\t// in\n    tag_24:\n      mload(0x40)\n      dup1\n      swap2\n      sub\n      swap1\n      return\n        /* \"contracts/prac20.sol\":2557:2876  function modifyInputArray(uint256[] memory _numbers)... */\n    tag_10:\n        /* \"contracts/prac20.sol\":2658:2674  uint256[] memory */\n      0x60\n        /* \"contracts/prac20.sol\":2766:2769  777 */\n      0x0309\n        /* \"contracts/prac20.sol\":2752:2760  _numbers */\n      dup3\n        /* \"contracts/prac20.sol\":2761:2762  0 */\n      0x00\n        /* \"contracts/prac20.sol\":2752:2763  _numbers[0] */\n      dup2\n      mload\n      dup2\n      lt\n      tag_26\n      jumpi\n      tag_27\n      tag_28\n      jump\t// in\n    tag_27:\n    tag_26:\n      0x20\n      mul\n      0x20\n      add\n      add\n        /* \"contracts/prac20.sol\":2752:2769  _numbers[0] = 777 */\n      dup2\n      dup2\n      mstore\n      pop\n      pop\n        /* \"contracts/prac20.sol\":2860:2868  _numbers */\n      dup2\n        /* \"contracts/prac20.sol\":2853:2868  return _numbers */\n      swap1\n      pop\n        /* \"contracts/prac20.sol\":2557:2876  function modifyInputArray(uint256[] memory _numbers)... */\n      swap2\n      swap1\n      pop\n      jump\t// out\n        /* \"contracts/prac20.sol\":1868:1898  uint256[] public storedNumbers */\n    tag_16:\n      0x00\n      dup2\n      dup2\n      sload\n      dup2\n      lt\n      tag_29\n      jumpi\n      0x00\n      dup1\n      revert\n    tag_29:\n      swap1\n      0x00\n      mstore\n      keccak256(0x00, 0x20)\n      add\n      0x00\n      swap2\n      pop\n      swap1\n      pop\n      sload\n      dup2\n      jump\t// out\n        /* \"contracts/prac20.sol\":2884:3062  function storeValue(uint256 _value) public {... */\n    tag_21:\n        /* \"contracts/prac20.sol\":3028:3041  storedNumbers */\n      0x00\n        /* \"contracts/prac20.sol\":3047:3053  _value */\n      dup2\n        /* \"contracts/prac20.sol\":3028:3054  storedNumbers.push(_value) */\n      swap1\n      dup1\n      0x01\n      dup2\n      sload\n      add\n      dup1\n      dup3\n      sstore\n      dup1\n      swap2\n      pop\n      pop\n      0x01\n      swap1\n      sub\n      swap1\n      0x00\n      mstore\n      keccak256(0x00, 0x20)\n      add\n      0x00\n      swap1\n      swap2\n      swap1\n      swap2\n      swap1\n      swap2\n      pop\n      sstore\n        /* \"contracts/prac20.sol\":2884:3062  function storeValue(uint256 _value) public {... */\n      pop\n      jump\t// out\n        /* \"contracts/prac20.sol\":1907:2549  function createAndModifyArray()... */\n    tag_23:\n        /* \"contracts/prac20.sol\":1987:2003  uint256[] memory */\n      0x60\n        /* \"contracts/prac20.sol\":2123:2149  uint256[] memory tempArray */\n      0x00\n        /* \"contracts/prac20.sol\":2166:2167  3 */\n      0x03\n        /* \"contracts/prac20.sol\":2152:2168  new uint256[](3) */\n      0xffffffffffffffff\n      dup2\n      gt\n      iszero\n      tag_34\n      jumpi\n      tag_35\n      tag_36\n      jump\t// in\n    tag_35:\n    tag_34:\n      mload(0x40)\n      swap1\n      dup1\n      dup3\n      mstore\n      dup1\n      0x20\n      mul\n      0x20\n      add\n      dup3\n      add\n      0x40\n      mstore\n      dup1\n      iszero\n      tag_37\n      jumpi\n      dup2\n      0x20\n      add\n      0x20\n      dup3\n      mul\n      dup1\n      calldatasize\n      dup4\n      calldatacopy\n      dup1\n      dup3\n      add\n      swap2\n      pop\n      pop\n      swap1\n      pop\n    tag_37:\n      pop\n        /* \"contracts/prac20.sol\":2123:2168  uint256[] memory tempArray = new uint256[](3) */\n      swap1\n      pop\n        /* \"contracts/prac20.sol\":2248:2249  1 */\n      0x01\n        /* \"contracts/prac20.sol\":2233:2242  tempArray */\n      dup2\n        /* \"contracts/prac20.sol\":2243:2244  0 */\n      0x00\n        /* \"contracts/prac20.sol\":2233:2245  tempArray[0] */\n      dup2\n      mload\n      dup2\n      lt\n      tag_38\n      jumpi\n      tag_39\n      tag_28\n      jump\t// in\n    tag_39:\n    tag_38:\n      0x20\n      mul\n      0x20\n      add\n      add\n        /* \"contracts/prac20.sol\":2233:2249  tempArray[0] = 1 */\n      dup2\n      dup2\n      mstore\n      pop\n      pop\n        /* \"contracts/prac20.sol\":2277:2278  2 */\n      0x02\n        /* \"contracts/prac20.sol\":2262:2271  tempArray */\n      dup2\n        /* \"contracts/prac20.sol\":2272:2273  1 */\n      0x01\n        /* \"contracts/prac20.sol\":2262:2274  tempArray[1] */\n      dup2\n      mload\n      dup2\n      lt\n      tag_40\n      jumpi\n      tag_41\n      tag_28\n      jump\t// in\n    tag_41:\n    tag_40:\n      0x20\n      mul\n      0x20\n      add\n      add\n        /* \"contracts/prac20.sol\":2262:2278  tempArray[1] = 2 */\n      dup2\n      dup2\n      mstore\n      pop\n      pop\n        /* \"contracts/prac20.sol\":2306:2307  3 */\n      0x03\n        /* \"contracts/prac20.sol\":2291:2300  tempArray */\n      dup2\n        /* \"contracts/prac20.sol\":2301:2302  2 */\n      0x02\n        /* \"contracts/prac20.sol\":2291:2303  tempArray[2] */\n      dup2\n      mload\n      dup2\n      lt\n      tag_42\n      jumpi\n      tag_43\n      tag_28\n      jump\t// in\n    tag_43:\n    tag_42:\n      0x20\n      mul\n      0x20\n      add\n      add\n        /* \"contracts/prac20.sol\":2291:2307  tempArray[2] = 3 */\n      dup2\n      dup2\n      mstore\n      pop\n      pop\n        /* \"contracts/prac20.sol\":2434:2437  999 */\n      0x03e7\n        /* \"contracts/prac20.sol\":2419:2428  tempArray */\n      dup2\n        /* \"contracts/prac20.sol\":2429:2430  1 */\n      0x01\n        /* \"contracts/prac20.sol\":2419:2431  tempArray[1] */\n      dup2\n      mload\n      dup2\n      lt\n      tag_44\n      jumpi\n      tag_45\n      tag_28\n      jump\t// in\n    tag_45:\n    tag_44:\n      0x20\n      mul\n      0x20\n      add\n      add\n        /* \"contracts/prac20.sol\":2419:2437  tempArray[1] = 999 */\n      dup2\n      dup2\n      mstore\n      pop\n      pop\n        /* \"contracts/prac20.sol\":2532:2541  tempArray */\n      dup1\n        /* \"contracts/prac20.sol\":2525:2541  return tempArray */\n      swap2\n      pop\n      pop\n        /* \"contracts/prac20.sol\":1907:2549  function createAndModifyArray()... */\n      swap1\n      jump\t// out\n        /* \"#utility.yul\":7:82   */\n    tag_46:\n        /* \"#utility.yul\":40:46   */\n      0x00\n        /* \"#utility.yul\":73:75   */\n      0x40\n        /* \"#utility.yul\":67:76   */\n      mload\n        /* \"#utility.yul\":57:76   */\n      swap1\n      pop\n        /* \"#utility.yul\":7:82   */\n      swap1\n      jump\t// out\n        /* \"#utility.yul\":88:205   */\n    tag_47:\n        /* \"#utility.yul\":197:198   */\n      0x00\n        /* \"#utility.yul\":194:195   */\n      0x00\n        /* \"#utility.yul\":187:199   */\n      revert\n        /* \"#utility.yul\":211:328   */\n    tag_48:\n        /* \"#utility.yul\":320:321   */\n      0x00\n        /* \"#utility.yul\":317:318   */\n      0x00\n        /* \"#utility.yul\":310:322   */\n      revert\n        /* \"#utility.yul\":334:451   */\n    tag_49:\n        /* \"#utility.yul\":443:444   */\n      0x00\n        /* \"#utility.yul\":440:441   */\n      0x00\n        /* \"#utility.yul\":433:445   */\n      revert\n        /* \"#utility.yul\":457:559   */\n    tag_50:\n        /* \"#utility.yul\":498:504   */\n      0x00\n        /* \"#utility.yul\":549:551   */\n      0x1f\n        /* \"#utility.yul\":545:552   */\n      not\n        /* \"#utility.yul\":540:542   */\n      0x1f\n        /* \"#utility.yul\":533:538   */\n      dup4\n        /* \"#utility.yul\":529:543   */\n      add\n        /* \"#utility.yul\":525:553   */\n      and\n        /* \"#utility.yul\":515:553   */\n      swap1\n      pop\n        /* \"#utility.yul\":457:559   */\n      swap2\n      swap1\n      pop\n      jump\t// out\n        /* \"#utility.yul\":565:745   */\n    tag_36:\n        /* \"#utility.yul\":613:690   */\n      0x4e487b7100000000000000000000000000000000000000000000000000000000\n        /* \"#utility.yul\":610:611   */\n      0x00\n        /* \"#utility.yul\":603:691   */\n      mstore\n        /* \"#utility.yul\":710:714   */\n      0x41\n        /* \"#utility.yul\":707:708   */\n      0x04\n        /* \"#utility.yul\":700:715   */\n      mstore\n        /* \"#utility.yul\":734:738   */\n      0x24\n        /* \"#utility.yul\":731:732   */\n      0x00\n        /* \"#utility.yul\":724:739   */\n      revert\n        /* \"#utility.yul\":751:1032   */\n    tag_51:\n        /* \"#utility.yul\":834:861   */\n      tag_76\n        /* \"#utility.yul\":856:860   */\n      dup3\n        /* \"#utility.yul\":834:861   */\n      tag_50\n      jump\t// in\n    tag_76:\n        /* \"#utility.yul\":826:832   */\n      dup2\n        /* \"#utility.yul\":822:862   */\n      add\n        /* \"#utility.yul\":964:970   */\n      dup2\n        /* \"#utility.yul\":952:962   */\n      dup2\n        /* \"#utility.yul\":949:971   */\n      lt\n        /* \"#utility.yul\":928:946   */\n      0xffffffffffffffff\n        /* \"#utility.yul\":916:926   */\n      dup3\n        /* \"#utility.yul\":913:947   */\n      gt\n        /* \"#utility.yul\":910:972   */\n      or\n        /* \"#utility.yul\":907:995   */\n      iszero\n      tag_77\n      jumpi\n        /* \"#utility.yul\":975:993   */\n      tag_78\n      tag_36\n      jump\t// in\n    tag_78:\n        /* \"#utility.yul\":907:995   */\n    tag_77:\n        /* \"#utility.yul\":1015:1025   */\n      dup1\n        /* \"#utility.yul\":1011:1013   */\n      0x40\n        /* \"#utility.yul\":1004:1026   */\n      mstore\n        /* \"#utility.yul\":794:1032   */\n      pop\n        /* \"#utility.yul\":751:1032   */\n      pop\n      pop\n      jump\t// out\n        /* \"#utility.yul\":1038:1167   */\n    tag_52:\n        /* \"#utility.yul\":1072:1078   */\n      0x00\n        /* \"#utility.yul\":1099:1119   */\n      tag_80\n      tag_46\n      jump\t// in\n    tag_80:\n        /* \"#utility.yul\":1089:1119   */\n      swap1\n      pop\n        /* \"#utility.yul\":1128:1161   */\n      tag_81\n        /* \"#utility.yul\":1156:1160   */\n      dup3\n        /* \"#utility.yul\":1148:1154   */\n      dup3\n        /* \"#utility.yul\":1128:1161   */\n      tag_51\n      jump\t// in\n    tag_81:\n        /* \"#utility.yul\":1038:1167   */\n      swap2\n      swap1\n      pop\n      jump\t// out\n        /* \"#utility.yul\":1173:1484   */\n    tag_53:\n        /* \"#utility.yul\":1250:1254   */\n      0x00\n        /* \"#utility.yul\":1340:1358   */\n      0xffffffffffffffff\n        /* \"#utility.yul\":1332:1338   */\n      dup3\n        /* \"#utility.yul\":1329:1359   */\n      gt\n        /* \"#utility.yul\":1326:1382   */\n      iszero\n      tag_83\n      jumpi\n        /* \"#utility.yul\":1362:1380   */\n      tag_84\n      tag_36\n      jump\t// in\n    tag_84:\n        /* \"#utility.yul\":1326:1382   */\n    tag_83:\n        /* \"#utility.yul\":1412:1416   */\n      0x20\n        /* \"#utility.yul\":1404:1410   */\n      dup3\n        /* \"#utility.yul\":1400:1417   */\n      mul\n        /* \"#utility.yul\":1392:1417   */\n      swap1\n      pop\n        /* \"#utility.yul\":1472:1476   */\n      0x20\n        /* \"#utility.yul\":1466:1470   */\n      dup2\n        /* \"#utility.yul\":1462:1477   */\n      add\n        /* \"#utility.yul\":1454:1477   */\n      swap1\n      pop\n        /* \"#utility.yul\":1173:1484   */\n      swap2\n      swap1\n      pop\n      jump\t// out\n        /* \"#utility.yul\":1490:1607   */\n    tag_54:\n        /* \"#utility.yul\":1599:1600   */\n      0x00\n        /* \"#utility.yul\":1596:1597   */\n      0x00\n        /* \"#utility.yul\":1589:1601   */\n      revert\n        /* \"#utility.yul\":1613:1690   */\n    tag_55:\n        /* \"#utility.yul\":1650:1657   */\n      0x00\n        /* \"#utility.yul\":1679:1684   */\n      dup2\n        /* \"#utility.yul\":1668:1684   */\n      swap1\n      pop\n        /* \"#utility.yul\":1613:1690   */\n      swap2\n      swap1\n      pop\n      jump\t// out\n        /* \"#utility.yul\":1696:1818   */\n    tag_56:\n        /* \"#utility.yul\":1769:1793   */\n      tag_88\n        /* \"#utility.yul\":1787:1792   */\n      dup2\n        /* \"#utility.yul\":1769:1793   */\n      tag_55\n      jump\t// in\n    tag_88:\n        /* \"#utility.yul\":1762:1767   */\n      dup2\n        /* \"#utility.yul\":1759:1794   */\n      eq\n        /* \"#utility.yul\":1749:1812   */\n      tag_89\n      jumpi\n        /* \"#utility.yul\":1808:1809   */\n      0x00\n        /* \"#utility.yul\":1805:1806   */\n      0x00\n        /* \"#utility.yul\":1798:1810   */\n      revert\n        /* \"#utility.yul\":1749:1812   */\n    tag_89:\n        /* \"#utility.yul\":1696:1818   */\n      pop\n      jump\t// out\n        /* \"#utility.yul\":1824:1963   */\n    tag_57:\n        /* \"#utility.yul\":1870:1875   */\n      0x00\n        /* \"#utility.yul\":1908:1914   */\n      dup2\n        /* \"#utility.yul\":1895:1915   */\n      calldataload\n        /* \"#utility.yul\":1886:1915   */\n      swap1\n      pop\n        /* \"#utility.yul\":1924:1957   */\n      tag_91\n        /* \"#utility.yul\":1951:1956   */\n      dup2\n        /* \"#utility.yul\":1924:1957   */\n      tag_56\n      jump\t// in\n    tag_91:\n        /* \"#utility.yul\":1824:1963   */\n      swap3\n      swap2\n      pop\n      pop\n      jump\t// out\n        /* \"#utility.yul\":1986:2696   */\n    tag_58:\n        /* \"#utility.yul\":2082:2087   */\n      0x00\n        /* \"#utility.yul\":2107:2188   */\n      tag_93\n        /* \"#utility.yul\":2123:2187   */\n      tag_94\n        /* \"#utility.yul\":2180:2186   */\n      dup5\n        /* \"#utility.yul\":2123:2187   */\n      tag_53\n      jump\t// in\n    tag_94:\n        /* \"#utility.yul\":2107:2188   */\n      tag_52\n      jump\t// in\n    tag_93:\n        /* \"#utility.yul\":2098:2188   */\n      swap1\n      pop\n        /* \"#utility.yul\":2208:2213   */\n      dup1\n        /* \"#utility.yul\":2237:2243   */\n      dup4\n        /* \"#utility.yul\":2230:2235   */\n      dup3\n        /* \"#utility.yul\":2223:2244   */\n      mstore\n        /* \"#utility.yul\":2271:2275   */\n      0x20\n        /* \"#utility.yul\":2264:2269   */\n      dup3\n        /* \"#utility.yul\":2260:2276   */\n      add\n        /* \"#utility.yul\":2253:2276   */\n      swap1\n      pop\n        /* \"#utility.yul\":2324:2328   */\n      0x20\n        /* \"#utility.yul\":2316:2322   */\n      dup5\n        /* \"#utility.yul\":2312:2329   */\n      mul\n        /* \"#utility.yul\":2304:2310   */\n      dup4\n        /* \"#utility.yul\":2300:2330   */\n      add\n        /* \"#utility.yul\":2353:2356   */\n      dup6\n        /* \"#utility.yul\":2345:2351   */\n      dup2\n        /* \"#utility.yul\":2342:2357   */\n      gt\n        /* \"#utility.yul\":2339:2461   */\n      iszero\n      tag_95\n      jumpi\n        /* \"#utility.yul\":2372:2451   */\n      tag_96\n      tag_54\n      jump\t// in\n    tag_96:\n        /* \"#utility.yul\":2339:2461   */\n    tag_95:\n        /* \"#utility.yul\":2487:2493   */\n      dup4\n        /* \"#utility.yul\":2470:2690   */\n    tag_97:\n        /* \"#utility.yul\":2504:2510   */\n      dup2\n        /* \"#utility.yul\":2499:2502   */\n      dup2\n        /* \"#utility.yul\":2496:2511   */\n      lt\n        /* \"#utility.yul\":2470:2690   */\n      iszero\n      tag_99\n      jumpi\n        /* \"#utility.yul\":2579:2582   */\n      dup1\n        /* \"#utility.yul\":2608:2645   */\n      tag_100\n        /* \"#utility.yul\":2641:2644   */\n      dup9\n        /* \"#utility.yul\":2629:2639   */\n      dup3\n        /* \"#utility.yul\":2608:2645   */\n      tag_57\n      jump\t// in\n    tag_100:\n        /* \"#utility.yul\":2603:2606   */\n      dup5\n        /* \"#utility.yul\":2596:2646   */\n      mstore\n        /* \"#utility.yul\":2675:2679   */\n      0x20\n        /* \"#utility.yul\":2670:2673   */\n      dup5\n        /* \"#utility.yul\":2666:2680   */\n      add\n        /* \"#utility.yul\":2659:2680   */\n      swap4\n      pop\n        /* \"#utility.yul\":2546:2690   */\n      pop\n        /* \"#utility.yul\":2530:2534   */\n      0x20\n        /* \"#utility.yul\":2525:2528   */\n      dup2\n        /* \"#utility.yul\":2521:2535   */\n      add\n        /* \"#utility.yul\":2514:2535   */\n      swap1\n      pop\n        /* \"#utility.yul\":2470:2690   */\n      jump(tag_97)\n    tag_99:\n        /* \"#utility.yul\":2474:2495   */\n      pop\n        /* \"#utility.yul\":2088:2696   */\n      pop\n      pop\n        /* \"#utility.yul\":1986:2696   */\n      swap4\n      swap3\n      pop\n      pop\n      pop\n      jump\t// out\n        /* \"#utility.yul\":2719:3089   */\n    tag_59:\n        /* \"#utility.yul\":2790:2795   */\n      0x00\n        /* \"#utility.yul\":2839:2842   */\n      dup3\n        /* \"#utility.yul\":2832:2836   */\n      0x1f\n        /* \"#utility.yul\":2824:2830   */\n      dup4\n        /* \"#utility.yul\":2820:2837   */\n      add\n        /* \"#utility.yul\":2816:2843   */\n      slt\n        /* \"#utility.yul\":2806:2928   */\n      tag_102\n      jumpi\n        /* \"#utility.yul\":2847:2926   */\n      tag_103\n      tag_49\n      jump\t// in\n    tag_103:\n        /* \"#utility.yul\":2806:2928   */\n    tag_102:\n        /* \"#utility.yul\":2964:2970   */\n      dup2\n        /* \"#utility.yul\":2951:2971   */\n      calldataload\n        /* \"#utility.yul\":2989:3083   */\n      tag_104\n        /* \"#utility.yul\":3079:3082   */\n      dup5\n        /* \"#utility.yul\":3071:3077   */\n      dup3\n        /* \"#utility.yul\":3064:3068   */\n      0x20\n        /* \"#utility.yul\":3056:3062   */\n      dup7\n        /* \"#utility.yul\":3052:3069   */\n      add\n        /* \"#utility.yul\":2989:3083   */\n      tag_58\n      jump\t// in\n    tag_104:\n        /* \"#utility.yul\":2980:3083   */\n      swap2\n      pop\n        /* \"#utility.yul\":2796:3089   */\n      pop\n        /* \"#utility.yul\":2719:3089   */\n      swap3\n      swap2\n      pop\n      pop\n      jump\t// out\n        /* \"#utility.yul\":3095:3634   */\n    tag_9:\n        /* \"#utility.yul\":3179:3185   */\n      0x00\n        /* \"#utility.yul\":3228:3230   */\n      0x20\n        /* \"#utility.yul\":3216:3225   */\n      dup3\n        /* \"#utility.yul\":3207:3214   */\n      dup5\n        /* \"#utility.yul\":3203:3226   */\n      sub\n        /* \"#utility.yul\":3199:3231   */\n      slt\n        /* \"#utility.yul\":3196:3315   */\n      iszero\n      tag_106\n      jumpi\n        /* \"#utility.yul\":3234:3313   */\n      tag_107\n      tag_47\n      jump\t// in\n    tag_107:\n        /* \"#utility.yul\":3196:3315   */\n    tag_106:\n        /* \"#utility.yul\":3382:3383   */\n      0x00\n        /* \"#utility.yul\":3371:3380   */\n      dup3\n        /* \"#utility.yul\":3367:3384   */\n      add\n        /* \"#utility.yul\":3354:3385   */\n      calldataload\n        /* \"#utility.yul\":3412:3430   */\n      0xffffffffffffffff\n        /* \"#utility.yul\":3404:3410   */\n      dup2\n        /* \"#utility.yul\":3401:3431   */\n      gt\n        /* \"#utility.yul\":3398:3515   */\n      iszero\n      tag_108\n      jumpi\n        /* \"#utility.yul\":3434:3513   */\n      tag_109\n      tag_48\n      jump\t// in\n    tag_109:\n        /* \"#utility.yul\":3398:3515   */\n    tag_108:\n        /* \"#utility.yul\":3539:3617   */\n      tag_110\n        /* \"#utility.yul\":3609:3616   */\n      dup5\n        /* \"#utility.yul\":3600:3606   */\n      dup3\n        /* \"#utility.yul\":3589:3598   */\n      dup6\n        /* \"#utility.yul\":3585:3607   */\n      add\n        /* \"#utility.yul\":3539:3617   */\n      tag_59\n      jump\t// in\n    tag_110:\n        /* \"#utility.yul\":3529:3617   */\n      swap2\n      pop\n        /* \"#utility.yul\":3325:3627   */\n      pop\n        /* \"#utility.yul\":3095:3634   */\n      swap3\n      swap2\n      pop\n      pop\n      jump\t// out\n        /* \"#utility.yul\":3640:3754   */\n    tag_60:\n        /* \"#utility.yul\":3707:3713   */\n      0x00\n        /* \"#utility.yul\":3741:3746   */\n      dup2\n        /* \"#utility.yul\":3735:3747   */\n      mload\n        /* \"#utility.yul\":3725:3747   */\n      swap1\n      pop\n        /* \"#utility.yul\":3640:3754   */\n      swap2\n      swap1\n      pop\n      jump\t// out\n        /* \"#utility.yul\":3760:3944   */\n    tag_61:\n        /* \"#utility.yul\":3859:3870   */\n      0x00\n        /* \"#utility.yul\":3893:3899   */\n      dup3\n        /* \"#utility.yul\":3888:3891   */\n      dup3\n        /* \"#utility.yul\":3881:3900   */\n      mstore\n        /* \"#utility.yul\":3933:3937   */\n      0x20\n        /* \"#utility.yul\":3928:3931   */\n      dup3\n        /* \"#utility.yul\":3924:3938   */\n      add\n        /* \"#utility.yul\":3909:3938   */\n      swap1\n      pop\n        /* \"#utility.yul\":3760:3944   */\n      swap3\n      swap2\n      pop\n      pop\n      jump\t// out\n        /* \"#utility.yul\":3950:4082   */\n    tag_62:\n        /* \"#utility.yul\":4017:4021   */\n      0x00\n        /* \"#utility.yul\":4040:4043   */\n      dup2\n        /* \"#utility.yul\":4032:4043   */\n      swap1\n      pop\n        /* \"#utility.yul\":4070:4074   */\n      0x20\n        /* \"#utility.yul\":4065:4068   */\n      dup3\n        /* \"#utility.yul\":4061:4075   */\n      add\n        /* \"#utility.yul\":4053:4075   */\n      swap1\n      pop\n        /* \"#utility.yul\":3950:4082   */\n      swap2\n      swap1\n      pop\n      jump\t// out\n        /* \"#utility.yul\":4088:4196   */\n    tag_63:\n        /* \"#utility.yul\":4165:4189   */\n      tag_115\n        /* \"#utility.yul\":4183:4188   */\n      dup2\n        /* \"#utility.yul\":4165:4189   */\n      tag_55\n      jump\t// in\n    tag_115:\n        /* \"#utility.yul\":4160:4163   */\n      dup3\n        /* \"#utility.yul\":4153:4190   */\n      mstore\n        /* \"#utility.yul\":4088:4196   */\n      pop\n      pop\n      jump\t// out\n        /* \"#utility.yul\":4202:4381   */\n    tag_64:\n        /* \"#utility.yul\":4271:4281   */\n      0x00\n        /* \"#utility.yul\":4292:4338   */\n      tag_117\n        /* \"#utility.yul\":4334:4337   */\n      dup4\n        /* \"#utility.yul\":4326:4332   */\n      dup4\n        /* \"#utility.yul\":4292:4338   */\n      tag_63\n      jump\t// in\n    tag_117:\n        /* \"#utility.yul\":4370:4374   */\n      0x20\n        /* \"#utility.yul\":4365:4368   */\n      dup4\n        /* \"#utility.yul\":4361:4375   */\n      add\n        /* \"#utility.yul\":4347:4375   */\n      swap1\n      pop\n        /* \"#utility.yul\":4202:4381   */\n      swap3\n      swap2\n      pop\n      pop\n      jump\t// out\n        /* \"#utility.yul\":4387:4500   */\n    tag_65:\n        /* \"#utility.yul\":4457:4461   */\n      0x00\n        /* \"#utility.yul\":4489:4493   */\n      0x20\n        /* \"#utility.yul\":4484:4487   */\n      dup3\n        /* \"#utility.yul\":4480:4494   */\n      add\n        /* \"#utility.yul\":4472:4494   */\n      swap1\n      pop\n        /* \"#utility.yul\":4387:4500   */\n      swap2\n      swap1\n      pop\n      jump\t// out\n        /* \"#utility.yul\":4536:5268   */\n    tag_66:\n        /* \"#utility.yul\":4655:4658   */\n      0x00\n        /* \"#utility.yul\":4684:4738   */\n      tag_120\n        /* \"#utility.yul\":4732:4737   */\n      dup3\n        /* \"#utility.yul\":4684:4738   */\n      tag_60\n      jump\t// in\n    tag_120:\n        /* \"#utility.yul\":4754:4840   */\n      tag_121\n        /* \"#utility.yul\":4833:4839   */\n      dup2\n        /* \"#utility.yul\":4828:4831   */\n      dup6\n        /* \"#utility.yul\":4754:4840   */\n      tag_61\n      jump\t// in\n    tag_121:\n        /* \"#utility.yul\":4747:4840   */\n      swap4\n      pop\n        /* \"#utility.yul\":4864:4920   */\n      tag_122\n        /* \"#utility.yul\":4914:4919   */\n      dup4\n        /* \"#utility.yul\":4864:4920   */\n      tag_62\n      jump\t// in\n    tag_122:\n        /* \"#utility.yul\":4943:4950   */\n      dup1\n        /* \"#utility.yul\":4974:4975   */\n      0x00\n        /* \"#utility.yul\":4959:5243   */\n    tag_123:\n        /* \"#utility.yul\":4984:4990   */\n      dup4\n        /* \"#utility.yul\":4981:4982   */\n      dup2\n        /* \"#utility.yul\":4978:4991   */\n      lt\n        /* \"#utility.yul\":4959:5243   */\n      iszero\n      tag_125\n      jumpi\n        /* \"#utility.yul\":5060:5066   */\n      dup2\n        /* \"#utility.yul\":5054:5067   */\n      mload\n        /* \"#utility.yul\":5087:5150   */\n      tag_126\n        /* \"#utility.yul\":5146:5149   */\n      dup9\n        /* \"#utility.yul\":5131:5144   */\n      dup3\n        /* \"#utility.yul\":5087:5150   */\n      tag_64\n      jump\t// in\n    tag_126:\n        /* \"#utility.yul\":5080:5150   */\n      swap8\n      pop\n        /* \"#utility.yul\":5173:5233   */\n      tag_127\n        /* \"#utility.yul\":5226:5232   */\n      dup4\n        /* \"#utility.yul\":5173:5233   */\n      tag_65\n      jump\t// in\n    tag_127:\n        /* \"#utility.yul\":5163:5233   */\n      swap3\n      pop\n        /* \"#utility.yul\":5019:5243   */\n      pop\n        /* \"#utility.yul\":5006:5007   */\n      0x01\n        /* \"#utility.yul\":5003:5004   */\n      dup2\n        /* \"#utility.yul\":4999:5008   */\n      add\n        /* \"#utility.yul\":4994:5008   */\n      swap1\n      pop\n        /* \"#utility.yul\":4959:5243   */\n      jump(tag_123)\n    tag_125:\n        /* \"#utility.yul\":4963:4977   */\n      pop\n        /* \"#utility.yul\":5259:5262   */\n      dup6\n        /* \"#utility.yul\":5252:5262   */\n      swap4\n      pop\n        /* \"#utility.yul\":4660:5268   */\n      pop\n      pop\n      pop\n        /* \"#utility.yul\":4536:5268   */\n      swap3\n      swap2\n      pop\n      pop\n      jump\t// out\n        /* \"#utility.yul\":5274:5647   */\n    tag_12:\n        /* \"#utility.yul\":5417:5421   */\n      0x00\n        /* \"#utility.yul\":5455:5457   */\n      0x20\n        /* \"#utility.yul\":5444:5453   */\n      dup3\n        /* \"#utility.yul\":5440:5458   */\n      add\n        /* \"#utility.yul\":5432:5458   */\n      swap1\n      pop\n        /* \"#utility.yul\":5504:5513   */\n      dup2\n        /* \"#utility.yul\":5498:5502   */\n      dup2\n        /* \"#utility.yul\":5494:5514   */\n      sub\n        /* \"#utility.yul\":5490:5491   */\n      0x00\n        /* \"#utility.yul\":5479:5488   */\n      dup4\n        /* \"#utility.yul\":5475:5492   */\n      add\n        /* \"#utility.yul\":5468:5515   */\n      mstore\n        /* \"#utility.yul\":5532:5640   */\n      tag_129\n        /* \"#utility.yul\":5635:5639   */\n      dup2\n        /* \"#utility.yul\":5626:5632   */\n      dup5\n        /* \"#utility.yul\":5532:5640   */\n      tag_66\n      jump\t// in\n    tag_129:\n        /* \"#utility.yul\":5524:5640   */\n      swap1\n      pop\n        /* \"#utility.yul\":5274:5647   */\n      swap3\n      swap2\n      pop\n      pop\n      jump\t// out\n        /* \"#utility.yul\":5653:5982   */\n    tag_15:\n        /* \"#utility.yul\":5712:5718   */\n      0x00\n        /* \"#utility.yul\":5761:5763   */\n      0x20\n        /* \"#utility.yul\":5749:5758   */\n      dup3\n        /* \"#utility.yul\":5740:5747   */\n      dup5\n        /* \"#utility.yul\":5736:5759   */\n      sub\n        /* \"#utility.yul\":5732:5764   */\n      slt\n        /* \"#utility.yul\":5729:5848   */\n      iszero\n      tag_131\n      jumpi\n        /* \"#utility.yul\":5767:5846   */\n      tag_132\n      tag_47\n      jump\t// in\n    tag_132:\n        /* \"#utility.yul\":5729:5848   */\n    tag_131:\n        /* \"#utility.yul\":5887:5888   */\n      0x00\n        /* \"#utility.yul\":5912:5965   */\n      tag_133\n        /* \"#utility.yul\":5957:5964   */\n      dup5\n        /* \"#utility.yul\":5948:5954   */\n      dup3\n        /* \"#utility.yul\":5937:5946   */\n      dup6\n        /* \"#utility.yul\":5933:5955   */\n      add\n        /* \"#utility.yul\":5912:5965   */\n      tag_57\n      jump\t// in\n    tag_133:\n        /* \"#utility.yul\":5902:5965   */\n      swap2\n      pop\n        /* \"#utility.yul\":5858:5975   */\n      pop\n        /* \"#utility.yul\":5653:5982   */\n      swap3\n      swap2\n      pop\n      pop\n      jump\t// out\n        /* \"#utility.yul\":5988:6106   */\n    tag_67:\n        /* \"#utility.yul\":6075:6099   */\n      tag_135\n        /* \"#utility.yul\":6093:6098   */\n      dup2\n        /* \"#utility.yul\":6075:6099   */\n      tag_55\n      jump\t// in\n    tag_135:\n        /* \"#utility.yul\":6070:6073   */\n      dup3\n        /* \"#utility.yul\":6063:6100   */\n      mstore\n        /* \"#utility.yul\":5988:6106   */\n      pop\n      pop\n      jump\t// out\n        /* \"#utility.yul\":6112:6334   */\n    tag_18:\n        /* \"#utility.yul\":6205:6209   */\n      0x00\n        /* \"#utility.yul\":6243:6245   */\n      0x20\n        /* \"#utility.yul\":6232:6241   */\n      dup3\n        /* \"#utility.yul\":6228:6246   */\n      add\n        /* \"#utility.yul\":6220:6246   */\n      swap1\n      pop\n        /* \"#utility.yul\":6256:6327   */\n      tag_137\n        /* \"#utility.yul\":6324:6325   */\n      0x00\n        /* \"#utility.yul\":6313:6322   */\n      dup4\n        /* \"#utility.yul\":6309:6326   */\n      add\n        /* \"#utility.yul\":6300:6306   */\n      dup5\n        /* \"#utility.yul\":6256:6327   */\n      tag_67\n      jump\t// in\n    tag_137:\n        /* \"#utility.yul\":6112:6334   */\n      swap3\n      swap2\n      pop\n      pop\n      jump\t// out\n        /* \"#utility.yul\":6340:6520   */\n    tag_28:\n        /* \"#utility.yul\":6388:6465   */\n      0x4e487b7100000000000000000000000000000000000000000000000000000000\n        /* \"#utility.yul\":6385:6386   */\n      0x00\n        /* \"#utility.yul\":6378:6466   */\n      mstore\n        /* \"#utility.yul\":6485:6489   */\n      0x32\n        /* \"#utility.yul\":6482:6483   */\n      0x04\n        /* \"#utility.yul\":6475:6490   */\n      mstore\n        /* \"#utility.yul\":6509:6513   */\n      0x24\n        /* \"#utility.yul\":6506:6507   */\n      0x00\n        /* \"#utility.yul\":6499:6514   */\n      revert\n\n    auxdata: 0xa26469706673582212202c43a7dca1a8b89307d19887d66529fba37c260d3cbbc695853573e630e03a9f64736f6c63430008220033\n}\n",
				"bytecode": {
					"linkReferences": {},
					"object": "6080604052348015600e575f5ffd5b506105a18061001c5f395ff3fe608060405234801561000f575f5ffd5b506004361061004a575f3560e01c8063191ec8451461004e5780633b1f0cd01461007e5780637221a26a146100ae578063d672f278146100ca575b5f5ffd5b610068600480360381019061006391906103cd565b6100e8565b60405161007591906104cb565b60405180910390f35b610098600480360381019061009391906104eb565b610114565b6040516100a59190610525565b60405180910390f35b6100c860048036038101906100c391906104eb565b610133565b005b6100d261015b565b6040516100df91906104cb565b60405180910390f35b6060610309825f81518110610100576100ff61053e565b5b602002602001018181525050819050919050565b5f8181548110610122575f80fd5b905f5260205f20015f915090505481565b5f81908060018154018082558091505060019003905f5260205f20015f909190919091505550565b60605f600367ffffffffffffffff8111156101795761017861025e565b5b6040519080825280602002602001820160405280156101a75781602001602082028036833780820191505090505b5090506001815f815181106101bf576101be61053e565b5b6020026020010181815250506002816001815181106101e1576101e061053e565b5b6020026020010181815250506003816002815181106102035761020261053e565b5b6020026020010181815250506103e7816001815181106102265761022561053e565b5b6020026020010181815250508091505090565b5f604051905090565b5f5ffd5b5f5ffd5b5f5ffd5b5f601f19601f8301169050919050565b7f4e487b71000000000000000000000000000000000000000000000000000000005f52604160045260245ffd5b6102948261024e565b810181811067ffffffffffffffff821117156102b3576102b261025e565b5b80604052505050565b5f6102c5610239565b90506102d1828261028b565b919050565b5f67ffffffffffffffff8211156102f0576102ef61025e565b5b602082029050602081019050919050565b5f5ffd5b5f819050919050565b61031781610305565b8114610321575f5ffd5b50565b5f813590506103328161030e565b92915050565b5f61034a610345846102d6565b6102bc565b9050808382526020820190506020840283018581111561036d5761036c610301565b5b835b8181101561039657806103828882610324565b84526020840193505060208101905061036f565b5050509392505050565b5f82601f8301126103b4576103b361024a565b5b81356103c4848260208601610338565b91505092915050565b5f602082840312156103e2576103e1610242565b5b5f82013567ffffffffffffffff8111156103ff576103fe610246565b5b61040b848285016103a0565b91505092915050565b5f81519050919050565b5f82825260208201905092915050565b5f819050602082019050919050565b61044681610305565b82525050565b5f610457838361043d565b60208301905092915050565b5f602082019050919050565b5f61047982610414565b610483818561041e565b935061048e8361042e565b805f5b838110156104be5781516104a5888261044c565b97506104b083610463565b925050600181019050610491565b5085935050505092915050565b5f6020820190508181035f8301526104e3818461046f565b905092915050565b5f60208284031215610500576104ff610242565b5b5f61050d84828501610324565b91505092915050565b61051f81610305565b82525050565b5f6020820190506105385f830184610516565b92915050565b7f4e487b71000000000000000000000000000000000000000000000000000000005f52603260045260245ffdfea26469706673582212202c43a7dca1a8b89307d19887d66529fba37c260d3cbbc695853573e630e03a9f64736f6c63430008220033",
					"opcodes": "PUSH1 0x80 PUSH1 0x40 MSTORE CALLVALUE DUP1 ISZERO PUSH1 0xE JUMPI PUSH0 PUSH0 REVERT JUMPDEST POP PUSH2 0x5A1 DUP1 PUSH2 0x1C PUSH0 CODECOPY PUSH0 RETURN INVALID PUSH1 0x80 PUSH1 0x40 MSTORE CALLVALUE DUP1 ISZERO PUSH2 0xF JUMPI PUSH0 PUSH0 REVERT JUMPDEST POP PUSH1 0x4 CALLDATASIZE LT PUSH2 0x4A JUMPI PUSH0 CALLDATALOAD PUSH1 0xE0 SHR DUP1 PUSH4 0x191EC845 EQ PUSH2 0x4E JUMPI DUP1 PUSH4 0x3B1F0CD0 EQ PUSH2 0x7E JUMPI DUP1 PUSH4 0x7221A26A EQ PUSH2 0xAE JUMPI DUP1 PUSH4 0xD672F278 EQ PUSH2 0xCA JUMPI JUMPDEST PUSH0 PUSH0 REVERT JUMPDEST PUSH2 0x68 PUSH1 0x4 DUP1 CALLDATASIZE SUB DUP2 ADD SWAP1 PUSH2 0x63 SWAP2 SWAP1 PUSH2 0x3CD JUMP JUMPDEST PUSH2 0xE8 JUMP JUMPDEST PUSH1 0x40 MLOAD PUSH2 0x75 SWAP2 SWAP1 PUSH2 0x4CB JUMP JUMPDEST PUSH1 0x40 MLOAD DUP1 SWAP2 SUB SWAP1 RETURN JUMPDEST PUSH2 0x98 PUSH1 0x4 DUP1 CALLDATASIZE SUB DUP2 ADD SWAP1 PUSH2 0x93 SWAP2 SWAP1 PUSH2 0x4EB JUMP JUMPDEST PUSH2 0x114 JUMP JUMPDEST PUSH1 0x40 MLOAD PUSH2 0xA5 SWAP2 SWAP1 PUSH2 0x525 JUMP JUMPDEST PUSH1 0x40 MLOAD DUP1 SWAP2 SUB SWAP1 RETURN JUMPDEST PUSH2 0xC8 PUSH1 0x4 DUP1 CALLDATASIZE SUB DUP2 ADD SWAP1 PUSH2 0xC3 SWAP2 SWAP1 PUSH2 0x4EB JUMP JUMPDEST PUSH2 0x133 JUMP JUMPDEST STOP JUMPDEST PUSH2 0xD2 PUSH2 0x15B JUMP JUMPDEST PUSH1 0x40 MLOAD PUSH2 0xDF SWAP2 SWAP1 PUSH2 0x4CB JUMP JUMPDEST PUSH1 0x40 MLOAD DUP1 SWAP2 SUB SWAP1 RETURN JUMPDEST PUSH1 0x60 PUSH2 0x309 DUP3 PUSH0 DUP2 MLOAD DUP2 LT PUSH2 0x100 JUMPI PUSH2 0xFF PUSH2 0x53E JUMP JUMPDEST JUMPDEST PUSH1 0x20 MUL PUSH1 0x20 ADD ADD DUP2 DUP2 MSTORE POP POP DUP2 SWAP1 POP SWAP2 SWAP1 POP JUMP JUMPDEST PUSH0 DUP2 DUP2 SLOAD DUP2 LT PUSH2 0x122 JUMPI PUSH0 DUP1 REVERT JUMPDEST SWAP1 PUSH0 MSTORE PUSH1 0x20 PUSH0 KECCAK256 ADD PUSH0 SWAP2 POP SWAP1 POP SLOAD DUP2 JUMP JUMPDEST PUSH0 DUP2 SWAP1 DUP1 PUSH1 0x1 DUP2 SLOAD ADD DUP1 DUP3 SSTORE DUP1 SWAP2 POP POP PUSH1 0x1 SWAP1 SUB SWAP1 PUSH0 MSTORE PUSH1 0x20 PUSH0 KECCAK256 ADD PUSH0 SWAP1 SWAP2 SWAP1 SWAP2 SWAP1 SWAP2 POP SSTORE POP JUMP JUMPDEST PUSH1 0x60 PUSH0 PUSH1 0x3 PUSH8 0xFFFFFFFFFFFFFFFF DUP2 GT ISZERO PUSH2 0x179 JUMPI PUSH2 0x178 PUSH2 0x25E JUMP JUMPDEST JUMPDEST PUSH1 0x40 MLOAD SWAP1 DUP1 DUP3 MSTORE DUP1 PUSH1 0x20 MUL PUSH1 0x20 ADD DUP3 ADD PUSH1 0x40 MSTORE DUP1 ISZERO PUSH2 0x1A7 JUMPI DUP2 PUSH1 0x20 ADD PUSH1 0x20 DUP3 MUL DUP1 CALLDATASIZE DUP4 CALLDATACOPY DUP1 DUP3 ADD SWAP2 POP POP SWAP1 POP JUMPDEST POP SWAP1 POP PUSH1 0x1 DUP2 PUSH0 DUP2 MLOAD DUP2 LT PUSH2 0x1BF JUMPI PUSH2 0x1BE PUSH2 0x53E JUMP JUMPDEST JUMPDEST PUSH1 0x20 MUL PUSH1 0x20 ADD ADD DUP2 DUP2 MSTORE POP POP PUSH1 0x2 DUP2 PUSH1 0x1 DUP2 MLOAD DUP2 LT PUSH2 0x1E1 JUMPI PUSH2 0x1E0 PUSH2 0x53E JUMP JUMPDEST JUMPDEST PUSH1 0x20 MUL PUSH1 0x20 ADD ADD DUP2 DUP2 MSTORE POP POP PUSH1 0x3 DUP2 PUSH1 0x2 DUP2 MLOAD DUP2 LT PUSH2 0x203 JUMPI PUSH2 0x202 PUSH2 0x53E JUMP JUMPDEST JUMPDEST PUSH1 0x20 MUL PUSH1 0x20 ADD ADD DUP2 DUP2 MSTORE POP POP PUSH2 0x3E7 DUP2 PUSH1 0x1 DUP2 MLOAD DUP2 LT PUSH2 0x226 JUMPI PUSH2 0x225 PUSH2 0x53E JUMP JUMPDEST JUMPDEST PUSH1 0x20 MUL PUSH1 0x20 ADD ADD DUP2 DUP2 MSTORE POP POP DUP1 SWAP2 POP POP SWAP1 JUMP JUMPDEST PUSH0 PUSH1 0x40 MLOAD SWAP1 POP SWAP1 JUMP JUMPDEST PUSH0 PUSH0 REVERT JUMPDEST PUSH0 PUSH0 REVERT JUMPDEST PUSH0 PUSH0 REVERT JUMPDEST PUSH0 PUSH1 0x1F NOT PUSH1 0x1F DUP4 ADD AND SWAP1 POP SWAP2 SWAP1 POP JUMP JUMPDEST PUSH32 0x4E487B7100000000000000000000000000000000000000000000000000000000 PUSH0 MSTORE PUSH1 0x41 PUSH1 0x4 MSTORE PUSH1 0x24 PUSH0 REVERT JUMPDEST PUSH2 0x294 DUP3 PUSH2 0x24E JUMP JUMPDEST DUP2 ADD DUP2 DUP2 LT PUSH8 0xFFFFFFFFFFFFFFFF DUP3 GT OR ISZERO PUSH2 0x2B3 JUMPI PUSH2 0x2B2 PUSH2 0x25E JUMP JUMPDEST JUMPDEST DUP1 PUSH1 0x40 MSTORE POP POP POP JUMP JUMPDEST PUSH0 PUSH2 0x2C5 PUSH2 0x239 JUMP JUMPDEST SWAP1 POP PUSH2 0x2D1 DUP3 DUP3 PUSH2 0x28B JUMP JUMPDEST SWAP2 SWAP1 POP JUMP JUMPDEST PUSH0 PUSH8 0xFFFFFFFFFFFFFFFF DUP3 GT ISZERO PUSH2 0x2F0 JUMPI PUSH2 0x2EF PUSH2 0x25E JUMP JUMPDEST JUMPDEST PUSH1 0x20 DUP3 MUL SWAP1 POP PUSH1 0x20 DUP2 ADD SWAP1 POP SWAP2 SWAP1 POP JUMP JUMPDEST PUSH0 PUSH0 REVERT JUMPDEST PUSH0 DUP2 SWAP1 POP SWAP2 SWAP1 POP JUMP JUMPDEST PUSH2 0x317 DUP2 PUSH2 0x305 JUMP JUMPDEST DUP2 EQ PUSH2 0x321 JUMPI PUSH0 PUSH0 REVERT JUMPDEST POP JUMP JUMPDEST PUSH0 DUP2 CALLDATALOAD SWAP1 POP PUSH2 0x332 DUP2 PUSH2 0x30E JUMP JUMPDEST SWAP3 SWAP2 POP POP JUMP JUMPDEST PUSH0 PUSH2 0x34A PUSH2 0x345 DUP5 PUSH2 0x2D6 JUMP JUMPDEST PUSH2 0x2BC JUMP JUMPDEST SWAP1 POP DUP1 DUP4 DUP3 MSTORE PUSH1 0x20 DUP3 ADD SWAP1 POP PUSH1 0x20 DUP5 MUL DUP4 ADD DUP6 DUP2 GT ISZERO PUSH2 0x36D JUMPI PUSH2 0x36C PUSH2 0x301 JUMP JUMPDEST JUMPDEST DUP4 JUMPDEST DUP2 DUP2 LT ISZERO PUSH2 0x396 JUMPI DUP1 PUSH2 0x382 DUP9 DUP3 PUSH2 0x324 JUMP JUMPDEST DUP5 MSTORE PUSH1 0x20 DUP5 ADD SWAP4 POP POP PUSH1 0x20 DUP2 ADD SWAP1 POP PUSH2 0x36F JUMP JUMPDEST POP POP POP SWAP4 SWAP3 POP POP POP JUMP JUMPDEST PUSH0 DUP3 PUSH1 0x1F DUP4 ADD SLT PUSH2 0x3B4 JUMPI PUSH2 0x3B3 PUSH2 0x24A JUMP JUMPDEST JUMPDEST DUP2 CALLDATALOAD PUSH2 0x3C4 DUP5 DUP3 PUSH1 0x20 DUP7 ADD PUSH2 0x338 JUMP JUMPDEST SWAP2 POP POP SWAP3 SWAP2 POP POP JUMP JUMPDEST PUSH0 PUSH1 0x20 DUP3 DUP5 SUB SLT ISZERO PUSH2 0x3E2 JUMPI PUSH2 0x3E1 PUSH2 0x242 JUMP JUMPDEST JUMPDEST PUSH0 DUP3 ADD CALLDATALOAD PUSH8 0xFFFFFFFFFFFFFFFF DUP2 GT ISZERO PUSH2 0x3FF JUMPI PUSH2 0x3FE PUSH2 0x246 JUMP JUMPDEST JUMPDEST PUSH2 0x40B DUP5 DUP3 DUP6 ADD PUSH2 0x3A0 JUMP JUMPDEST SWAP2 POP POP SWAP3 SWAP2 POP POP JUMP JUMPDEST PUSH0 DUP2 MLOAD SWAP1 POP SWAP2 SWAP1 POP JUMP JUMPDEST PUSH0 DUP3 DUP3 MSTORE PUSH1 0x20 DUP3 ADD SWAP1 POP SWAP3 SWAP2 POP POP JUMP JUMPDEST PUSH0 DUP2 SWAP1 POP PUSH1 0x20 DUP3 ADD SWAP1 POP SWAP2 SWAP1 POP JUMP JUMPDEST PUSH2 0x446 DUP2 PUSH2 0x305 JUMP JUMPDEST DUP3 MSTORE POP POP JUMP JUMPDEST PUSH0 PUSH2 0x457 DUP4 DUP4 PUSH2 0x43D JUMP JUMPDEST PUSH1 0x20 DUP4 ADD SWAP1 POP SWAP3 SWAP2 POP POP JUMP JUMPDEST PUSH0 PUSH1 0x20 DUP3 ADD SWAP1 POP SWAP2 SWAP1 POP JUMP JUMPDEST PUSH0 PUSH2 0x479 DUP3 PUSH2 0x414 JUMP JUMPDEST PUSH2 0x483 DUP2 DUP6 PUSH2 0x41E JUMP JUMPDEST SWAP4 POP PUSH2 0x48E DUP4 PUSH2 0x42E JUMP JUMPDEST DUP1 PUSH0 JUMPDEST DUP4 DUP2 LT ISZERO PUSH2 0x4BE JUMPI DUP2 MLOAD PUSH2 0x4A5 DUP9 DUP3 PUSH2 0x44C JUMP JUMPDEST SWAP8 POP PUSH2 0x4B0 DUP4 PUSH2 0x463 JUMP JUMPDEST SWAP3 POP POP PUSH1 0x1 DUP2 ADD SWAP1 POP PUSH2 0x491 JUMP JUMPDEST POP DUP6 SWAP4 POP POP POP POP SWAP3 SWAP2 POP POP JUMP JUMPDEST PUSH0 PUSH1 0x20 DUP3 ADD SWAP1 POP DUP2 DUP2 SUB PUSH0 DUP4 ADD MSTORE PUSH2 0x4E3 DUP2 DUP5 PUSH2 0x46F JUMP JUMPDEST SWAP1 POP SWAP3 SWAP2 POP POP JUMP JUMPDEST PUSH0 PUSH1 0x20 DUP3 DUP5 SUB SLT ISZERO PUSH2 0x500 JUMPI PUSH2 0x4FF PUSH2 0x242 JUMP JUMPDEST JUMPDEST PUSH0 PUSH2 0x50D DUP5 DUP3 DUP6 ADD PUSH2 0x324 JUMP JUMPDEST SWAP2 POP POP SWAP3 SWAP2 POP POP JUMP JUMPDEST PUSH2 0x51F DUP2 PUSH2 0x305 JUMP JUMPDEST DUP3 MSTORE POP POP JUMP JUMPDEST PUSH0 PUSH1 0x20 DUP3 ADD SWAP1 POP PUSH2 0x538 PUSH0 DUP4 ADD DUP5 PUSH2 0x516 JUMP JUMPDEST SWAP3 SWAP2 POP POP JUMP JUMPDEST PUSH32 0x4E487B7100000000000000000000000000000000000000000000000000000000 PUSH0 MSTORE PUSH1 0x32 PUSH1 0x4 MSTORE PUSH1 0x24 PUSH0 REVERT INVALID LOG2 PUSH5 0x6970667358 0x22 SLT KECCAK256 0x2C NUMBER 0xA7 0xDC LOG1 0xA8 0xB8 SWAP4 SMOD DATALOADN 0x9887 0xD6 PUSH6 0x29FBA37C260D EXTCODECOPY 0xBB 0xC6 SWAP6 DUP6 CALLDATALOAD PUSH20 0xE630E03A9F64736F6C6343000822003300000000 "
				},
				"gasEstimates": {
					"creation": {
						"codeDepositCost": "288200",
						"executionCost": "329",
						"totalCost": "288529"
					},
					"external": {
						"createAndModifyArray()": "infinite",
						"modifyInputArray(uint256[])": "infinite",
						"storeValue(uint256)": "46842",
						"storedNumbers(uint256)": "infinite"
					}
				},
				"methodIdentifiers": {
					"createAndModifyArray()": "d672f278",
					"modifyInputArray(uint256[])": "191ec845",
					"storeValue(uint256)": "7221a26a",
					"storedNumbers(uint256)": "3b1f0cd0"
				}
			},
			"storageLayout": {
				"storage": [
					{
						"astId": 4,
						"contract": "contracts/prac20.sol:ModifyMemoryArray",
						"label": "storedNumbers",
						"offset": 0,
						"slot": "0",
						"type": "t_array(t_uint256)dyn_storage"
					}
				],
				"types": {
					"t_array(t_uint256)dyn_storage": {
						"base": "t_uint256",
						"encoding": "dynamic_array",
						"label": "uint256[]",
						"numberOfBytes": "32"
					},
					"t_uint256": {
						"encoding": "inplace",
						"label": "uint256",
						"numberOfBytes": "32"
					}
				}
			},
			"userdoc": {
				"kind": "user",
				"methods": {},
				"version": 1
			}
		}
	}
}