{
	"contracts/prac24.sol": {
		"MemoryStringExample": {
			"abi": [
				{
					"inputs": [
						{
							"internalType": "string",
							"name": "_first",
							"type": "string"
						},
						{
							"internalType": "string",
							"name": "_second",
							"type": "string"
						}
					],
					"name": "compareStrings",
					"outputs": [
						{
							"internalType": "string",
							"name": "",
							"type": "string"
						},
						{
							"internalType": "string",
							"name": "",
							"type": "string"
						}
					],
					"stateMutability": "pure",
					"type": "function"
				},
				{
					"inputs": [
						{
							"internalType": "string",
							"name": "_name",
							"type": "string"
						}
					],
					"name": "getWelcomeMessage",
					"outputs": [
						{
							"internalType": "string",
							"name": "",
							"type": "string"
						}
					],
					"stateMutability": "pure",
					"type": "function"
				},
				{
					"inputs": [
						{
							"internalType": "string",
							"name": "_name",
							"type": "string"
						}
					],
					"name": "saveName",
					"outputs": [],
					"stateMutability": "nonpayable",
					"type": "function"
				},
				{
					"inputs": [],
					"name": "storedName",
					"outputs": [
						{
							"internalType": "string",
							"name": "",
							"type": "string"
						}
					],
					"stateMutability": "view",
					"type": "function"
				}
			],
			"devdoc": {
				"kind": "dev",
				"methods": {},
				"version": 1
			},
			"evm": {
				"assembly": "    /* \"contracts/prac24.sol\":1875:3188  contract MemoryStringExample {... */\n  mstore(0x40, 0x80)\n  callvalue\n  dup1\n  iszero\n  tag_1\n  jumpi\n  revert(0x00, 0x00)\ntag_1:\n  pop\n  dataSize(sub_0)\n  dup1\n  dataOffset(sub_0)\n  0x00\n  codecopy\n  0x00\n  return\nstop\n\nsub_0: assembly {\n        /* \"contracts/prac24.sol\":1875:3188  contract MemoryStringExample {... */\n      mstore(0x40, 0x80)\n      callvalue\n      dup1\n      iszero\n      tag_1\n      jumpi\n      revert(0x00, 0x00)\n    tag_1:\n      pop\n      jumpi(tag_2, lt(calldatasize, 0x04))\n      shr(0xe0, calldataload(0x00))\n      dup1\n      0xbc420523\n      eq\n      tag_3\n      jumpi\n      dup1\n      0xbed34bba\n      eq\n      tag_4\n      jumpi\n      dup1\n      0xceec5014\n      eq\n      tag_5\n      jumpi\n      dup1\n      0xe10a949c\n      eq\n      tag_6\n      jumpi\n    tag_2:\n      revert(0x00, 0x00)\n        /* \"contracts/prac24.sol\":2031:2422  function saveName(string memory _name) public {... */\n    tag_3:\n      tag_7\n      0x04\n      dup1\n      calldatasize\n      sub\n      dup2\n      add\n      swap1\n      tag_8\n      swap2\n      swap1\n      tag_9\n      jump\t// in\n    tag_8:\n      tag_10\n      jump\t// in\n    tag_7:\n      stop\n        /* \"contracts/prac24.sol\":2820:3185  function compareStrings(... */\n    tag_4:\n      tag_11\n      0x04\n      dup1\n      calldatasize\n      sub\n      dup2\n      add\n      swap1\n      tag_12\n      swap2\n      swap1\n      tag_13\n      jump\t// in\n    tag_12:\n      tag_14\n      jump\t// in\n    tag_11:\n      mload(0x40)\n      tag_15\n      swap3\n      swap2\n      swap1\n      tag_16\n      jump\t// in\n    tag_15:\n      mload(0x40)\n      dup1\n      swap2\n      sub\n      swap1\n      return\n        /* \"contracts/prac24.sol\":2430:2812  function getWelcomeMessage(... */\n    tag_5:\n      tag_17\n      0x04\n      dup1\n      calldatasize\n      sub\n      dup2\n      add\n      swap1\n      tag_18\n      swap2\n      swap1\n      tag_9\n      jump\t// in\n    tag_18:\n      tag_19\n      jump\t// in\n    tag_17:\n      mload(0x40)\n      tag_20\n      swap2\n      swap1\n      tag_21\n      jump\t// in\n    tag_20:\n      mload(0x40)\n      dup1\n      swap2\n      sub\n      swap1\n      return\n        /* \"contracts/prac24.sol\":1998:2022  string public storedName */\n    tag_6:\n      tag_22\n      tag_23\n      jump\t// in\n    tag_22:\n      mload(0x40)\n      tag_24\n      swap2\n      swap1\n      tag_21\n      jump\t// in\n    tag_24:\n      mload(0x40)\n      dup1\n      swap2\n      sub\n      swap1\n      return\n        /* \"contracts/prac24.sol\":2031:2422  function saveName(string memory _name) public {... */\n    tag_10:\n        /* \"contracts/prac24.sol\":2409:2414  _name */\n      dup1\n        /* \"contracts/prac24.sol\":2396:2406  storedName */\n      0x00\n        /* \"contracts/prac24.sol\":2396:2414  storedName = _name */\n      swap1\n      dup2\n      tag_26\n      swap2\n      swap1\n      tag_27\n      jump\t// in\n    tag_26:\n      pop\n        /* \"contracts/prac24.sol\":2031:2422  function saveName(string memory _name) public {... */\n      pop\n      jump\t// out\n        /* \"contracts/prac24.sol\":2820:3185  function compareStrings(... */\n    tag_14:\n        /* \"contracts/prac24.sol\":2976:2989  string memory */\n      0x60\n        /* \"contracts/prac24.sol\":3004:3017  string memory */\n      dup1\n        /* \"contracts/prac24.sol\":3161:3167  _first */\n      dup4\n        /* \"contracts/prac24.sol\":3169:3176  _second */\n      dup4\n        /* \"contracts/prac24.sol\":3153:3177  return (_first, _second) */\n      swap2\n      pop\n      swap2\n      pop\n        /* \"contracts/prac24.sol\":2820:3185  function compareStrings(... */\n      swap3\n      pop\n      swap3\n      swap1\n      pop\n      jump\t// out\n        /* \"contracts/prac24.sol\":2430:2812  function getWelcomeMessage(... */\n    tag_19:\n        /* \"contracts/prac24.sol\":2542:2555  string memory */\n      0x60\n        /* \"contracts/prac24.sol\":2676:2697  string memory message */\n      0x00\n        /* \"contracts/prac24.sol\":2700:2705  _name */\n      dup3\n        /* \"contracts/prac24.sol\":2676:2705  string memory message = _name */\n      swap1\n      pop\n        /* \"contracts/prac24.sol\":2797:2804  message */\n      dup1\n        /* \"contracts/prac24.sol\":2790:2804  return message */\n      swap2\n      pop\n      pop\n        /* \"contracts/prac24.sol\":2430:2812  function getWelcomeMessage(... */\n      swap2\n      swap1\n      pop\n      jump\t// out\n        /* \"contracts/prac24.sol\":1998:2022  string public storedName */\n    tag_23:\n      0x00\n      dup1\n      sload\n      tag_30\n      swap1\n      tag_31\n      jump\t// in\n    tag_30:\n      dup1\n      0x1f\n      add\n      0x20\n      dup1\n      swap2\n      div\n      mul\n      0x20\n      add\n      mload(0x40)\n      swap1\n      dup2\n      add\n      0x40\n      mstore\n      dup1\n      swap3\n      swap2\n      swap1\n      dup2\n      dup2\n      mstore\n      0x20\n      add\n      dup3\n      dup1\n      sload\n      tag_32\n      swap1\n      tag_31\n      jump\t// in\n    tag_32:\n      dup1\n      iszero\n      tag_33\n      jumpi\n      dup1\n      0x1f\n      lt\n      tag_34\n      jumpi\n      0x0100\n      dup1\n      dup4\n      sload\n      div\n      mul\n      dup4\n      mstore\n      swap2\n      0x20\n      add\n      swap2\n      jump(tag_33)\n    tag_34:\n      dup3\n      add\n      swap2\n      swap1\n      0x00\n      mstore\n      keccak256(0x00, 0x20)\n      swap1\n    tag_35:\n      dup2\n      sload\n      dup2\n      mstore\n      swap1\n      0x01\n      add\n      swap1\n      0x20\n      add\n      dup1\n      dup4\n      gt\n      tag_35\n      jumpi\n      dup3\n      swap1\n      sub\n      0x1f\n      and\n      dup3\n      add\n      swap2\n    tag_33:\n      pop\n      pop\n      pop\n      pop\n      pop\n      dup2\n      jump\t// out\n        /* \"#utility.yul\":7:82   */\n    tag_36:\n        /* \"#utility.yul\":40:46   */\n      0x00\n        /* \"#utility.yul\":73:75   */\n      0x40\n        /* \"#utility.yul\":67:76   */\n      mload\n        /* \"#utility.yul\":57:76   */\n      swap1\n      pop\n        /* \"#utility.yul\":7:82   */\n      swap1\n      jump\t// out\n        /* \"#utility.yul\":88:205   */\n    tag_37:\n        /* \"#utility.yul\":197:198   */\n      0x00\n        /* \"#utility.yul\":194:195   */\n      0x00\n        /* \"#utility.yul\":187:199   */\n      revert\n        /* \"#utility.yul\":211:328   */\n    tag_38:\n        /* \"#utility.yul\":320:321   */\n      0x00\n        /* \"#utility.yul\":317:318   */\n      0x00\n        /* \"#utility.yul\":310:322   */\n      revert\n        /* \"#utility.yul\":334:451   */\n    tag_39:\n        /* \"#utility.yul\":443:444   */\n      0x00\n        /* \"#utility.yul\":440:441   */\n      0x00\n        /* \"#utility.yul\":433:445   */\n      revert\n        /* \"#utility.yul\":457:574   */\n    tag_40:\n        /* \"#utility.yul\":566:567   */\n      0x00\n        /* \"#utility.yul\":563:564   */\n      0x00\n        /* \"#utility.yul\":556:568   */\n      revert\n        /* \"#utility.yul\":580:682   */\n    tag_41:\n        /* \"#utility.yul\":621:627   */\n      0x00\n        /* \"#utility.yul\":672:674   */\n      0x1f\n        /* \"#utility.yul\":668:675   */\n      not\n        /* \"#utility.yul\":663:665   */\n      0x1f\n        /* \"#utility.yul\":656:661   */\n      dup4\n        /* \"#utility.yul\":652:666   */\n      add\n        /* \"#utility.yul\":648:676   */\n      and\n        /* \"#utility.yul\":638:676   */\n      swap1\n      pop\n        /* \"#utility.yul\":580:682   */\n      swap2\n      swap1\n      pop\n      jump\t// out\n        /* \"#utility.yul\":688:868   */\n    tag_42:\n        /* \"#utility.yul\":736:813   */\n      0x4e487b7100000000000000000000000000000000000000000000000000000000\n        /* \"#utility.yul\":733:734   */\n      0x00\n        /* \"#utility.yul\":726:814   */\n      mstore\n        /* \"#utility.yul\":833:837   */\n      0x41\n        /* \"#utility.yul\":830:831   */\n      0x04\n        /* \"#utility.yul\":823:838   */\n      mstore\n        /* \"#utility.yul\":857:861   */\n      0x24\n        /* \"#utility.yul\":854:855   */\n      0x00\n        /* \"#utility.yul\":847:862   */\n      revert\n        /* \"#utility.yul\":874:1155   */\n    tag_43:\n        /* \"#utility.yul\":957:984   */\n      tag_79\n        /* \"#utility.yul\":979:983   */\n      dup3\n        /* \"#utility.yul\":957:984   */\n      tag_41\n      jump\t// in\n    tag_79:\n        /* \"#utility.yul\":949:955   */\n      dup2\n        /* \"#utility.yul\":945:985   */\n      add\n        /* \"#utility.yul\":1087:1093   */\n      dup2\n        /* \"#utility.yul\":1075:1085   */\n      dup2\n        /* \"#utility.yul\":1072:1094   */\n      lt\n        /* \"#utility.yul\":1051:1069   */\n      0xffffffffffffffff\n        /* \"#utility.yul\":1039:1049   */\n      dup3\n        /* \"#utility.yul\":1036:1070   */\n      gt\n        /* \"#utility.yul\":1033:1095   */\n      or\n        /* \"#utility.yul\":1030:1118   */\n      iszero\n      tag_80\n      jumpi\n        /* \"#utility.yul\":1098:1116   */\n      tag_81\n      tag_42\n      jump\t// in\n    tag_81:\n        /* \"#utility.yul\":1030:1118   */\n    tag_80:\n        /* \"#utility.yul\":1138:1148   */\n      dup1\n        /* \"#utility.yul\":1134:1136   */\n      0x40\n        /* \"#utility.yul\":1127:1149   */\n      mstore\n        /* \"#utility.yul\":917:1155   */\n      pop\n        /* \"#utility.yul\":874:1155   */\n      pop\n      pop\n      jump\t// out\n        /* \"#utility.yul\":1161:1290   */\n    tag_44:\n        /* \"#utility.yul\":1195:1201   */\n      0x00\n        /* \"#utility.yul\":1222:1242   */\n      tag_83\n      tag_36\n      jump\t// in\n    tag_83:\n        /* \"#utility.yul\":1212:1242   */\n      swap1\n      pop\n        /* \"#utility.yul\":1251:1284   */\n      tag_84\n        /* \"#utility.yul\":1279:1283   */\n      dup3\n        /* \"#utility.yul\":1271:1277   */\n      dup3\n        /* \"#utility.yul\":1251:1284   */\n      tag_43\n      jump\t// in\n    tag_84:\n        /* \"#utility.yul\":1161:1290   */\n      swap2\n      swap1\n      pop\n      jump\t// out\n        /* \"#utility.yul\":1296:1604   */\n    tag_45:\n        /* \"#utility.yul\":1358:1362   */\n      0x00\n        /* \"#utility.yul\":1448:1466   */\n      0xffffffffffffffff\n        /* \"#utility.yul\":1440:1446   */\n      dup3\n        /* \"#utility.yul\":1437:1467   */\n      gt\n        /* \"#utility.yul\":1434:1490   */\n      iszero\n      tag_86\n      jumpi\n        /* \"#utility.yul\":1470:1488   */\n      tag_87\n      tag_42\n      jump\t// in\n    tag_87:\n        /* \"#utility.yul\":1434:1490   */\n    tag_86:\n        /* \"#utility.yul\":1508:1537   */\n      tag_88\n        /* \"#utility.yul\":1530:1536   */\n      dup3\n        /* \"#utility.yul\":1508:1537   */\n      tag_41\n      jump\t// in\n    tag_88:\n        /* \"#utility.yul\":1500:1537   */\n      swap1\n      pop\n        /* \"#utility.yul\":1592:1596   */\n      0x20\n        /* \"#utility.yul\":1586:1590   */\n      dup2\n        /* \"#utility.yul\":1582:1597   */\n      add\n        /* \"#utility.yul\":1574:1597   */\n      swap1\n      pop\n        /* \"#utility.yul\":1296:1604   */\n      swap2\n      swap1\n      pop\n      jump\t// out\n        /* \"#utility.yul\":1610:1758   */\n    tag_46:\n        /* \"#utility.yul\":1708:1714   */\n      dup3\n        /* \"#utility.yul\":1703:1706   */\n      dup2\n        /* \"#utility.yul\":1698:1701   */\n      dup4\n        /* \"#utility.yul\":1685:1715   */\n      calldatacopy\n        /* \"#utility.yul\":1749:1750   */\n      0x00\n        /* \"#utility.yul\":1740:1746   */\n      dup4\n        /* \"#utility.yul\":1735:1738   */\n      dup4\n        /* \"#utility.yul\":1731:1747   */\n      add\n        /* \"#utility.yul\":1724:1751   */\n      mstore\n        /* \"#utility.yul\":1610:1758   */\n      pop\n      pop\n      pop\n      jump\t// out\n        /* \"#utility.yul\":1764:2189   */\n    tag_47:\n        /* \"#utility.yul\":1842:1847   */\n      0x00\n        /* \"#utility.yul\":1867:1933   */\n      tag_91\n        /* \"#utility.yul\":1883:1932   */\n      tag_92\n        /* \"#utility.yul\":1925:1931   */\n      dup5\n        /* \"#utility.yul\":1883:1932   */\n      tag_45\n      jump\t// in\n    tag_92:\n        /* \"#utility.yul\":1867:1933   */\n      tag_44\n      jump\t// in\n    tag_91:\n        /* \"#utility.yul\":1858:1933   */\n      swap1\n      pop\n        /* \"#utility.yul\":1956:1962   */\n      dup3\n        /* \"#utility.yul\":1949:1954   */\n      dup2\n        /* \"#utility.yul\":1942:1963   */\n      mstore\n        /* \"#utility.yul\":1994:1998   */\n      0x20\n        /* \"#utility.yul\":1987:1992   */\n      dup2\n        /* \"#utility.yul\":1983:1999   */\n      add\n        /* \"#utility.yul\":2032:2035   */\n      dup5\n        /* \"#utility.yul\":2023:2029   */\n      dup5\n        /* \"#utility.yul\":2018:2021   */\n      dup5\n        /* \"#utility.yul\":2014:2030   */\n      add\n        /* \"#utility.yul\":2011:2036   */\n      gt\n        /* \"#utility.yul\":2008:2120   */\n      iszero\n      tag_93\n      jumpi\n        /* \"#utility.yul\":2039:2118   */\n      tag_94\n      tag_40\n      jump\t// in\n    tag_94:\n        /* \"#utility.yul\":2008:2120   */\n    tag_93:\n        /* \"#utility.yul\":2129:2183   */\n      tag_95\n        /* \"#utility.yul\":2176:2182   */\n      dup5\n        /* \"#utility.yul\":2171:2174   */\n      dup3\n        /* \"#utility.yul\":2166:2169   */\n      dup6\n        /* \"#utility.yul\":2129:2183   */\n      tag_46\n      jump\t// in\n    tag_95:\n        /* \"#utility.yul\":1848:2189   */\n      pop\n        /* \"#utility.yul\":1764:2189   */\n      swap4\n      swap3\n      pop\n      pop\n      pop\n      jump\t// out\n        /* \"#utility.yul\":2209:2549   */\n    tag_48:\n        /* \"#utility.yul\":2265:2270   */\n      0x00\n        /* \"#utility.yul\":2314:2317   */\n      dup3\n        /* \"#utility.yul\":2307:2311   */\n      0x1f\n        /* \"#utility.yul\":2299:2305   */\n      dup4\n        /* \"#utility.yul\":2295:2312   */\n      add\n        /* \"#utility.yul\":2291:2318   */\n      slt\n        /* \"#utility.yul\":2281:2403   */\n      tag_97\n      jumpi\n        /* \"#utility.yul\":2322:2401   */\n      tag_98\n      tag_39\n      jump\t// in\n    tag_98:\n        /* \"#utility.yul\":2281:2403   */\n    tag_97:\n        /* \"#utility.yul\":2439:2445   */\n      dup2\n        /* \"#utility.yul\":2426:2446   */\n      calldataload\n        /* \"#utility.yul\":2464:2543   */\n      tag_99\n        /* \"#utility.yul\":2539:2542   */\n      dup5\n        /* \"#utility.yul\":2531:2537   */\n      dup3\n        /* \"#utility.yul\":2524:2528   */\n      0x20\n        /* \"#utility.yul\":2516:2522   */\n      dup7\n        /* \"#utility.yul\":2512:2529   */\n      add\n        /* \"#utility.yul\":2464:2543   */\n      tag_47\n      jump\t// in\n    tag_99:\n        /* \"#utility.yul\":2455:2543   */\n      swap2\n      pop\n        /* \"#utility.yul\":2271:2549   */\n      pop\n        /* \"#utility.yul\":2209:2549   */\n      swap3\n      swap2\n      pop\n      pop\n      jump\t// out\n        /* \"#utility.yul\":2555:3064   */\n    tag_9:\n        /* \"#utility.yul\":2624:2630   */\n      0x00\n        /* \"#utility.yul\":2673:2675   */\n      0x20\n        /* \"#utility.yul\":2661:2670   */\n      dup3\n        /* \"#utility.yul\":2652:2659   */\n      dup5\n        /* \"#utility.yul\":2648:2671   */\n      sub\n        /* \"#utility.yul\":2644:2676   */\n      slt\n        /* \"#utility.yul\":2641:2760   */\n      iszero\n      tag_101\n      jumpi\n        /* \"#utility.yul\":2679:2758   */\n      tag_102\n      tag_37\n      jump\t// in\n    tag_102:\n        /* \"#utility.yul\":2641:2760   */\n    tag_101:\n        /* \"#utility.yul\":2827:2828   */\n      0x00\n        /* \"#utility.yul\":2816:2825   */\n      dup3\n        /* \"#utility.yul\":2812:2829   */\n      add\n        /* \"#utility.yul\":2799:2830   */\n      calldataload\n        /* \"#utility.yul\":2857:2875   */\n      0xffffffffffffffff\n        /* \"#utility.yul\":2849:2855   */\n      dup2\n        /* \"#utility.yul\":2846:2876   */\n      gt\n        /* \"#utility.yul\":2843:2960   */\n      iszero\n      tag_103\n      jumpi\n        /* \"#utility.yul\":2879:2958   */\n      tag_104\n      tag_38\n      jump\t// in\n    tag_104:\n        /* \"#utility.yul\":2843:2960   */\n    tag_103:\n        /* \"#utility.yul\":2984:3047   */\n      tag_105\n        /* \"#utility.yul\":3039:3046   */\n      dup5\n        /* \"#utility.yul\":3030:3036   */\n      dup3\n        /* \"#utility.yul\":3019:3028   */\n      dup6\n        /* \"#utility.yul\":3015:3037   */\n      add\n        /* \"#utility.yul\":2984:3047   */\n      tag_48\n      jump\t// in\n    tag_105:\n        /* \"#utility.yul\":2974:3047   */\n      swap2\n      pop\n        /* \"#utility.yul\":2770:3057   */\n      pop\n        /* \"#utility.yul\":2555:3064   */\n      swap3\n      swap2\n      pop\n      pop\n      jump\t// out\n        /* \"#utility.yul\":3070:3904   */\n    tag_13:\n        /* \"#utility.yul\":3158:3164   */\n      0x00\n        /* \"#utility.yul\":3166:3172   */\n      0x00\n        /* \"#utility.yul\":3215:3217   */\n      0x40\n        /* \"#utility.yul\":3203:3212   */\n      dup4\n        /* \"#utility.yul\":3194:3201   */\n      dup6\n        /* \"#utility.yul\":3190:3213   */\n      sub\n        /* \"#utility.yul\":3186:3218   */\n      slt\n        /* \"#utility.yul\":3183:3302   */\n      iszero\n      tag_107\n      jumpi\n        /* \"#utility.yul\":3221:3300   */\n      tag_108\n      tag_37\n      jump\t// in\n    tag_108:\n        /* \"#utility.yul\":3183:3302   */\n    tag_107:\n        /* \"#utility.yul\":3369:3370   */\n      0x00\n        /* \"#utility.yul\":3358:3367   */\n      dup4\n        /* \"#utility.yul\":3354:3371   */\n      add\n        /* \"#utility.yul\":3341:3372   */\n      calldataload\n        /* \"#utility.yul\":3399:3417   */\n      0xffffffffffffffff\n        /* \"#utility.yul\":3391:3397   */\n      dup2\n        /* \"#utility.yul\":3388:3418   */\n      gt\n        /* \"#utility.yul\":3385:3502   */\n      iszero\n      tag_109\n      jumpi\n        /* \"#utility.yul\":3421:3500   */\n      tag_110\n      tag_38\n      jump\t// in\n    tag_110:\n        /* \"#utility.yul\":3385:3502   */\n    tag_109:\n        /* \"#utility.yul\":3526:3589   */\n      tag_111\n        /* \"#utility.yul\":3581:3588   */\n      dup6\n        /* \"#utility.yul\":3572:3578   */\n      dup3\n        /* \"#utility.yul\":3561:3570   */\n      dup7\n        /* \"#utility.yul\":3557:3579   */\n      add\n        /* \"#utility.yul\":3526:3589   */\n      tag_48\n      jump\t// in\n    tag_111:\n        /* \"#utility.yul\":3516:3589   */\n      swap3\n      pop\n        /* \"#utility.yul\":3312:3599   */\n      pop\n        /* \"#utility.yul\":3666:3668   */\n      0x20\n        /* \"#utility.yul\":3655:3664   */\n      dup4\n        /* \"#utility.yul\":3651:3669   */\n      add\n        /* \"#utility.yul\":3638:3670   */\n      calldataload\n        /* \"#utility.yul\":3697:3715   */\n      0xffffffffffffffff\n        /* \"#utility.yul\":3689:3695   */\n      dup2\n        /* \"#utility.yul\":3686:3716   */\n      gt\n        /* \"#utility.yul\":3683:3800   */\n      iszero\n      tag_112\n      jumpi\n        /* \"#utility.yul\":3719:3798   */\n      tag_113\n      tag_38\n      jump\t// in\n    tag_113:\n        /* \"#utility.yul\":3683:3800   */\n    tag_112:\n        /* \"#utility.yul\":3824:3887   */\n      tag_114\n        /* \"#utility.yul\":3879:3886   */\n      dup6\n        /* \"#utility.yul\":3870:3876   */\n      dup3\n        /* \"#utility.yul\":3859:3868   */\n      dup7\n        /* \"#utility.yul\":3855:3877   */\n      add\n        /* \"#utility.yul\":3824:3887   */\n      tag_48\n      jump\t// in\n    tag_114:\n        /* \"#utility.yul\":3814:3887   */\n      swap2\n      pop\n        /* \"#utility.yul\":3609:3897   */\n      pop\n        /* \"#utility.yul\":3070:3904   */\n      swap3\n      pop\n      swap3\n      swap1\n      pop\n      jump\t// out\n        /* \"#utility.yul\":3910:4009   */\n    tag_49:\n        /* \"#utility.yul\":3962:3968   */\n      0x00\n        /* \"#utility.yul\":3996:4001   */\n      dup2\n        /* \"#utility.yul\":3990:4002   */\n      mload\n        /* \"#utility.yul\":3980:4002   */\n      swap1\n      pop\n        /* \"#utility.yul\":3910:4009   */\n      swap2\n      swap1\n      pop\n      jump\t// out\n        /* \"#utility.yul\":4015:4184   */\n    tag_50:\n        /* \"#utility.yul\":4099:4110   */\n      0x00\n        /* \"#utility.yul\":4133:4139   */\n      dup3\n        /* \"#utility.yul\":4128:4131   */\n      dup3\n        /* \"#utility.yul\":4121:4140   */\n      mstore\n        /* \"#utility.yul\":4173:4177   */\n      0x20\n        /* \"#utility.yul\":4168:4171   */\n      dup3\n        /* \"#utility.yul\":4164:4178   */\n      add\n        /* \"#utility.yul\":4149:4178   */\n      swap1\n      pop\n        /* \"#utility.yul\":4015:4184   */\n      swap3\n      swap2\n      pop\n      pop\n      jump\t// out\n        /* \"#utility.yul\":4190:4329   */\n    tag_51:\n        /* \"#utility.yul\":4279:4285   */\n      dup3\n        /* \"#utility.yul\":4274:4277   */\n      dup2\n        /* \"#utility.yul\":4269:4272   */\n      dup4\n        /* \"#utility.yul\":4263:4286   */\n      mcopy\n        /* \"#utility.yul\":4320:4321   */\n      0x00\n        /* \"#utility.yul\":4311:4317   */\n      dup4\n        /* \"#utility.yul\":4306:4309   */\n      dup4\n        /* \"#utility.yul\":4302:4318   */\n      add\n        /* \"#utility.yul\":4295:4322   */\n      mstore\n        /* \"#utility.yul\":4190:4329   */\n      pop\n      pop\n      pop\n      jump\t// out\n        /* \"#utility.yul\":4335:4712   */\n    tag_52:\n        /* \"#utility.yul\":4423:4426   */\n      0x00\n        /* \"#utility.yul\":4451:4490   */\n      tag_119\n        /* \"#utility.yul\":4484:4489   */\n      dup3\n        /* \"#utility.yul\":4451:4490   */\n      tag_49\n      jump\t// in\n    tag_119:\n        /* \"#utility.yul\":4506:4577   */\n      tag_120\n        /* \"#utility.yul\":4570:4576   */\n      dup2\n        /* \"#utility.yul\":4565:4568   */\n      dup6\n        /* \"#utility.yul\":4506:4577   */\n      tag_50\n      jump\t// in\n    tag_120:\n        /* \"#utility.yul\":4499:4577   */\n      swap4\n      pop\n        /* \"#utility.yul\":4586:4651   */\n      tag_121\n        /* \"#utility.yul\":4644:4650   */\n      dup2\n        /* \"#utility.yul\":4639:4642   */\n      dup6\n        /* \"#utility.yul\":4632:4636   */\n      0x20\n        /* \"#utility.yul\":4625:4630   */\n      dup7\n        /* \"#utility.yul\":4621:4637   */\n      add\n        /* \"#utility.yul\":4586:4651   */\n      tag_51\n      jump\t// in\n    tag_121:\n        /* \"#utility.yul\":4676:4705   */\n      tag_122\n        /* \"#utility.yul\":4698:4704   */\n      dup2\n        /* \"#utility.yul\":4676:4705   */\n      tag_41\n      jump\t// in\n    tag_122:\n        /* \"#utility.yul\":4671:4674   */\n      dup5\n        /* \"#utility.yul\":4667:4706   */\n      add\n        /* \"#utility.yul\":4660:4706   */\n      swap2\n      pop\n        /* \"#utility.yul\":4427:4712   */\n      pop\n        /* \"#utility.yul\":4335:4712   */\n      swap3\n      swap2\n      pop\n      pop\n      jump\t// out\n        /* \"#utility.yul\":4718:5232   */\n    tag_16:\n        /* \"#utility.yul\":4879:4883   */\n      0x00\n        /* \"#utility.yul\":4917:4919   */\n      0x40\n        /* \"#utility.yul\":4906:4915   */\n      dup3\n        /* \"#utility.yul\":4902:4920   */\n      add\n        /* \"#utility.yul\":4894:4920   */\n      swap1\n      pop\n        /* \"#utility.yul\":4966:4975   */\n      dup2\n        /* \"#utility.yul\":4960:4964   */\n      dup2\n        /* \"#utility.yul\":4956:4976   */\n      sub\n        /* \"#utility.yul\":4952:4953   */\n      0x00\n        /* \"#utility.yul\":4941:4950   */\n      dup4\n        /* \"#utility.yul\":4937:4954   */\n      add\n        /* \"#utility.yul\":4930:4977   */\n      mstore\n        /* \"#utility.yul\":4994:5072   */\n      tag_124\n        /* \"#utility.yul\":5067:5071   */\n      dup2\n        /* \"#utility.yul\":5058:5064   */\n      dup6\n        /* \"#utility.yul\":4994:5072   */\n      tag_52\n      jump\t// in\n    tag_124:\n        /* \"#utility.yul\":4986:5072   */\n      swap1\n      pop\n        /* \"#utility.yul\":5119:5128   */\n      dup2\n        /* \"#utility.yul\":5113:5117   */\n      dup2\n        /* \"#utility.yul\":5109:5129   */\n      sub\n        /* \"#utility.yul\":5104:5106   */\n      0x20\n        /* \"#utility.yul\":5093:5102   */\n      dup4\n        /* \"#utility.yul\":5089:5107   */\n      add\n        /* \"#utility.yul\":5082:5130   */\n      mstore\n        /* \"#utility.yul\":5147:5225   */\n      tag_125\n        /* \"#utility.yul\":5220:5224   */\n      dup2\n        /* \"#utility.yul\":5211:5217   */\n      dup5\n        /* \"#utility.yul\":5147:5225   */\n      tag_52\n      jump\t// in\n    tag_125:\n        /* \"#utility.yul\":5139:5225   */\n      swap1\n      pop\n        /* \"#utility.yul\":4718:5232   */\n      swap4\n      swap3\n      pop\n      pop\n      pop\n      jump\t// out\n        /* \"#utility.yul\":5238:5551   */\n    tag_21:\n        /* \"#utility.yul\":5351:5355   */\n      0x00\n        /* \"#utility.yul\":5389:5391   */\n      0x20\n        /* \"#utility.yul\":5378:5387   */\n      dup3\n        /* \"#utility.yul\":5374:5392   */\n      add\n        /* \"#utility.yul\":5366:5392   */\n      swap1\n      pop\n        /* \"#utility.yul\":5438:5447   */\n      dup2\n        /* \"#utility.yul\":5432:5436   */\n      dup2\n        /* \"#utility.yul\":5428:5448   */\n      sub\n        /* \"#utility.yul\":5424:5425   */\n      0x00\n        /* \"#utility.yul\":5413:5422   */\n      dup4\n        /* \"#utility.yul\":5409:5426   */\n      add\n        /* \"#utility.yul\":5402:5449   */\n      mstore\n        /* \"#utility.yul\":5466:5544   */\n      tag_127\n        /* \"#utility.yul\":5539:5543   */\n      dup2\n        /* \"#utility.yul\":5530:5536   */\n      dup5\n        /* \"#utility.yul\":5466:5544   */\n      tag_52\n      jump\t// in\n    tag_127:\n        /* \"#utility.yul\":5458:5544   */\n      swap1\n      pop\n        /* \"#utility.yul\":5238:5551   */\n      swap3\n      swap2\n      pop\n      pop\n      jump\t// out\n        /* \"#utility.yul\":5557:5737   */\n    tag_53:\n        /* \"#utility.yul\":5605:5682   */\n      0x4e487b7100000000000000000000000000000000000000000000000000000000\n        /* \"#utility.yul\":5602:5603   */\n      0x00\n        /* \"#utility.yul\":5595:5683   */\n      mstore\n        /* \"#utility.yul\":5702:5706   */\n      0x22\n        /* \"#utility.yul\":5699:5700   */\n      0x04\n        /* \"#utility.yul\":5692:5707   */\n      mstore\n        /* \"#utility.yul\":5726:5730   */\n      0x24\n        /* \"#utility.yul\":5723:5724   */\n      0x00\n        /* \"#utility.yul\":5716:5731   */\n      revert\n        /* \"#utility.yul\":5743:6063   */\n    tag_31:\n        /* \"#utility.yul\":5787:5793   */\n      0x00\n        /* \"#utility.yul\":5824:5825   */\n      0x02\n        /* \"#utility.yul\":5818:5822   */\n      dup3\n        /* \"#utility.yul\":5814:5826   */\n      div\n        /* \"#utility.yul\":5804:5826   */\n      swap1\n      pop\n        /* \"#utility.yul\":5871:5872   */\n      0x01\n        /* \"#utility.yul\":5865:5869   */\n      dup3\n        /* \"#utility.yul\":5861:5873   */\n      and\n        /* \"#utility.yul\":5892:5910   */\n      dup1\n        /* \"#utility.yul\":5882:5963   */\n      tag_130\n      jumpi\n        /* \"#utility.yul\":5948:5952   */\n      0x7f\n        /* \"#utility.yul\":5940:5946   */\n      dup3\n        /* \"#utility.yul\":5936:5953   */\n      and\n        /* \"#utility.yul\":5926:5953   */\n      swap2\n      pop\n        /* \"#utility.yul\":5882:5963   */\n    tag_130:\n        /* \"#utility.yul\":6010:6012   */\n      0x20\n        /* \"#utility.yul\":6002:6008   */\n      dup3\n        /* \"#utility.yul\":5999:6013   */\n      lt\n        /* \"#utility.yul\":5979:5997   */\n      dup2\n        /* \"#utility.yul\":5976:6014   */\n      sub\n        /* \"#utility.yul\":5973:6057   */\n      tag_131\n      jumpi\n        /* \"#utility.yul\":6029:6047   */\n      tag_132\n      tag_53\n      jump\t// in\n    tag_132:\n        /* \"#utility.yul\":5973:6057   */\n    tag_131:\n        /* \"#utility.yul\":5794:6063   */\n      pop\n        /* \"#utility.yul\":5743:6063   */\n      swap2\n      swap1\n      pop\n      jump\t// out\n        /* \"#utility.yul\":6069:6210   */\n    tag_54:\n        /* \"#utility.yul\":6118:6122   */\n      0x00\n        /* \"#utility.yul\":6141:6144   */\n      dup2\n        /* \"#utility.yul\":6133:6144   */\n      swap1\n      pop\n        /* \"#utility.yul\":6164:6167   */\n      dup2\n        /* \"#utility.yul\":6161:6162   */\n      0x00\n        /* \"#utility.yul\":6154:6168   */\n      mstore\n        /* \"#utility.yul\":6198:6202   */\n      0x20\n        /* \"#utility.yul\":6195:6196   */\n      0x00\n        /* \"#utility.yul\":6185:6203   */\n      keccak256\n        /* \"#utility.yul\":6177:6203   */\n      swap1\n      pop\n        /* \"#utility.yul\":6069:6210   */\n      swap2\n      swap1\n      pop\n      jump\t// out\n        /* \"#utility.yul\":6216:6309   */\n    tag_55:\n        /* \"#utility.yul\":6253:6259   */\n      0x00\n        /* \"#utility.yul\":6300:6302   */\n      0x20\n        /* \"#utility.yul\":6295:6297   */\n      0x1f\n        /* \"#utility.yul\":6288:6293   */\n      dup4\n        /* \"#utility.yul\":6284:6298   */\n      add\n        /* \"#utility.yul\":6280:6303   */\n      div\n        /* \"#utility.yul\":6270:6303   */\n      swap1\n      pop\n        /* \"#utility.yul\":6216:6309   */\n      swap2\n      swap1\n      pop\n      jump\t// out\n        /* \"#utility.yul\":6315:6422   */\n    tag_56:\n        /* \"#utility.yul\":6359:6367   */\n      0x00\n        /* \"#utility.yul\":6409:6414   */\n      dup3\n        /* \"#utility.yul\":6403:6407   */\n      dup3\n        /* \"#utility.yul\":6399:6415   */\n      shl\n        /* \"#utility.yul\":6378:6415   */\n      swap1\n      pop\n        /* \"#utility.yul\":6315:6422   */\n      swap3\n      swap2\n      pop\n      pop\n      jump\t// out\n        /* \"#utility.yul\":6428:6821   */\n    tag_57:\n        /* \"#utility.yul\":6497:6503   */\n      0x00\n        /* \"#utility.yul\":6547:6548   */\n      0x08\n        /* \"#utility.yul\":6535:6545   */\n      dup4\n        /* \"#utility.yul\":6531:6549   */\n      mul\n        /* \"#utility.yul\":6570:6667   */\n      tag_137\n        /* \"#utility.yul\":6600:6666   */\n      0xffffffffffffffffffffffffffffffffffffffffffffffffffffffffffffffff\n        /* \"#utility.yul\":6589:6598   */\n      dup3\n        /* \"#utility.yul\":6570:6667   */\n      tag_56\n      jump\t// in\n    tag_137:\n        /* \"#utility.yul\":6688:6727   */\n      tag_138\n        /* \"#utility.yul\":6718:6726   */\n      dup7\n        /* \"#utility.yul\":6707:6716   */\n      dup4\n        /* \"#utility.yul\":6688:6727   */\n      tag_56\n      jump\t// in\n    tag_138:\n        /* \"#utility.yul\":6676:6727   */\n      swap6\n      pop\n        /* \"#utility.yul\":6760:6764   */\n      dup1\n        /* \"#utility.yul\":6756:6765   */\n      not\n        /* \"#utility.yul\":6749:6754   */\n      dup5\n        /* \"#utility.yul\":6745:6766   */\n      and\n        /* \"#utility.yul\":6736:6766   */\n      swap4\n      pop\n        /* \"#utility.yul\":6809:6813   */\n      dup1\n        /* \"#utility.yul\":6799:6807   */\n      dup7\n        /* \"#utility.yul\":6795:6814   */\n      and\n        /* \"#utility.yul\":6788:6793   */\n      dup5\n        /* \"#utility.yul\":6785:6815   */\n      or\n        /* \"#utility.yul\":6775:6815   */\n      swap3\n      pop\n        /* \"#utility.yul\":6504:6821   */\n      pop\n      pop\n        /* \"#utility.yul\":6428:6821   */\n      swap4\n      swap3\n      pop\n      pop\n      pop\n      jump\t// out\n        /* \"#utility.yul\":6827:6904   */\n    tag_58:\n        /* \"#utility.yul\":6864:6871   */\n      0x00\n        /* \"#utility.yul\":6893:6898   */\n      dup2\n        /* \"#utility.yul\":6882:6898   */\n      swap1\n      pop\n        /* \"#utility.yul\":6827:6904   */\n      swap2\n      swap1\n      pop\n      jump\t// out\n        /* \"#utility.yul\":6910:6970   */\n    tag_59:\n        /* \"#utility.yul\":6938:6941   */\n      0x00\n        /* \"#utility.yul\":6959:6964   */\n      dup2\n        /* \"#utility.yul\":6952:6964   */\n      swap1\n      pop\n        /* \"#utility.yul\":6910:6970   */\n      swap2\n      swap1\n      pop\n      jump\t// out\n        /* \"#utility.yul\":6976:7118   */\n    tag_60:\n        /* \"#utility.yul\":7026:7035   */\n      0x00\n        /* \"#utility.yul\":7059:7112   */\n      tag_142\n        /* \"#utility.yul\":7077:7111   */\n      tag_143\n        /* \"#utility.yul\":7086:7110   */\n      tag_144\n        /* \"#utility.yul\":7104:7109   */\n      dup5\n        /* \"#utility.yul\":7086:7110   */\n      tag_58\n      jump\t// in\n    tag_144:\n        /* \"#utility.yul\":7077:7111   */\n      tag_59\n      jump\t// in\n    tag_143:\n        /* \"#utility.yul\":7059:7112   */\n      tag_58\n      jump\t// in\n    tag_142:\n        /* \"#utility.yul\":7046:7112   */\n      swap1\n      pop\n        /* \"#utility.yul\":6976:7118   */\n      swap2\n      swap1\n      pop\n      jump\t// out\n        /* \"#utility.yul\":7124:7199   */\n    tag_61:\n        /* \"#utility.yul\":7167:7170   */\n      0x00\n        /* \"#utility.yul\":7188:7193   */\n      dup2\n        /* \"#utility.yul\":7181:7193   */\n      swap1\n      pop\n        /* \"#utility.yul\":7124:7199   */\n      swap2\n      swap1\n      pop\n      jump\t// out\n        /* \"#utility.yul\":7205:7474   */\n    tag_62:\n        /* \"#utility.yul\":7315:7354   */\n      tag_147\n        /* \"#utility.yul\":7346:7353   */\n      dup4\n        /* \"#utility.yul\":7315:7354   */\n      tag_60\n      jump\t// in\n    tag_147:\n        /* \"#utility.yul\":7376:7467   */\n      tag_148\n        /* \"#utility.yul\":7425:7466   */\n      tag_149\n        /* \"#utility.yul\":7449:7465   */\n      dup3\n        /* \"#utility.yul\":7425:7466   */\n      tag_61\n      jump\t// in\n    tag_149:\n        /* \"#utility.yul\":7417:7423   */\n      dup5\n        /* \"#utility.yul\":7410:7414   */\n      dup5\n        /* \"#utility.yul\":7404:7415   */\n      sload\n        /* \"#utility.yul\":7376:7467   */\n      tag_57\n      jump\t// in\n    tag_148:\n        /* \"#utility.yul\":7370:7374   */\n      dup3\n        /* \"#utility.yul\":7363:7468   */\n      sstore\n        /* \"#utility.yul\":7281:7474   */\n      pop\n        /* \"#utility.yul\":7205:7474   */\n      pop\n      pop\n      pop\n      jump\t// out\n        /* \"#utility.yul\":7480:7553   */\n    tag_63:\n        /* \"#utility.yul\":7525:7528   */\n      0x00\n        /* \"#utility.yul\":7546:7547   */\n      0x00\n        /* \"#utility.yul\":7539:7547   */\n      swap1\n      pop\n        /* \"#utility.yul\":7480:7553   */\n      swap1\n      jump\t// out\n        /* \"#utility.yul\":7559:7748   */\n    tag_64:\n        /* \"#utility.yul\":7636:7668   */\n      tag_152\n      tag_63\n      jump\t// in\n    tag_152:\n        /* \"#utility.yul\":7677:7742   */\n      tag_153\n        /* \"#utility.yul\":7735:7741   */\n      dup2\n        /* \"#utility.yul\":7727:7733   */\n      dup5\n        /* \"#utility.yul\":7721:7725   */\n      dup5\n        /* \"#utility.yul\":7677:7742   */\n      tag_62\n      jump\t// in\n    tag_153:\n        /* \"#utility.yul\":7612:7748   */\n      pop\n        /* \"#utility.yul\":7559:7748   */\n      pop\n      pop\n      jump\t// out\n        /* \"#utility.yul\":7754:7968   */\n    tag_65:\n        /* \"#utility.yul\":7839:7840   */\n      0x00\n        /* \"#utility.yul\":7824:7962   */\n    tag_155:\n        /* \"#utility.yul\":7849:7858   */\n      dup3\n        /* \"#utility.yul\":7846:7847   */\n      dup2\n        /* \"#utility.yul\":7843:7859   */\n      lt\n        /* \"#utility.yul\":7824:7962   */\n      iszero\n      tag_157\n      jumpi\n        /* \"#utility.yul\":7901:7952   */\n      tag_158\n        /* \"#utility.yul\":7950:7951   */\n      0x00\n        /* \"#utility.yul\":7946:7947   */\n      dup3\n        /* \"#utility.yul\":7935:7944   */\n      dup5\n        /* \"#utility.yul\":7931:7948   */\n      add\n        /* \"#utility.yul\":7901:7952   */\n      tag_64\n      jump\t// in\n    tag_158:\n        /* \"#utility.yul\":7874:7875   */\n      0x01\n        /* \"#utility.yul\":7871:7872   */\n      dup2\n        /* \"#utility.yul\":7867:7876   */\n      add\n        /* \"#utility.yul\":7862:7876   */\n      swap1\n      pop\n        /* \"#utility.yul\":7824:7962   */\n      jump(tag_155)\n    tag_157:\n        /* \"#utility.yul\":7828:7842   */\n      pop\n        /* \"#utility.yul\":7754:7968   */\n      pop\n      pop\n      jump\t// out\n        /* \"#utility.yul\":7974:8720   */\n    tag_66:\n        /* \"#utility.yul\":8075:8077   */\n      0x1f\n        /* \"#utility.yul\":8070:8073   */\n      dup3\n        /* \"#utility.yul\":8067:8078   */\n      gt\n        /* \"#utility.yul\":8064:8713   */\n      iszero\n      tag_160\n      jumpi\n        /* \"#utility.yul\":8104:8114   */\n      dup3\n        /* \"#utility.yul\":8099:8102   */\n      dup3\n        /* \"#utility.yul\":8096:8115   */\n      gt\n        /* \"#utility.yul\":8093:8703   */\n      iszero\n      tag_161\n      jumpi\n        /* \"#utility.yul\":8150:8188   */\n      tag_162\n        /* \"#utility.yul\":8182:8187   */\n      dup2\n        /* \"#utility.yul\":8150:8188   */\n      tag_54\n      jump\t// in\n    tag_162:\n        /* \"#utility.yul\":8225:8247   */\n      tag_163\n        /* \"#utility.yul\":8243:8246   */\n      dup4\n        /* \"#utility.yul\":8225:8247   */\n      tag_55\n      jump\t// in\n    tag_163:\n        /* \"#utility.yul\":8284:8313   */\n      tag_164\n        /* \"#utility.yul\":8302:8312   */\n      dup6\n        /* \"#utility.yul\":8284:8313   */\n      tag_55\n      jump\t// in\n    tag_164:\n        /* \"#utility.yul\":8474:8476   */\n      0x20\n        /* \"#utility.yul\":8462:8472   */\n      dup7\n        /* \"#utility.yul\":8459:8477   */\n      lt\n        /* \"#utility.yul\":8456:8535   */\n      iszero\n      tag_165\n      jumpi\n        /* \"#utility.yul\":8516:8517   */\n      0x00\n        /* \"#utility.yul\":8500:8517   */\n      swap1\n      pop\n        /* \"#utility.yul\":8456:8535   */\n    tag_165:\n        /* \"#utility.yul\":8585:8597   */\n      dup1\n        /* \"#utility.yul\":8575:8583   */\n      dup4\n        /* \"#utility.yul\":8571:8598   */\n      add\n        /* \"#utility.yul\":8615:8689   */\n      tag_166\n        /* \"#utility.yul\":8675:8687   */\n      dup3\n        /* \"#utility.yul\":8661:8673   */\n      dup5\n        /* \"#utility.yul\":8657:8688   */\n      sub\n        /* \"#utility.yul\":8644:8655   */\n      dup3\n        /* \"#utility.yul\":8615:8689   */\n      tag_65\n      jump\t// in\n    tag_166:\n        /* \"#utility.yul\":8116:8703   */\n      pop\n      pop\n      pop\n      pop\n        /* \"#utility.yul\":8093:8703   */\n    tag_161:\n        /* \"#utility.yul\":8064:8713   */\n    tag_160:\n        /* \"#utility.yul\":7974:8720   */\n      pop\n      pop\n      pop\n      jump\t// out\n        /* \"#utility.yul\":8726:8843   */\n    tag_67:\n        /* \"#utility.yul\":8780:8788   */\n      0x00\n        /* \"#utility.yul\":8830:8835   */\n      dup3\n        /* \"#utility.yul\":8824:8828   */\n      dup3\n        /* \"#utility.yul\":8820:8836   */\n      shr\n        /* \"#utility.yul\":8799:8836   */\n      swap1\n      pop\n        /* \"#utility.yul\":8726:8843   */\n      swap3\n      swap2\n      pop\n      pop\n      jump\t// out\n        /* \"#utility.yul\":8849:9018   */\n    tag_68:\n        /* \"#utility.yul\":8893:8899   */\n      0x00\n        /* \"#utility.yul\":8926:8977   */\n      tag_169\n        /* \"#utility.yul\":8974:8975   */\n      0x00\n        /* \"#utility.yul\":8970:8976   */\n      not\n        /* \"#utility.yul\":8962:8967   */\n      dup5\n        /* \"#utility.yul\":8959:8960   */\n      0x08\n        /* \"#utility.yul\":8955:8968   */\n      mul\n        /* \"#utility.yul\":8926:8977   */\n      tag_67\n      jump\t// in\n    tag_169:\n        /* \"#utility.yul\":8922:8978   */\n      not\n        /* \"#utility.yul\":9007:9011   */\n      dup1\n        /* \"#utility.yul\":9001:9005   */\n      dup4\n        /* \"#utility.yul\":8997:9012   */\n      and\n        /* \"#utility.yul\":8987:9012   */\n      swap2\n      pop\n        /* \"#utility.yul\":8900:9018   */\n      pop\n        /* \"#utility.yul\":8849:9018   */\n      swap3\n      swap2\n      pop\n      pop\n      jump\t// out\n        /* \"#utility.yul\":9023:9318   */\n    tag_69:\n        /* \"#utility.yul\":9099:9103   */\n      0x00\n        /* \"#utility.yul\":9245:9274   */\n      tag_171\n        /* \"#utility.yul\":9270:9273   */\n      dup4\n        /* \"#utility.yul\":9264:9268   */\n      dup4\n        /* \"#utility.yul\":9245:9274   */\n      tag_68\n      jump\t// in\n    tag_171:\n        /* \"#utility.yul\":9237:9274   */\n      swap2\n      pop\n        /* \"#utility.yul\":9307:9310   */\n      dup3\n        /* \"#utility.yul\":9304:9305   */\n      0x02\n        /* \"#utility.yul\":9300:9311   */\n      mul\n        /* \"#utility.yul\":9294:9298   */\n      dup3\n        /* \"#utility.yul\":9291:9312   */\n      or\n        /* \"#utility.yul\":9283:9312   */\n      swap1\n      pop\n        /* \"#utility.yul\":9023:9318   */\n      swap3\n      swap2\n      pop\n      pop\n      jump\t// out\n        /* \"#utility.yul\":9323:10718   */\n    tag_27:\n        /* \"#utility.yul\":9440:9477   */\n      tag_173\n        /* \"#utility.yul\":9473:9476   */\n      dup3\n        /* \"#utility.yul\":9440:9477   */\n      tag_49\n      jump\t// in\n    tag_173:\n        /* \"#utility.yul\":9542:9560   */\n      0xffffffffffffffff\n        /* \"#utility.yul\":9534:9540   */\n      dup2\n        /* \"#utility.yul\":9531:9561   */\n      gt\n        /* \"#utility.yul\":9528:9584   */\n      iszero\n      tag_174\n      jumpi\n        /* \"#utility.yul\":9564:9582   */\n      tag_175\n      tag_42\n      jump\t// in\n    tag_175:\n        /* \"#utility.yul\":9528:9584   */\n    tag_174:\n        /* \"#utility.yul\":9608:9646   */\n      tag_176\n        /* \"#utility.yul\":9640:9644   */\n      dup3\n        /* \"#utility.yul\":9634:9645   */\n      sload\n        /* \"#utility.yul\":9608:9646   */\n      tag_31\n      jump\t// in\n    tag_176:\n        /* \"#utility.yul\":9693:9760   */\n      tag_177\n        /* \"#utility.yul\":9753:9759   */\n      dup3\n        /* \"#utility.yul\":9745:9751   */\n      dup3\n        /* \"#utility.yul\":9739:9743   */\n      dup6\n        /* \"#utility.yul\":9693:9760   */\n      tag_66\n      jump\t// in\n    tag_177:\n        /* \"#utility.yul\":9787:9788   */\n      0x00\n        /* \"#utility.yul\":9811:9815   */\n      0x20\n        /* \"#utility.yul\":9798:9815   */\n      swap1\n      pop\n        /* \"#utility.yul\":9843:9845   */\n      0x1f\n        /* \"#utility.yul\":9835:9841   */\n      dup4\n        /* \"#utility.yul\":9832:9846   */\n      gt\n        /* \"#utility.yul\":9860:9861   */\n      0x01\n        /* \"#utility.yul\":9855:10473   */\n      dup2\n      eq\n      tag_179\n      jumpi\n        /* \"#utility.yul\":10517:10518   */\n      0x00\n        /* \"#utility.yul\":10534:10540   */\n      dup5\n        /* \"#utility.yul\":10531:10608   */\n      iszero\n      tag_180\n      jumpi\n        /* \"#utility.yul\":10583:10592   */\n      dup3\n        /* \"#utility.yul\":10578:10581   */\n      dup8\n        /* \"#utility.yul\":10574:10593   */\n      add\n        /* \"#utility.yul\":10568:10594   */\n      mload\n        /* \"#utility.yul\":10559:10594   */\n      swap1\n      pop\n        /* \"#utility.yul\":10531:10608   */\n    tag_180:\n        /* \"#utility.yul\":10634:10701   */\n      tag_181\n        /* \"#utility.yul\":10694:10700   */\n      dup6\n        /* \"#utility.yul\":10687:10692   */\n      dup3\n        /* \"#utility.yul\":10634:10701   */\n      tag_69\n      jump\t// in\n    tag_181:\n        /* \"#utility.yul\":10628:10632   */\n      dup7\n        /* \"#utility.yul\":10621:10702   */\n      sstore\n        /* \"#utility.yul\":10490:10712   */\n      pop\n        /* \"#utility.yul\":9825:10712   */\n      jump(tag_178)\n        /* \"#utility.yul\":9855:10473   */\n    tag_179:\n        /* \"#utility.yul\":9907:9911   */\n      0x1f\n        /* \"#utility.yul\":9903:9912   */\n      not\n        /* \"#utility.yul\":9895:9901   */\n      dup5\n        /* \"#utility.yul\":9891:9913   */\n      and\n        /* \"#utility.yul\":9941:9978   */\n      tag_182\n        /* \"#utility.yul\":9973:9977   */\n      dup7\n        /* \"#utility.yul\":9941:9978   */\n      tag_54\n      jump\t// in\n    tag_182:\n        /* \"#utility.yul\":10000:10001   */\n      0x00\n        /* \"#utility.yul\":10014:10222   */\n    tag_183:\n        /* \"#utility.yul\":10028:10035   */\n      dup3\n        /* \"#utility.yul\":10025:10026   */\n      dup2\n        /* \"#utility.yul\":10022:10036   */\n      lt\n        /* \"#utility.yul\":10014:10222   */\n      iszero\n      tag_185\n      jumpi\n        /* \"#utility.yul\":10107:10116   */\n      dup5\n        /* \"#utility.yul\":10102:10105   */\n      dup10\n        /* \"#utility.yul\":10098:10117   */\n      add\n        /* \"#utility.yul\":10092:10118   */\n      mload\n        /* \"#utility.yul\":10084:10090   */\n      dup3\n        /* \"#utility.yul\":10077:10119   */\n      sstore\n        /* \"#utility.yul\":10158:10159   */\n      0x01\n        /* \"#utility.yul\":10150:10156   */\n      dup3\n        /* \"#utility.yul\":10146:10160   */\n      add\n        /* \"#utility.yul\":10136:10160   */\n      swap2\n      pop\n        /* \"#utility.yul\":10205:10207   */\n      0x20\n        /* \"#utility.yul\":10194:10203   */\n      dup6\n        /* \"#utility.yul\":10190:10208   */\n      add\n        /* \"#utility.yul\":10177:10208   */\n      swap5\n      pop\n        /* \"#utility.yul\":10051:10055   */\n      0x20\n        /* \"#utility.yul\":10048:10049   */\n      dup2\n        /* \"#utility.yul\":10044:10056   */\n      add\n        /* \"#utility.yul\":10039:10056   */\n      swap1\n      pop\n        /* \"#utility.yul\":10014:10222   */\n      jump(tag_183)\n    tag_185:\n        /* \"#utility.yul\":10250:10256   */\n      dup7\n        /* \"#utility.yul\":10241:10248   */\n      dup4\n        /* \"#utility.yul\":10238:10257   */\n      lt\n        /* \"#utility.yul\":10235:10414   */\n      iszero\n      tag_186\n      jumpi\n        /* \"#utility.yul\":10308:10317   */\n      dup5\n        /* \"#utility.yul\":10303:10306   */\n      dup10\n        /* \"#utility.yul\":10299:10318   */\n      add\n        /* \"#utility.yul\":10293:10319   */\n      mload\n        /* \"#utility.yul\":10351:10399   */\n      tag_187\n        /* \"#utility.yul\":10393:10397   */\n      0x1f\n        /* \"#utility.yul\":10385:10391   */\n      dup10\n        /* \"#utility.yul\":10381:10398   */\n      and\n        /* \"#utility.yul\":10370:10379   */\n      dup3\n        /* \"#utility.yul\":10351:10399   */\n      tag_68\n      jump\t// in\n    tag_187:\n        /* \"#utility.yul\":10343:10349   */\n      dup4\n        /* \"#utility.yul\":10336:10400   */\n      sstore\n        /* \"#utility.yul\":10258:10414   */\n      pop\n        /* \"#utility.yul\":10235:10414   */\n    tag_186:\n        /* \"#utility.yul\":10460:10461   */\n      0x01\n        /* \"#utility.yul\":10456:10457   */\n      0x02\n        /* \"#utility.yul\":10448:10454   */\n      dup9\n        /* \"#utility.yul\":10444:10458   */\n      mul\n        /* \"#utility.yul\":10440:10462   */\n      add\n        /* \"#utility.yul\":10434:10438   */\n      dup9\n        /* \"#utility.yul\":10427:10463   */\n      sstore\n        /* \"#utility.yul\":9862:10473   */\n      pop\n      pop\n      pop\n        /* \"#utility.yul\":9825:10712   */\n    tag_178:\n      pop\n        /* \"#utility.yul\":9415:10718   */\n      pop\n      pop\n      pop\n        /* \"#utility.yul\":9323:10718   */\n      pop\n      pop\n      jump\t// out\n\n    auxdata: 0xa2646970667358221220cb26b95e52c102484526e0c17e7f1dc99219c491f3400caff478de52e4d7e90664736f6c63430008220033\n}\n",
				"bytecode": {
					"linkReferences": {},
					"object": "6080604052348015600e575f5ffd5b506107808061001c5f395ff3fe608060405234801561000f575f5ffd5b506004361061004a575f3560e01c8063bc4205231461004e578063bed34bba1461006a578063ceec50141461009b578063e10a949c146100cb575b5f5ffd5b610068600480360381019061006391906102f2565b6100e9565b005b610084600480360381019061007f9190610339565b6100fb565b60405161009292919061040f565b60405180910390f35b6100b560048036038101906100b091906102f2565b61010b565b6040516100c29190610444565b60405180910390f35b6100d361011a565b6040516100e09190610444565b60405180910390f35b805f90816100f7919061067b565b5050565b6060808383915091509250929050565b60605f82905080915050919050565b5f805461012690610491565b80601f016020809104026020016040519081016040528092919081815260200182805461015290610491565b801561019d5780601f106101745761010080835404028352916020019161019d565b820191905f5260205f20905b81548152906001019060200180831161018057829003601f168201915b505050505081565b5f604051905090565b5f5ffd5b5f5ffd5b5f5ffd5b5f5ffd5b5f601f19601f8301169050919050565b7f4e487b71000000000000000000000000000000000000000000000000000000005f52604160045260245ffd5b610204826101be565b810181811067ffffffffffffffff82111715610223576102226101ce565b5b80604052505050565b5f6102356101a5565b905061024182826101fb565b919050565b5f67ffffffffffffffff8211156102605761025f6101ce565b5b610269826101be565b9050602081019050919050565b828183375f83830152505050565b5f61029661029184610246565b61022c565b9050828152602081018484840111156102b2576102b16101ba565b5b6102bd848285610276565b509392505050565b5f82601f8301126102d9576102d86101b6565b5b81356102e9848260208601610284565b91505092915050565b5f60208284031215610307576103066101ae565b5b5f82013567ffffffffffffffff811115610324576103236101b2565b5b610330848285016102c5565b91505092915050565b5f5f6040838503121561034f5761034e6101ae565b5b5f83013567ffffffffffffffff81111561036c5761036b6101b2565b5b610378858286016102c5565b925050602083013567ffffffffffffffff811115610399576103986101b2565b5b6103a5858286016102c5565b9150509250929050565b5f81519050919050565b5f82825260208201905092915050565b8281835e5f83830152505050565b5f6103e1826103af565b6103eb81856103b9565b93506103fb8185602086016103c9565b610404816101be565b840191505092915050565b5f6040820190508181035f83015261042781856103d7565b9050818103602083015261043b81846103d7565b90509392505050565b5f6020820190508181035f83015261045c81846103d7565b905092915050565b7f4e487b71000000000000000000000000000000000000000000000000000000005f52602260045260245ffd5b5f60028204905060018216806104a857607f821691505b6020821081036104bb576104ba610464565b5b50919050565b5f819050815f5260205f209050919050565b5f6020601f8301049050919050565b5f82821b905092915050565b5f6008830261051d7fffffffffffffffffffffffffffffffffffffffffffffffffffffffffffffffff826104e2565b61052786836104e2565b95508019841693508086168417925050509392505050565b5f819050919050565b5f819050919050565b5f61056b6105666105618461053f565b610548565b61053f565b9050919050565b5f819050919050565b61058483610551565b61059861059082610572565b8484546104ee565b825550505050565b5f5f905090565b6105af6105a0565b6105ba81848461057b565b505050565b5f5b828110156105e0576105d55f8284016105a7565b6001810190506105c1565b505050565b601f8211156106335782821115610632576105ff816104c1565b610608836104d3565b610611856104d3565b602086101561061e575f90505b80830161062d828403826105bf565b505050505b5b505050565b5f82821c905092915050565b5f6106535f1984600802610638565b1980831691505092915050565b5f61066b8383610644565b9150826002028217905092915050565b610684826103af565b67ffffffffffffffff81111561069d5761069c6101ce565b5b6106a78254610491565b6106b28282856105e5565b5f60209050601f8311600181146106e3575f84156106d1578287015190505b6106db8582610660565b865550610742565b601f1984166106f1866104c1565b5f5b82811015610718578489015182556001820191506020850194506020810190506106f3565b868310156107355784890151610731601f891682610644565b8355505b6001600288020188555050505b50505050505056fea2646970667358221220cb26b95e52c102484526e0c17e7f1dc99219c491f3400caff478de52e4d7e90664736f6c63430008220033",
					"opcodes": "PUSH1 0x80 PUSH1 0x40 MSTORE CALLVALUE DUP1 ISZERO PUSH1 0xE JUMPI PUSH0 PUSH0 REVERT JUMPDEST POP PUSH2 0x780 DUP1 PUSH2 0x1C PUSH0 CODECOPY PUSH0 RETURN INVALID PUSH1 0x80 PUSH1 0x40 MSTORE CALLVALUE DUP1 ISZERO PUSH2 0xF JUMPI PUSH0 PUSH0 REVERT JUMPDEST POP PUSH1 0x4 CALLDATASIZE LT PUSH2 0x4A JUMPI PUSH0 CALLDATALOAD PUSH1 0xE0 SHR DUP1 PUSH4 0xBC420523 EQ PUSH2 0x4E JUMPI DUP1 PUSH4 0xBED34BBA EQ PUSH2 0x6A JUMPI DUP1 PUSH4 0xCEEC5014 EQ PUSH2 0x9B JUMPI DUP1 PUSH4 0xE10A949C EQ PUSH2 0xCB JUMPI JUMPDEST PUSH0 PUSH0 REVERT JUMPDEST PUSH2 0x68 PUSH1 0x4 DUP1 CALLDATASIZE SUB DUP2 ADD SWAP1 PUSH2 0x63 SWAP2 SWAP1 PUSH2 0x2F2 JUMP JUMPDEST PUSH2 0xE9 JUMP JUMPDEST STOP JUMPDEST PUSH2 0x84 PUSH1 0x4 DUP1 CALLDATASIZE SUB DUP2 ADD SWAP1 PUSH2 0x7F SWAP2 SWAP1 PUSH2 0x339 JUMP JUMPDEST PUSH2 0xFB JUMP JUMPDEST PUSH1 0x40 MLOAD PUSH2 0x92 SWAP3 SWAP2 SWAP1 PUSH2 0x40F JUMP JUMPDEST PUSH1 0x40 MLOAD DUP1 SWAP2 SUB SWAP1 RETURN JUMPDEST PUSH2 0xB5 PUSH1 0x4 DUP1 CALLDATASIZE SUB DUP2 ADD SWAP1 PUSH2 0xB0 SWAP2 SWAP1 PUSH2 0x2F2 JUMP JUMPDEST PUSH2 0x10B JUMP JUMPDEST PUSH1 0x40 MLOAD PUSH2 0xC2 SWAP2 SWAP1 PUSH2 0x444 JUMP JUMPDEST PUSH1 0x40 MLOAD DUP1 SWAP2 SUB SWAP1 RETURN JUMPDEST PUSH2 0xD3 PUSH2 0x11A JUMP JUMPDEST PUSH1 0x40 MLOAD PUSH2 0xE0 SWAP2 SWAP1 PUSH2 0x444 JUMP JUMPDEST PUSH1 0x40 MLOAD DUP1 SWAP2 SUB SWAP1 RETURN JUMPDEST DUP1 PUSH0 SWAP1 DUP2 PUSH2 0xF7 SWAP2 SWAP1 PUSH2 0x67B JUMP JUMPDEST POP POP JUMP JUMPDEST PUSH1 0x60 DUP1 DUP4 DUP4 SWAP2 POP SWAP2 POP SWAP3 POP SWAP3 SWAP1 POP JUMP JUMPDEST PUSH1 0x60 PUSH0 DUP3 SWAP1 POP DUP1 SWAP2 POP POP SWAP2 SWAP1 POP JUMP JUMPDEST PUSH0 DUP1 SLOAD PUSH2 0x126 SWAP1 PUSH2 0x491 JUMP JUMPDEST DUP1 PUSH1 0x1F ADD PUSH1 0x20 DUP1 SWAP2 DIV MUL PUSH1 0x20 ADD PUSH1 0x40 MLOAD SWAP1 DUP2 ADD PUSH1 0x40 MSTORE DUP1 SWAP3 SWAP2 SWAP1 DUP2 DUP2 MSTORE PUSH1 0x20 ADD DUP3 DUP1 SLOAD PUSH2 0x152 SWAP1 PUSH2 0x491 JUMP JUMPDEST DUP1 ISZERO PUSH2 0x19D JUMPI DUP1 PUSH1 0x1F LT PUSH2 0x174 JUMPI PUSH2 0x100 DUP1 DUP4 SLOAD DIV MUL DUP4 MSTORE SWAP2 PUSH1 0x20 ADD SWAP2 PUSH2 0x19D JUMP JUMPDEST DUP3 ADD SWAP2 SWAP1 PUSH0 MSTORE PUSH1 0x20 PUSH0 KECCAK256 SWAP1 JUMPDEST DUP2 SLOAD DUP2 MSTORE SWAP1 PUSH1 0x1 ADD SWAP1 PUSH1 0x20 ADD DUP1 DUP4 GT PUSH2 0x180 JUMPI DUP3 SWAP1 SUB PUSH1 0x1F AND DUP3 ADD SWAP2 JUMPDEST POP POP POP POP POP DUP2 JUMP JUMPDEST PUSH0 PUSH1 0x40 MLOAD SWAP1 POP SWAP1 JUMP JUMPDEST PUSH0 PUSH0 REVERT JUMPDEST PUSH0 PUSH0 REVERT JUMPDEST PUSH0 PUSH0 REVERT JUMPDEST PUSH0 PUSH0 REVERT JUMPDEST PUSH0 PUSH1 0x1F NOT PUSH1 0x1F DUP4 ADD AND SWAP1 POP SWAP2 SWAP1 POP JUMP JUMPDEST PUSH32 0x4E487B7100000000000000000000000000000000000000000000000000000000 PUSH0 MSTORE PUSH1 0x41 PUSH1 0x4 MSTORE PUSH1 0x24 PUSH0 REVERT JUMPDEST PUSH2 0x204 DUP3 PUSH2 0x1BE JUMP JUMPDEST DUP2 ADD DUP2 DUP2 LT PUSH8 0xFFFFFFFFFFFFFFFF DUP3 GT OR ISZERO PUSH2 0x223 JUMPI PUSH2 0x222 PUSH2 0x1CE JUMP JUMPDEST JUMPDEST DUP1 PUSH1 0x40 MSTORE POP POP POP JUMP JUMPDEST PUSH0 PUSH2 0x235 PUSH2 0x1A5 JUMP JUMPDEST SWAP1 POP PUSH2 0x241 DUP3 DUP3 PUSH2 0x1FB JUMP JUMPDEST SWAP2 SWAP1 POP JUMP JUMPDEST PUSH0 PUSH8 0xFFFFFFFFFFFFFFFF DUP3 GT ISZERO PUSH2 0x260 JUMPI PUSH2 0x25F PUSH2 0x1CE JUMP JUMPDEST JUMPDEST PUSH2 0x269 DUP3 PUSH2 0x1BE JUMP JUMPDEST SWAP1 POP PUSH1 0x20 DUP2 ADD SWAP1 POP SWAP2 SWAP1 POP JUMP JUMPDEST DUP3 DUP2 DUP4 CALLDATACOPY PUSH0 DUP4 DUP4 ADD MSTORE POP POP POP JUMP JUMPDEST PUSH0 PUSH2 0x296 PUSH2 0x291 DUP5 PUSH2 0x246 JUMP JUMPDEST PUSH2 0x22C JUMP JUMPDEST SWAP1 POP DUP3 DUP2 MSTORE PUSH1 0x20 DUP2 ADD DUP5 DUP5 DUP5 ADD GT ISZERO PUSH2 0x2B2 JUMPI PUSH2 0x2B1 PUSH2 0x1BA JUMP JUMPDEST JUMPDEST PUSH2 0x2BD DUP5 DUP3 DUP6 PUSH2 0x276 JUMP JUMPDEST POP SWAP4 SWAP3 POP POP POP JUMP JUMPDEST PUSH0 DUP3 PUSH1 0x1F DUP4 ADD SLT PUSH2 0x2D9 JUMPI PUSH2 0x2D8 PUSH2 0x1B6 JUMP JUMPDEST JUMPDEST DUP2 CALLDATALOAD PUSH2 0x2E9 DUP5 DUP3 PUSH1 0x20 DUP7 ADD PUSH2 0x284 JUMP JUMPDEST SWAP2 POP POP SWAP3 SWAP2 POP POP JUMP JUMPDEST PUSH0 PUSH1 0x20 DUP3 DUP5 SUB SLT ISZERO PUSH2 0x307 JUMPI PUSH2 0x306 PUSH2 0x1AE JUMP JUMPDEST JUMPDEST PUSH0 DUP3 ADD CALLDATALOAD PUSH8 0xFFFFFFFFFFFFFFFF DUP2 GT ISZERO PUSH2 0x324 JUMPI PUSH2 0x323 PUSH2 0x1B2 JUMP JUMPDEST JUMPDEST PUSH2 0x330 DUP5 DUP3 DUP6 ADD PUSH2 0x2C5 JUMP JUMPDEST SWAP2 POP POP SWAP3 SWAP2 POP POP JUMP JUMPDEST PUSH0 PUSH0 PUSH1 0x40 DUP4 DUP6 SUB SLT ISZERO PUSH2 0x34F JUMPI PUSH2 0x34E PUSH2 0x1AE JUMP JUMPDEST JUMPDEST PUSH0 DUP4 ADD CALLDATALOAD PUSH8 0xFFFFFFFFFFFFFFFF DUP2 GT ISZERO PUSH2 0x36C JUMPI PUSH2 0x36B PUSH2 0x1B2 JUMP JUMPDEST JUMPDEST PUSH2 0x378 DUP6 DUP3 DUP7 ADD PUSH2 0x2C5 JUMP JUMPDEST SWAP3 POP POP PUSH1 0x20 DUP4 ADD CALLDATALOAD PUSH8 0xFFFFFFFFFFFFFFFF DUP2 GT ISZERO PUSH2 0x399 JUMPI PUSH2 0x398 PUSH2 0x1B2 JUMP JUMPDEST JUMPDEST PUSH2 0x3A5 DUP6 DUP3 DUP7 ADD PUSH2 0x2C5 JUMP JUMPDEST SWAP2 POP POP SWAP3 POP SWAP3 SWAP1 POP JUMP JUMPDEST PUSH0 DUP2 MLOAD SWAP1 POP SWAP2 SWAP1 POP JUMP JUMPDEST PUSH0 DUP3 DUP3 MSTORE PUSH1 0x20 DUP3 ADD SWAP1 POP SWAP3 SWAP2 POP POP JUMP JUMPDEST DUP3 DUP2 DUP4 MCOPY PUSH0 DUP4 DUP4 ADD MSTORE POP POP POP JUMP JUMPDEST PUSH0 PUSH2 0x3E1 DUP3 PUSH2 0x3AF JUMP JUMPDEST PUSH2 0x3EB DUP2 DUP6 PUSH2 0x3B9 JUMP JUMPDEST SWAP4 POP PUSH2 0x3FB DUP2 DUP6 PUSH1 0x20 DUP7 ADD PUSH2 0x3C9 JUMP JUMPDEST PUSH2 0x404 DUP2 PUSH2 0x1BE JUMP JUMPDEST DUP5 ADD SWAP2 POP POP SWAP3 SWAP2 POP POP JUMP JUMPDEST PUSH0 PUSH1 0x40 DUP3 ADD SWAP1 POP DUP2 DUP2 SUB PUSH0 DUP4 ADD MSTORE PUSH2 0x427 DUP2 DUP6 PUSH2 0x3D7 JUMP JUMPDEST SWAP1 POP DUP2 DUP2 SUB PUSH1 0x20 DUP4 ADD MSTORE PUSH2 0x43B DUP2 DUP5 PUSH2 0x3D7 JUMP JUMPDEST SWAP1 POP SWAP4 SWAP3 POP POP POP JUMP JUMPDEST PUSH0 PUSH1 0x20 DUP3 ADD SWAP1 POP DUP2 DUP2 SUB PUSH0 DUP4 ADD MSTORE PUSH2 0x45C DUP2 DUP5 PUSH2 0x3D7 JUMP JUMPDEST SWAP1 POP SWAP3 SWAP2 POP POP JUMP JUMPDEST PUSH32 0x4E487B7100000000000000000000000000000000000000000000000000000000 PUSH0 MSTORE PUSH1 0x22 PUSH1 0x4 MSTORE PUSH1 0x24 PUSH0 REVERT JUMPDEST PUSH0 PUSH1 0x2 DUP3 DIV SWAP1 POP PUSH1 0x1 DUP3 AND DUP1 PUSH2 0x4A8 JUMPI PUSH1 0x7F DUP3 AND SWAP2 POP JUMPDEST PUSH1 0x20 DUP3 LT DUP2 SUB PUSH2 0x4BB JUMPI PUSH2 0x4BA PUSH2 0x464 JUMP JUMPDEST JUMPDEST POP SWAP2 SWAP1 POP JUMP JUMPDEST PUSH0 DUP2 SWAP1 POP DUP2 PUSH0 MSTORE PUSH1 0x20 PUSH0 KECCAK256 SWAP1 POP SWAP2 SWAP1 POP JUMP JUMPDEST PUSH0 PUSH1 0x20 PUSH1 0x1F DUP4 ADD DIV SWAP1 POP SWAP2 SWAP1 POP JUMP JUMPDEST PUSH0 DUP3 DUP3 SHL SWAP1 POP SWAP3 SWAP2 POP POP JUMP JUMPDEST PUSH0 PUSH1 0x8 DUP4 MUL PUSH2 0x51D PUSH32 0xFFFFFFFFFFFFFFFFFFFFFFFFFFFFFFFFFFFFFFFFFFFFFFFFFFFFFFFFFFFFFFFF DUP3 PUSH2 0x4E2 JUMP JUMPDEST PUSH2 0x527 DUP7 DUP4 PUSH2 0x4E2 JUMP JUMPDEST SWAP6 POP DUP1 NOT DUP5 AND SWAP4 POP DUP1 DUP7 AND DUP5 OR SWAP3 POP POP POP SWAP4 SWAP3 POP POP POP JUMP JUMPDEST PUSH0 DUP2 SWAP1 POP SWAP2 SWAP1 POP JUMP JUMPDEST PUSH0 DUP2 SWAP1 POP SWAP2 SWAP1 POP JUMP JUMPDEST PUSH0 PUSH2 0x56B PUSH2 0x566 PUSH2 0x561 DUP5 PUSH2 0x53F JUMP JUMPDEST PUSH2 0x548 JUMP JUMPDEST PUSH2 0x53F JUMP JUMPDEST SWAP1 POP SWAP2 SWAP1 POP JUMP JUMPDEST PUSH0 DUP2 SWAP1 POP SWAP2 SWAP1 POP JUMP JUMPDEST PUSH2 0x584 DUP4 PUSH2 0x551 JUMP JUMPDEST PUSH2 0x598 PUSH2 0x590 DUP3 PUSH2 0x572 JUMP JUMPDEST DUP5 DUP5 SLOAD PUSH2 0x4EE JUMP JUMPDEST DUP3 SSTORE POP POP POP POP JUMP JUMPDEST PUSH0 PUSH0 SWAP1 POP SWAP1 JUMP JUMPDEST PUSH2 0x5AF PUSH2 0x5A0 JUMP JUMPDEST PUSH2 0x5BA DUP2 DUP5 DUP5 PUSH2 0x57B JUMP JUMPDEST POP POP POP JUMP JUMPDEST PUSH0 JUMPDEST DUP3 DUP2 LT ISZERO PUSH2 0x5E0 JUMPI PUSH2 0x5D5 PUSH0 DUP3 DUP5 ADD PUSH2 0x5A7 JUMP JUMPDEST PUSH1 0x1 DUP2 ADD SWAP1 POP PUSH2 0x5C1 JUMP JUMPDEST POP POP POP JUMP JUMPDEST PUSH1 0x1F DUP3 GT ISZERO PUSH2 0x633 JUMPI DUP3 DUP3 GT ISZERO PUSH2 0x632 JUMPI PUSH2 0x5FF DUP2 PUSH2 0x4C1 JUMP JUMPDEST PUSH2 0x608 DUP4 PUSH2 0x4D3 JUMP JUMPDEST PUSH2 0x611 DUP6 PUSH2 0x4D3 JUMP JUMPDEST PUSH1 0x20 DUP7 LT ISZERO PUSH2 0x61E JUMPI PUSH0 SWAP1 POP JUMPDEST DUP1 DUP4 ADD PUSH2 0x62D DUP3 DUP5 SUB DUP3 PUSH2 0x5BF JUMP JUMPDEST POP POP POP POP JUMPDEST JUMPDEST POP POP POP JUMP JUMPDEST PUSH0 DUP3 DUP3 SHR SWAP1 POP SWAP3 SWAP2 POP POP JUMP JUMPDEST PUSH0 PUSH2 0x653 PUSH0 NOT DUP5 PUSH1 0x8 MUL PUSH2 0x638 JUMP JUMPDEST NOT DUP1 DUP4 AND SWAP2 POP POP SWAP3 SWAP2 POP POP JUMP JUMPDEST PUSH0 PUSH2 0x66B DUP4 DUP4 PUSH2 0x644 JUMP JUMPDEST SWAP2 POP DUP3 PUSH1 0x2 MUL DUP3 OR SWAP1 POP SWAP3 SWAP2 POP POP JUMP JUMPDEST PUSH2 0x684 DUP3 PUSH2 0x3AF JUMP JUMPDEST PUSH8 0xFFFFFFFFFFFFFFFF DUP2 GT ISZERO PUSH2 0x69D JUMPI PUSH2 0x69C PUSH2 0x1CE JUMP JUMPDEST JUMPDEST PUSH2 0x6A7 DUP3 SLOAD PUSH2 0x491 JUMP JUMPDEST PUSH2 0x6B2 DUP3 DUP3 DUP6 PUSH2 0x5E5 JUMP JUMPDEST PUSH0 PUSH1 0x20 SWAP1 POP PUSH1 0x1F DUP4 GT PUSH1 0x1 DUP2 EQ PUSH2 0x6E3 JUMPI PUSH0 DUP5 ISZERO PUSH2 0x6D1 JUMPI DUP3 DUP8 ADD MLOAD SWAP1 POP JUMPDEST PUSH2 0x6DB DUP6 DUP3 PUSH2 0x660 JUMP JUMPDEST DUP7 SSTORE POP PUSH2 0x742 JUMP JUMPDEST PUSH1 0x1F NOT DUP5 AND PUSH2 0x6F1 DUP7 PUSH2 0x4C1 JUMP JUMPDEST PUSH0 JUMPDEST DUP3 DUP2 LT ISZERO PUSH2 0x718 JUMPI DUP5 DUP10 ADD MLOAD DUP3 SSTORE PUSH1 0x1 DUP3 ADD SWAP2 POP PUSH1 0x20 DUP6 ADD SWAP5 POP PUSH1 0x20 DUP2 ADD SWAP1 POP PUSH2 0x6F3 JUMP JUMPDEST DUP7 DUP4 LT ISZERO PUSH2 0x735 JUMPI DUP5 DUP10 ADD MLOAD PUSH2 0x731 PUSH1 0x1F DUP10 AND DUP3 PUSH2 0x644 JUMP JUMPDEST DUP4 SSTORE POP JUMPDEST PUSH1 0x1 PUSH1 0x2 DUP9 MUL ADD DUP9 SSTORE POP POP POP JUMPDEST POP POP POP POP POP POP JUMP INVALID LOG2 PUSH5 0x6970667358 0x22 SLT KECCAK256 0xCB 0x26 0xB9 MCOPY MSTORE 0xC1 MUL BASEFEE GASLIMIT 0x26 RJUMP 0xC17E PUSH32 0x1DC99219C491F3400CAFF478DE52E4D7E90664736F6C63430008220033000000 "
				},
				"gasEstimates": {
					"creation": {
						"codeDepositCost": "384000",
						"executionCost": "416",
						"totalCost": "384416"
					},
					"external": {
						"compareStrings(string,string)": "infinite",
						"getWelcomeMessage(string)": "infinite",
						"saveName(string)": "infinite",
						"storedName()": "infinite"
					}
				},
				"methodIdentifiers": {
					"compareStrings(string,string)": "bed34bba",
					"getWelcomeMessage(string)": "ceec5014",
					"saveName(string)": "bc420523",
					"storedName()": "e10a949c"
				}
			},
			"storageLayout": {
				"storage": [
					{
						"astId": 3,
						"contract": "contracts/prac24.sol:MemoryStringExample",
						"label": "storedName",
						"offset": 0,
						"slot": "0",
						"type": "t_string_storage"
					}
				],
				"types": {
					"t_string_storage": {
						"encoding": "bytes",
						"label": "string",
						"numberOfBytes": "32"
					}
				}
			},
			"userdoc": {
				"kind": "user",
				"methods": {},
				"version": 1
			}
		}
	}
}