{
	"contracts/prac12.sol": {
		"StatePersistence": {
			"abi": [
				{
					"inputs": [],
					"stateMutability": "nonpayable",
					"type": "constructor"
				},
				{
					"inputs": [],
					"name": "counter",
					"outputs": [
						{
							"internalType": "uint256",
							"name": "",
							"type": "uint256"
						}
					],
					"stateMutability": "view",
					"type": "function"
				},
				{
					"inputs": [],
					"name": "getCounter",
					"outputs": [
						{
							"internalType": "uint256",
							"name": "",
							"type": "uint256"
						}
					],
					"stateMutability": "view",
					"type": "function"
				},
				{
					"inputs": [],
					"name": "increment",
					"outputs": [],
					"stateMutability": "nonpayable",
					"type": "function"
				},
				{
					"inputs": [],
					"name": "owner",
					"outputs": [
						{
							"internalType": "address",
							"name": "",
							"type": "address"
						}
					],
					"stateMutability": "view",
					"type": "function"
				},
				{
					"inputs": [
						{
							"internalType": "uint256",
							"name": "_value",
							"type": "uint256"
						}
					],
					"name": "setCounter",
					"outputs": [],
					"stateMutability": "nonpayable",
					"type": "function"
				}
			],
			"devdoc": {
				"kind": "dev",
				"methods": {},
				"version": 1
			},
			"evm": {
				"assembly": "    /* \"contracts/prac12.sol\":10238:11155  contract StatePersistence {... */\n  mstore(0x40, 0x80)\n    /* \"contracts/prac12.sol\":10484:10535  constructor() {... */\n  callvalue\n  dup1\n  iszero\n  tag_1\n  jumpi\n  revert(0x00, 0x00)\ntag_1:\n  pop\n    /* \"contracts/prac12.sol\":10517:10527  msg.sender */\n  caller\n    /* \"contracts/prac12.sol\":10509:10514  owner */\n  0x01\n  0x00\n    /* \"contracts/prac12.sol\":10509:10527  owner = msg.sender */\n  0x0100\n  exp\n  dup2\n  sload\n  dup2\n  0xffffffffffffffffffffffffffffffffffffffff\n  mul\n  not\n  and\n  swap1\n  dup4\n  0xffffffffffffffffffffffffffffffffffffffff\n  and\n  mul\n  or\n  swap1\n  sstore\n  pop\n    /* \"contracts/prac12.sol\":10238:11155  contract StatePersistence {... */\n  dataSize(sub_0)\n  dup1\n  dataOffset(sub_0)\n  0x00\n  codecopy\n  0x00\n  return\nstop\n\nsub_0: assembly {\n        /* \"contracts/prac12.sol\":10238:11155  contract StatePersistence {... */\n      mstore(0x40, 0x80)\n      callvalue\n      dup1\n      iszero\n      tag_1\n      jumpi\n      revert(0x00, 0x00)\n    tag_1:\n      pop\n      jumpi(tag_2, lt(calldatasize, 0x04))\n      shr(0xe0, calldataload(0x00))\n      dup1\n      0x61bc221a\n      eq\n      tag_3\n      jumpi\n      dup1\n      0x8ada066e\n      eq\n      tag_4\n      jumpi\n      dup1\n      0x8bb5d9c3\n      eq\n      tag_5\n      jumpi\n      dup1\n      0x8da5cb5b\n      eq\n      tag_6\n      jumpi\n      dup1\n      0xd09de08a\n      eq\n      tag_7\n      jumpi\n    tag_2:\n      revert(0x00, 0x00)\n        /* \"contracts/prac12.sol\":10313:10335  uint256 public counter */\n    tag_3:\n      tag_8\n      tag_9\n      jump\t// in\n    tag_8:\n      mload(0x40)\n      tag_10\n      swap2\n      swap1\n      tag_11\n      jump\t// in\n    tag_10:\n      mload(0x40)\n      dup1\n      swap2\n      sub\n      swap1\n      return\n        /* \"contracts/prac12.sol\":11031:11152  function getCounter() public view returns (uint256) {... */\n    tag_4:\n      tag_12\n      tag_13\n      jump\t// in\n    tag_12:\n      mload(0x40)\n      tag_14\n      swap2\n      swap1\n      tag_11\n      jump\t// in\n    tag_14:\n      mload(0x40)\n      dup1\n      swap2\n      sub\n      swap1\n      return\n        /* \"contracts/prac12.sol\":10780:11023  function setCounter(uint256 _value) public {... */\n    tag_5:\n      tag_15\n      0x04\n      dup1\n      calldatasize\n      sub\n      dup2\n      add\n      swap1\n      tag_16\n      swap2\n      swap1\n      tag_17\n      jump\t// in\n    tag_16:\n      tag_18\n      jump\t// in\n    tag_15:\n      stop\n        /* \"contracts/prac12.sol\":10403:10423  address public owner */\n    tag_6:\n      tag_19\n      tag_20\n      jump\t// in\n    tag_19:\n      mload(0x40)\n      tag_21\n      swap2\n      swap1\n      tag_22\n      jump\t// in\n    tag_21:\n      mload(0x40)\n      dup1\n      swap2\n      sub\n      swap1\n      return\n        /* \"contracts/prac12.sol\":10543:10772  function increment() public {... */\n    tag_7:\n      tag_23\n      tag_24\n      jump\t// in\n    tag_23:\n      stop\n        /* \"contracts/prac12.sol\":10313:10335  uint256 public counter */\n    tag_9:\n      sload(0x00)\n      dup2\n      jump\t// out\n        /* \"contracts/prac12.sol\":11031:11152  function getCounter() public view returns (uint256) {... */\n    tag_13:\n        /* \"contracts/prac12.sol\":11074:11081  uint256 */\n      0x00\n        /* \"contracts/prac12.sol\":11137:11144  counter */\n      sload(0x00)\n        /* \"contracts/prac12.sol\":11130:11144  return counter */\n      swap1\n      pop\n        /* \"contracts/prac12.sol\":11031:11152  function getCounter() public view returns (uint256) {... */\n      swap1\n      jump\t// out\n        /* \"contracts/prac12.sol\":10780:11023  function setCounter(uint256 _value) public {... */\n    tag_18:\n        /* \"contracts/prac12.sol\":10932:10937  owner */\n      0x01\n      0x00\n      swap1\n      sload\n      swap1\n      0x0100\n      exp\n      swap1\n      div\n      0xffffffffffffffffffffffffffffffffffffffff\n      and\n        /* \"contracts/prac12.sol\":10918:10937  msg.sender == owner */\n      0xffffffffffffffffffffffffffffffffffffffff\n      and\n        /* \"contracts/prac12.sol\":10918:10928  msg.sender */\n      caller\n        /* \"contracts/prac12.sol\":10918:10937  msg.sender == owner */\n      0xffffffffffffffffffffffffffffffffffffffff\n      and\n      eq\n        /* \"contracts/prac12.sol\":10909:10952  require( msg.sender == owner, \"Not owner\" ) */\n      tag_27\n      jumpi\n      mload(0x40)\n      0x08c379a000000000000000000000000000000000000000000000000000000000\n      dup2\n      mstore\n      0x04\n      add\n      tag_28\n      swap1\n      tag_29\n      jump\t// in\n    tag_28:\n      mload(0x40)\n      dup1\n      swap2\n      sub\n      swap1\n      revert\n    tag_27:\n        /* \"contracts/prac12.sol\":11009:11015  _value */\n      dup1\n        /* \"contracts/prac12.sol\":10999:11006  counter */\n      0x00\n        /* \"contracts/prac12.sol\":10999:11015  counter = _value */\n      dup2\n      swap1\n      sstore\n      pop\n        /* \"contracts/prac12.sol\":10780:11023  function setCounter(uint256 _value) public {... */\n      pop\n      jump\t// out\n        /* \"contracts/prac12.sol\":10403:10423  address public owner */\n    tag_20:\n      0x01\n      0x00\n      swap1\n      sload\n      swap1\n      0x0100\n      exp\n      swap1\n      div\n      0xffffffffffffffffffffffffffffffffffffffff\n      and\n      dup2\n      jump\t// out\n        /* \"contracts/prac12.sol\":10543:10772  function increment() public {... */\n    tag_24:\n        /* \"contracts/prac12.sol\":10675:10680  owner */\n      0x01\n      0x00\n      swap1\n      sload\n      swap1\n      0x0100\n      exp\n      swap1\n      div\n      0xffffffffffffffffffffffffffffffffffffffff\n      and\n        /* \"contracts/prac12.sol\":10661:10680  msg.sender == owner */\n      0xffffffffffffffffffffffffffffffffffffffff\n      and\n        /* \"contracts/prac12.sol\":10661:10671  msg.sender */\n      caller\n        /* \"contracts/prac12.sol\":10661:10680  msg.sender == owner */\n      0xffffffffffffffffffffffffffffffffffffffff\n      and\n      eq\n        /* \"contracts/prac12.sol\":10652:10695  require( msg.sender == owner, \"Not owner\" ) */\n      tag_31\n      jumpi\n      mload(0x40)\n      0x08c379a000000000000000000000000000000000000000000000000000000000\n      dup2\n      mstore\n      0x04\n      add\n      tag_32\n      swap1\n      tag_29\n      jump\t// in\n    tag_32:\n      mload(0x40)\n      dup1\n      swap2\n      sub\n      swap1\n      revert\n    tag_31:\n        /* \"contracts/prac12.sol\":10763:10764  1 */\n      0x01\n        /* \"contracts/prac12.sol\":10753:10760  counter */\n      sload(0x00)\n        /* \"contracts/prac12.sol\":10753:10764  counter + 1 */\n      tag_33\n      swap2\n      swap1\n      tag_34\n      jump\t// in\n    tag_33:\n        /* \"contracts/prac12.sol\":10743:10750  counter */\n      0x00\n        /* \"contracts/prac12.sol\":10743:10764  counter = counter + 1 */\n      dup2\n      swap1\n      sstore\n      pop\n        /* \"contracts/prac12.sol\":10543:10772  function increment() public {... */\n      jump\t// out\n        /* \"#utility.yul\":7:84   */\n    tag_35:\n        /* \"#utility.yul\":44:51   */\n      0x00\n        /* \"#utility.yul\":73:78   */\n      dup2\n        /* \"#utility.yul\":62:78   */\n      swap1\n      pop\n        /* \"#utility.yul\":7:84   */\n      swap2\n      swap1\n      pop\n      jump\t// out\n        /* \"#utility.yul\":90:208   */\n    tag_36:\n        /* \"#utility.yul\":177:201   */\n      tag_52\n        /* \"#utility.yul\":195:200   */\n      dup2\n        /* \"#utility.yul\":177:201   */\n      tag_35\n      jump\t// in\n    tag_52:\n        /* \"#utility.yul\":172:175   */\n      dup3\n        /* \"#utility.yul\":165:202   */\n      mstore\n        /* \"#utility.yul\":90:208   */\n      pop\n      pop\n      jump\t// out\n        /* \"#utility.yul\":214:436   */\n    tag_11:\n        /* \"#utility.yul\":307:311   */\n      0x00\n        /* \"#utility.yul\":345:347   */\n      0x20\n        /* \"#utility.yul\":334:343   */\n      dup3\n        /* \"#utility.yul\":330:348   */\n      add\n        /* \"#utility.yul\":322:348   */\n      swap1\n      pop\n        /* \"#utility.yul\":358:429   */\n      tag_54\n        /* \"#utility.yul\":426:427   */\n      0x00\n        /* \"#utility.yul\":415:424   */\n      dup4\n        /* \"#utility.yul\":411:428   */\n      add\n        /* \"#utility.yul\":402:408   */\n      dup5\n        /* \"#utility.yul\":358:429   */\n      tag_36\n      jump\t// in\n    tag_54:\n        /* \"#utility.yul\":214:436   */\n      swap3\n      swap2\n      pop\n      pop\n      jump\t// out\n        /* \"#utility.yul\":523:640   */\n    tag_38:\n        /* \"#utility.yul\":632:633   */\n      0x00\n        /* \"#utility.yul\":629:630   */\n      0x00\n        /* \"#utility.yul\":622:634   */\n      revert\n        /* \"#utility.yul\":769:891   */\n    tag_40:\n        /* \"#utility.yul\":842:866   */\n      tag_59\n        /* \"#utility.yul\":860:865   */\n      dup2\n        /* \"#utility.yul\":842:866   */\n      tag_35\n      jump\t// in\n    tag_59:\n        /* \"#utility.yul\":835:840   */\n      dup2\n        /* \"#utility.yul\":832:867   */\n      eq\n        /* \"#utility.yul\":822:885   */\n      tag_60\n      jumpi\n        /* \"#utility.yul\":881:882   */\n      0x00\n        /* \"#utility.yul\":878:879   */\n      0x00\n        /* \"#utility.yul\":871:883   */\n      revert\n        /* \"#utility.yul\":822:885   */\n    tag_60:\n        /* \"#utility.yul\":769:891   */\n      pop\n      jump\t// out\n        /* \"#utility.yul\":897:1036   */\n    tag_41:\n        /* \"#utility.yul\":943:948   */\n      0x00\n        /* \"#utility.yul\":981:987   */\n      dup2\n        /* \"#utility.yul\":968:988   */\n      calldataload\n        /* \"#utility.yul\":959:988   */\n      swap1\n      pop\n        /* \"#utility.yul\":997:1030   */\n      tag_62\n        /* \"#utility.yul\":1024:1029   */\n      dup2\n        /* \"#utility.yul\":997:1030   */\n      tag_40\n      jump\t// in\n    tag_62:\n        /* \"#utility.yul\":897:1036   */\n      swap3\n      swap2\n      pop\n      pop\n      jump\t// out\n        /* \"#utility.yul\":1042:1371   */\n    tag_17:\n        /* \"#utility.yul\":1101:1107   */\n      0x00\n        /* \"#utility.yul\":1150:1152   */\n      0x20\n        /* \"#utility.yul\":1138:1147   */\n      dup3\n        /* \"#utility.yul\":1129:1136   */\n      dup5\n        /* \"#utility.yul\":1125:1148   */\n      sub\n        /* \"#utility.yul\":1121:1153   */\n      slt\n        /* \"#utility.yul\":1118:1237   */\n      iszero\n      tag_64\n      jumpi\n        /* \"#utility.yul\":1156:1235   */\n      tag_65\n      tag_38\n      jump\t// in\n    tag_65:\n        /* \"#utility.yul\":1118:1237   */\n    tag_64:\n        /* \"#utility.yul\":1276:1277   */\n      0x00\n        /* \"#utility.yul\":1301:1354   */\n      tag_66\n        /* \"#utility.yul\":1346:1353   */\n      dup5\n        /* \"#utility.yul\":1337:1343   */\n      dup3\n        /* \"#utility.yul\":1326:1335   */\n      dup6\n        /* \"#utility.yul\":1322:1344   */\n      add\n        /* \"#utility.yul\":1301:1354   */\n      tag_41\n      jump\t// in\n    tag_66:\n        /* \"#utility.yul\":1291:1354   */\n      swap2\n      pop\n        /* \"#utility.yul\":1247:1364   */\n      pop\n        /* \"#utility.yul\":1042:1371   */\n      swap3\n      swap2\n      pop\n      pop\n      jump\t// out\n        /* \"#utility.yul\":1377:1503   */\n    tag_42:\n        /* \"#utility.yul\":1414:1421   */\n      0x00\n        /* \"#utility.yul\":1454:1496   */\n      0xffffffffffffffffffffffffffffffffffffffff\n        /* \"#utility.yul\":1447:1452   */\n      dup3\n        /* \"#utility.yul\":1443:1497   */\n      and\n        /* \"#utility.yul\":1432:1497   */\n      swap1\n      pop\n        /* \"#utility.yul\":1377:1503   */\n      swap2\n      swap1\n      pop\n      jump\t// out\n        /* \"#utility.yul\":1509:1605   */\n    tag_43:\n        /* \"#utility.yul\":1546:1553   */\n      0x00\n        /* \"#utility.yul\":1575:1599   */\n      tag_69\n        /* \"#utility.yul\":1593:1598   */\n      dup3\n        /* \"#utility.yul\":1575:1599   */\n      tag_42\n      jump\t// in\n    tag_69:\n        /* \"#utility.yul\":1564:1599   */\n      swap1\n      pop\n        /* \"#utility.yul\":1509:1605   */\n      swap2\n      swap1\n      pop\n      jump\t// out\n        /* \"#utility.yul\":1611:1729   */\n    tag_44:\n        /* \"#utility.yul\":1698:1722   */\n      tag_71\n        /* \"#utility.yul\":1716:1721   */\n      dup2\n        /* \"#utility.yul\":1698:1722   */\n      tag_43\n      jump\t// in\n    tag_71:\n        /* \"#utility.yul\":1693:1696   */\n      dup3\n        /* \"#utility.yul\":1686:1723   */\n      mstore\n        /* \"#utility.yul\":1611:1729   */\n      pop\n      pop\n      jump\t// out\n        /* \"#utility.yul\":1735:1957   */\n    tag_22:\n        /* \"#utility.yul\":1828:1832   */\n      0x00\n        /* \"#utility.yul\":1866:1868   */\n      0x20\n        /* \"#utility.yul\":1855:1864   */\n      dup3\n        /* \"#utility.yul\":1851:1869   */\n      add\n        /* \"#utility.yul\":1843:1869   */\n      swap1\n      pop\n        /* \"#utility.yul\":1879:1950   */\n      tag_73\n        /* \"#utility.yul\":1947:1948   */\n      0x00\n        /* \"#utility.yul\":1936:1945   */\n      dup4\n        /* \"#utility.yul\":1932:1949   */\n      add\n        /* \"#utility.yul\":1923:1929   */\n      dup5\n        /* \"#utility.yul\":1879:1950   */\n      tag_44\n      jump\t// in\n    tag_73:\n        /* \"#utility.yul\":1735:1957   */\n      swap3\n      swap2\n      pop\n      pop\n      jump\t// out\n        /* \"#utility.yul\":1963:2132   */\n    tag_45:\n        /* \"#utility.yul\":2047:2058   */\n      0x00\n        /* \"#utility.yul\":2081:2087   */\n      dup3\n        /* \"#utility.yul\":2076:2079   */\n      dup3\n        /* \"#utility.yul\":2069:2088   */\n      mstore\n        /* \"#utility.yul\":2121:2125   */\n      0x20\n        /* \"#utility.yul\":2116:2119   */\n      dup3\n        /* \"#utility.yul\":2112:2126   */\n      add\n        /* \"#utility.yul\":2097:2126   */\n      swap1\n      pop\n        /* \"#utility.yul\":1963:2132   */\n      swap3\n      swap2\n      pop\n      pop\n      jump\t// out\n        /* \"#utility.yul\":2138:2297   */\n    tag_46:\n        /* \"#utility.yul\":2278:2289   */\n      0x4e6f74206f776e65720000000000000000000000000000000000000000000000\n        /* \"#utility.yul\":2274:2275   */\n      0x00\n        /* \"#utility.yul\":2266:2272   */\n      dup3\n        /* \"#utility.yul\":2262:2276   */\n      add\n        /* \"#utility.yul\":2255:2290   */\n      mstore\n        /* \"#utility.yul\":2138:2297   */\n      pop\n      jump\t// out\n        /* \"#utility.yul\":2303:2668   */\n    tag_47:\n        /* \"#utility.yul\":2445:2448   */\n      0x00\n        /* \"#utility.yul\":2466:2532   */\n      tag_77\n        /* \"#utility.yul\":2530:2531   */\n      0x09\n        /* \"#utility.yul\":2525:2528   */\n      dup4\n        /* \"#utility.yul\":2466:2532   */\n      tag_45\n      jump\t// in\n    tag_77:\n        /* \"#utility.yul\":2459:2532   */\n      swap2\n      pop\n        /* \"#utility.yul\":2541:2634   */\n      tag_78\n        /* \"#utility.yul\":2630:2633   */\n      dup3\n        /* \"#utility.yul\":2541:2634   */\n      tag_46\n      jump\t// in\n    tag_78:\n        /* \"#utility.yul\":2659:2661   */\n      0x20\n        /* \"#utility.yul\":2654:2657   */\n      dup3\n        /* \"#utility.yul\":2650:2662   */\n      add\n        /* \"#utility.yul\":2643:2662   */\n      swap1\n      pop\n        /* \"#utility.yul\":2303:2668   */\n      swap2\n      swap1\n      pop\n      jump\t// out\n        /* \"#utility.yul\":2674:3093   */\n    tag_29:\n        /* \"#utility.yul\":2840:2844   */\n      0x00\n        /* \"#utility.yul\":2878:2880   */\n      0x20\n        /* \"#utility.yul\":2867:2876   */\n      dup3\n        /* \"#utility.yul\":2863:2881   */\n      add\n        /* \"#utility.yul\":2855:2881   */\n      swap1\n      pop\n        /* \"#utility.yul\":2927:2936   */\n      dup2\n        /* \"#utility.yul\":2921:2925   */\n      dup2\n        /* \"#utility.yul\":2917:2937   */\n      sub\n        /* \"#utility.yul\":2913:2914   */\n      0x00\n        /* \"#utility.yul\":2902:2911   */\n      dup4\n        /* \"#utility.yul\":2898:2915   */\n      add\n        /* \"#utility.yul\":2891:2938   */\n      mstore\n        /* \"#utility.yul\":2955:3086   */\n      tag_80\n        /* \"#utility.yul\":3081:3085   */\n      dup2\n        /* \"#utility.yul\":2955:3086   */\n      tag_47\n      jump\t// in\n    tag_80:\n        /* \"#utility.yul\":2947:3086   */\n      swap1\n      pop\n        /* \"#utility.yul\":2674:3093   */\n      swap2\n      swap1\n      pop\n      jump\t// out\n        /* \"#utility.yul\":3099:3279   */\n    tag_48:\n        /* \"#utility.yul\":3147:3224   */\n      0x4e487b7100000000000000000000000000000000000000000000000000000000\n        /* \"#utility.yul\":3144:3145   */\n      0x00\n        /* \"#utility.yul\":3137:3225   */\n      mstore\n        /* \"#utility.yul\":3244:3248   */\n      0x11\n        /* \"#utility.yul\":3241:3242   */\n      0x04\n        /* \"#utility.yul\":3234:3249   */\n      mstore\n        /* \"#utility.yul\":3268:3272   */\n      0x24\n        /* \"#utility.yul\":3265:3266   */\n      0x00\n        /* \"#utility.yul\":3258:3273   */\n      revert\n        /* \"#utility.yul\":3285:3476   */\n    tag_34:\n        /* \"#utility.yul\":3325:3328   */\n      0x00\n        /* \"#utility.yul\":3344:3364   */\n      tag_83\n        /* \"#utility.yul\":3362:3363   */\n      dup3\n        /* \"#utility.yul\":3344:3364   */\n      tag_35\n      jump\t// in\n    tag_83:\n        /* \"#utility.yul\":3339:3364   */\n      swap2\n      pop\n        /* \"#utility.yul\":3378:3398   */\n      tag_84\n        /* \"#utility.yul\":3396:3397   */\n      dup4\n        /* \"#utility.yul\":3378:3398   */\n      tag_35\n      jump\t// in\n    tag_84:\n        /* \"#utility.yul\":3373:3398   */\n      swap3\n      pop\n        /* \"#utility.yul\":3421:3422   */\n      dup3\n        /* \"#utility.yul\":3418:3419   */\n      dup3\n        /* \"#utility.yul\":3414:3423   */\n      add\n        /* \"#utility.yul\":3407:3423   */\n      swap1\n      pop\n        /* \"#utility.yul\":3442:3445   */\n      dup1\n        /* \"#utility.yul\":3439:3440   */\n      dup3\n        /* \"#utility.yul\":3436:3446   */\n      gt\n        /* \"#utility.yul\":3433:3469   */\n      iszero\n      tag_85\n      jumpi\n        /* \"#utility.yul\":3449:3467   */\n      tag_86\n      tag_48\n      jump\t// in\n    tag_86:\n        /* \"#utility.yul\":3433:3469   */\n    tag_85:\n        /* \"#utility.yul\":3285:3476   */\n      swap3\n      swap2\n      pop\n      pop\n      jump\t// out\n\n    auxdata: 0xa26469706673582212208b0bfe40795dc5d95954e951cce7962d0b0b30ff57a11cee24d1aec04ba4da1064736f6c63430008220033\n}\n",
				"bytecode": {
					"linkReferences": {},
					"object": "6080604052348015600e575f5ffd5b503360015f6101000a81548173ffffffffffffffffffffffffffffffffffffffff021916908373ffffffffffffffffffffffffffffffffffffffff1602179055506104378061005c5f395ff3fe608060405234801561000f575f5ffd5b5060043610610055575f3560e01c806361bc221a146100595780638ada066e146100775780638bb5d9c3146100955780638da5cb5b146100b1578063d09de08a146100cf575b5f5ffd5b6100616100d9565b60405161006e919061025f565b60405180910390f35b61007f6100de565b60405161008c919061025f565b60405180910390f35b6100af60048036038101906100aa91906102a6565b6100e6565b005b6100b961017e565b6040516100c69190610310565b60405180910390f35b6100d76101a3565b005b5f5481565b5f5f54905090565b60015f9054906101000a900473ffffffffffffffffffffffffffffffffffffffff1673ffffffffffffffffffffffffffffffffffffffff163373ffffffffffffffffffffffffffffffffffffffff1614610175576040517f08c379a000000000000000000000000000000000000000000000000000000000815260040161016c90610383565b60405180910390fd5b805f8190555050565b60015f9054906101000a900473ffffffffffffffffffffffffffffffffffffffff1681565b60015f9054906101000a900473ffffffffffffffffffffffffffffffffffffffff1673ffffffffffffffffffffffffffffffffffffffff163373ffffffffffffffffffffffffffffffffffffffff1614610232576040517f08c379a000000000000000000000000000000000000000000000000000000000815260040161022990610383565b60405180910390fd5b60015f5461024091906103ce565b5f81905550565b5f819050919050565b61025981610247565b82525050565b5f6020820190506102725f830184610250565b92915050565b5f5ffd5b61028581610247565b811461028f575f5ffd5b50565b5f813590506102a08161027c565b92915050565b5f602082840312156102bb576102ba610278565b5b5f6102c884828501610292565b91505092915050565b5f73ffffffffffffffffffffffffffffffffffffffff82169050919050565b5f6102fa826102d1565b9050919050565b61030a816102f0565b82525050565b5f6020820190506103235f830184610301565b92915050565b5f82825260208201905092915050565b7f4e6f74206f776e657200000000000000000000000000000000000000000000005f82015250565b5f61036d600983610329565b915061037882610339565b602082019050919050565b5f6020820190508181035f83015261039a81610361565b9050919050565b7f4e487b71000000000000000000000000000000000000000000000000000000005f52601160045260245ffd5b5f6103d882610247565b91506103e383610247565b92508282019050808211156103fb576103fa6103a1565b5b9291505056fea26469706673582212208b0bfe40795dc5d95954e951cce7962d0b0b30ff57a11cee24d1aec04ba4da1064736f6c63430008220033",
					"opcodes": "PUSH1 0x80 PUSH1 0x40 MSTORE CALLVALUE DUP1 ISZERO PUSH1 0xE JUMPI PUSH0 PUSH0 REVERT JUMPDEST POP CALLER PUSH1 0x1 PUSH0 PUSH2 0x100 EXP DUP2 SLOAD DUP2 PUSH20 0xFFFFFFFFFFFFFFFFFFFFFFFFFFFFFFFFFFFFFFFF MUL NOT AND SWAP1 DUP4 PUSH20 0xFFFFFFFFFFFFFFFFFFFFFFFFFFFFFFFFFFFFFFFF AND MUL OR SWAP1 SSTORE POP PUSH2 0x437 DUP1 PUSH2 0x5C PUSH0 CODECOPY PUSH0 RETURN INVALID PUSH1 0x80 PUSH1 0x40 MSTORE CALLVALUE DUP1 ISZERO PUSH2 0xF JUMPI PUSH0 PUSH0 REVERT JUMPDEST POP PUSH1 0x4 CALLDATASIZE LT PUSH2 0x55 JUMPI PUSH0 CALLDATALOAD PUSH1 0xE0 SHR DUP1 PUSH4 0x61BC221A EQ PUSH2 0x59 JUMPI DUP1 PUSH4 0x8ADA066E EQ PUSH2 0x77 JUMPI DUP1 PUSH4 0x8BB5D9C3 EQ PUSH2 0x95 JUMPI DUP1 PUSH4 0x8DA5CB5B EQ PUSH2 0xB1 JUMPI DUP1 PUSH4 0xD09DE08A EQ PUSH2 0xCF JUMPI JUMPDEST PUSH0 PUSH0 REVERT JUMPDEST PUSH2 0x61 PUSH2 0xD9 JUMP JUMPDEST PUSH1 0x40 MLOAD PUSH2 0x6E SWAP2 SWAP1 PUSH2 0x25F JUMP JUMPDEST PUSH1 0x40 MLOAD DUP1 SWAP2 SUB SWAP1 RETURN JUMPDEST PUSH2 0x7F PUSH2 0xDE JUMP JUMPDEST PUSH1 0x40 MLOAD PUSH2 0x8C SWAP2 SWAP1 PUSH2 0x25F JUMP JUMPDEST PUSH1 0x40 MLOAD DUP1 SWAP2 SUB SWAP1 RETURN JUMPDEST PUSH2 0xAF PUSH1 0x4 DUP1 CALLDATASIZE SUB DUP2 ADD SWAP1 PUSH2 0xAA SWAP2 SWAP1 PUSH2 0x2A6 JUMP JUMPDEST PUSH2 0xE6 JUMP JUMPDEST STOP JUMPDEST PUSH2 0xB9 PUSH2 0x17E JUMP JUMPDEST PUSH1 0x40 MLOAD PUSH2 0xC6 SWAP2 SWAP1 PUSH2 0x310 JUMP JUMPDEST PUSH1 0x40 MLOAD DUP1 SWAP2 SUB SWAP1 RETURN JUMPDEST PUSH2 0xD7 PUSH2 0x1A3 JUMP JUMPDEST STOP JUMPDEST PUSH0 SLOAD DUP2 JUMP JUMPDEST PUSH0 PUSH0 SLOAD SWAP1 POP SWAP1 JUMP JUMPDEST PUSH1 0x1 PUSH0 SWAP1 SLOAD SWAP1 PUSH2 0x100 EXP SWAP1 DIV PUSH20 0xFFFFFFFFFFFFFFFFFFFFFFFFFFFFFFFFFFFFFFFF AND PUSH20 0xFFFFFFFFFFFFFFFFFFFFFFFFFFFFFFFFFFFFFFFF AND CALLER PUSH20 0xFFFFFFFFFFFFFFFFFFFFFFFFFFFFFFFFFFFFFFFF AND EQ PUSH2 0x175 JUMPI PUSH1 0x40 MLOAD PUSH32 0x8C379A000000000000000000000000000000000000000000000000000000000 DUP2 MSTORE PUSH1 0x4 ADD PUSH2 0x16C SWAP1 PUSH2 0x383 JUMP JUMPDEST PUSH1 0x40 MLOAD DUP1 SWAP2 SUB SWAP1 REVERT JUMPDEST DUP1 PUSH0 DUP2 SWAP1 SSTORE POP POP JUMP JUMPDEST PUSH1 0x1 PUSH0 SWAP1 SLOAD SWAP1 PUSH2 0x100 EXP SWAP1 DIV PUSH20 0xFFFFFFFFFFFFFFFFFFFFFFFFFFFFFFFFFFFFFFFF AND DUP2 JUMP JUMPDEST PUSH1 0x1 PUSH0 SWAP1 SLOAD SWAP1 PUSH2 0x100 EXP SWAP1 DIV PUSH20 0xFFFFFFFFFFFFFFFFFFFFFFFFFFFFFFFFFFFFFFFF AND PUSH20 0xFFFFFFFFFFFFFFFFFFFFFFFFFFFFFFFFFFFFFFFF AND CALLER PUSH20 0xFFFFFFFFFFFFFFFFFFFFFFFFFFFFFFFFFFFFFFFF AND EQ PUSH2 0x232 JUMPI PUSH1 0x40 MLOAD PUSH32 0x8C379A000000000000000000000000000000000000000000000000000000000 DUP2 MSTORE PUSH1 0x4 ADD PUSH2 0x229 SWAP1 PUSH2 0x383 JUMP JUMPDEST PUSH1 0x40 MLOAD DUP1 SWAP2 SUB SWAP1 REVERT JUMPDEST PUSH1 0x1 PUSH0 SLOAD PUSH2 0x240 SWAP2 SWAP1 PUSH2 0x3CE JUMP JUMPDEST PUSH0 DUP2 SWAP1 SSTORE POP JUMP JUMPDEST PUSH0 DUP2 SWAP1 POP SWAP2 SWAP1 POP JUMP JUMPDEST PUSH2 0x259 DUP2 PUSH2 0x247 JUMP JUMPDEST DUP3 MSTORE POP POP JUMP JUMPDEST PUSH0 PUSH1 0x20 DUP3 ADD SWAP1 POP PUSH2 0x272 PUSH0 DUP4 ADD DUP5 PUSH2 0x250 JUMP JUMPDEST SWAP3 SWAP2 POP POP JUMP JUMPDEST PUSH0 PUSH0 REVERT JUMPDEST PUSH2 0x285 DUP2 PUSH2 0x247 JUMP JUMPDEST DUP2 EQ PUSH2 0x28F JUMPI PUSH0 PUSH0 REVERT JUMPDEST POP JUMP JUMPDEST PUSH0 DUP2 CALLDATALOAD SWAP1 POP PUSH2 0x2A0 DUP2 PUSH2 0x27C JUMP JUMPDEST SWAP3 SWAP2 POP POP JUMP JUMPDEST PUSH0 PUSH1 0x20 DUP3 DUP5 SUB SLT ISZERO PUSH2 0x2BB JUMPI PUSH2 0x2BA PUSH2 0x278 JUMP JUMPDEST JUMPDEST PUSH0 PUSH2 0x2C8 DUP5 DUP3 DUP6 ADD PUSH2 0x292 JUMP JUMPDEST SWAP2 POP POP SWAP3 SWAP2 POP POP JUMP JUMPDEST PUSH0 PUSH20 0xFFFFFFFFFFFFFFFFFFFFFFFFFFFFFFFFFFFFFFFF DUP3 AND SWAP1 POP SWAP2 SWAP1 POP JUMP JUMPDEST PUSH0 PUSH2 0x2FA DUP3 PUSH2 0x2D1 JUMP JUMPDEST SWAP1 POP SWAP2 SWAP1 POP JUMP JUMPDEST PUSH2 0x30A DUP2 PUSH2 0x2F0 JUMP JUMPDEST DUP3 MSTORE POP POP JUMP JUMPDEST PUSH0 PUSH1 0x20 DUP3 ADD SWAP1 POP PUSH2 0x323 PUSH0 DUP4 ADD DUP5 PUSH2 0x301 JUMP JUMPDEST SWAP3 SWAP2 POP POP JUMP JUMPDEST PUSH0 DUP3 DUP3 MSTORE PUSH1 0x20 DUP3 ADD SWAP1 POP SWAP3 SWAP2 POP POP JUMP JUMPDEST PUSH32 0x4E6F74206F776E65720000000000000000000000000000000000000000000000 PUSH0 DUP3 ADD MSTORE POP JUMP JUMPDEST PUSH0 PUSH2 0x36D PUSH1 0x9 DUP4 PUSH2 0x329 JUMP JUMPDEST SWAP2 POP PUSH2 0x378 DUP3 PUSH2 0x339 JUMP JUMPDEST PUSH1 0x20 DUP3 ADD SWAP1 POP SWAP2 SWAP1 POP JUMP JUMPDEST PUSH0 PUSH1 0x20 DUP3 ADD SWAP1 POP DUP2 DUP2 SUB PUSH0 DUP4 ADD MSTORE PUSH2 0x39A DUP2 PUSH2 0x361 JUMP JUMPDEST SWAP1 POP SWAP2 SWAP1 POP JUMP JUMPDEST PUSH32 0x4E487B7100000000000000000000000000000000000000000000000000000000 PUSH0 MSTORE PUSH1 0x11 PUSH1 0x4 MSTORE PUSH1 0x24 PUSH0 REVERT JUMPDEST PUSH0 PUSH2 0x3D8 DUP3 PUSH2 0x247 JUMP JUMPDEST SWAP2 POP PUSH2 0x3E3 DUP4 PUSH2 0x247 JUMP JUMPDEST SWAP3 POP DUP3 DUP3 ADD SWAP1 POP DUP1 DUP3 GT ISZERO PUSH2 0x3FB JUMPI PUSH2 0x3FA PUSH2 0x3A1 JUMP JUMPDEST JUMPDEST SWAP3 SWAP2 POP POP JUMP INVALID LOG2 PUSH5 0x6970667358 0x22 SLT KECCAK256 DUP12 SIGNEXTEND INVALID BLOCKHASH PUSH26 0x5DC5D95954E951CCE7962D0B0B30FF57A11CEE24D1AEC04BA4DA LT PUSH5 0x736F6C6343 STOP ADDMOD 0x22 STOP CALLER "
				},
				"gasEstimates": {
					"creation": {
						"codeDepositCost": "215800",
						"executionCost": "24520",
						"totalCost": "240320"
					},
					"external": {
						"counter()": "2402",
						"getCounter()": "2431",
						"increment()": "infinite",
						"owner()": "2552",
						"setCounter(uint256)": "24705"
					}
				},
				"methodIdentifiers": {
					"counter()": "61bc221a",
					"getCounter()": "8ada066e",
					"increment()": "d09de08a",
					"owner()": "8da5cb5b",
					"setCounter(uint256)": "8bb5d9c3"
				}
			},
			"storageLayout": {
				"storage": [
					{
						"astId": 34,
						"contract": "contracts/prac12.sol:StatePersistence",
						"label": "counter",
						"offset": 0,
						"slot": "0",
						"type": "t_uint256"
					},
					{
						"astId": 36,
						"contract": "contracts/prac12.sol:StatePersistence",
						"label": "owner",
						"offset": 0,
						"slot": "1",
						"type": "t_address"
					}
				],
				"types": {
					"t_address": {
						"encoding": "inplace",
						"label": "address",
						"numberOfBytes": "20"
					},
					"t_uint256": {
						"encoding": "inplace",
						"label": "uint256",
						"numberOfBytes": "32"
					}
				}
			},
			"userdoc": {
				"kind": "user",
				"methods": {},
				"version": 1
			}
		}
	}
}