{
	"contracts/prac4.sol": {
		"StoreBoolean": {
			"abi": [
				{
					"inputs": [],
					"name": "getStatus",
					"outputs": [
						{
							"internalType": "bool",
							"name": "",
							"type": "bool"
						}
					],
					"stateMutability": "view",
					"type": "function"
				},
				{
					"inputs": [],
					"name": "isActive",
					"outputs": [
						{
							"internalType": "bool",
							"name": "",
							"type": "bool"
						}
					],
					"stateMutability": "view",
					"type": "function"
				},
				{
					"inputs": [
						{
							"internalType": "bool",
							"name": "_status",
							"type": "bool"
						}
					],
					"name": "setStatus",
					"outputs": [],
					"stateMutability": "nonpayable",
					"type": "function"
				},
				{
					"inputs": [],
					"name": "toggleStatus",
					"outputs": [],
					"stateMutability": "nonpayable",
					"type": "function"
				}
			],
			"devdoc": {
				"kind": "dev",
				"methods": {},
				"version": 1
			},
			"evm": {
				"assembly": "    /* \"contracts/prac4.sol\":6125:6432  contract StoreBoolean {... */\n  mstore(0x40, 0x80)\n  callvalue\n  dup1\n  iszero\n  tag_1\n  jumpi\n  revert(0x00, 0x00)\ntag_1:\n  pop\n  dataSize(sub_0)\n  dup1\n  dataOffset(sub_0)\n  0x00\n  codecopy\n  0x00\n  return\nstop\n\nsub_0: assembly {\n        /* \"contracts/prac4.sol\":6125:6432  contract StoreBoolean {... */\n      mstore(0x40, 0x80)\n      callvalue\n      dup1\n      iszero\n      tag_1\n      jumpi\n      revert(0x00, 0x00)\n    tag_1:\n      pop\n      jumpi(tag_2, lt(calldatasize, 0x04))\n      shr(0xe0, calldataload(0x00))\n      dup1\n      0x22f3e2d4\n      eq\n      tag_3\n      jumpi\n      dup1\n      0x4e69d560\n      eq\n      tag_4\n      jumpi\n      dup1\n      0x5c40f6f4\n      eq\n      tag_5\n      jumpi\n      dup1\n      0xc02857bd\n      eq\n      tag_6\n      jumpi\n    tag_2:\n      revert(0x00, 0x00)\n        /* \"contracts/prac4.sol\":6156:6176  bool public isActive */\n    tag_3:\n      tag_7\n      tag_8\n      jump\t// in\n    tag_7:\n      mload(0x40)\n      tag_9\n      swap2\n      swap1\n      tag_10\n      jump\t// in\n    tag_9:\n      mload(0x40)\n      dup1\n      swap2\n      sub\n      swap1\n      return\n        /* \"contracts/prac4.sol\":6347:6429  function getStatus() public view returns (bool) {... */\n    tag_4:\n      tag_11\n      tag_12\n      jump\t// in\n    tag_11:\n      mload(0x40)\n      tag_13\n      swap2\n      swap1\n      tag_10\n      jump\t// in\n    tag_13:\n      mload(0x40)\n      dup1\n      swap2\n      sub\n      swap1\n      return\n        /* \"contracts/prac4.sol\":6185:6262  function setStatus(bool _status) public {... */\n    tag_5:\n      tag_14\n      0x04\n      dup1\n      calldatasize\n      sub\n      dup2\n      add\n      swap1\n      tag_15\n      swap2\n      swap1\n      tag_16\n      jump\t// in\n    tag_15:\n      tag_17\n      jump\t// in\n    tag_14:\n      stop\n        /* \"contracts/prac4.sol\":6270:6339  function toggleStatus() public{... */\n    tag_6:\n      tag_18\n      tag_19\n      jump\t// in\n    tag_18:\n      stop\n        /* \"contracts/prac4.sol\":6156:6176  bool public isActive */\n    tag_8:\n      0x00\n      0x00\n      swap1\n      sload\n      swap1\n      0x0100\n      exp\n      swap1\n      div\n      0xff\n      and\n      dup2\n      jump\t// out\n        /* \"contracts/prac4.sol\":6347:6429  function getStatus() public view returns (bool) {... */\n    tag_12:\n        /* \"contracts/prac4.sol\":6389:6393  bool */\n      0x00\n        /* \"contracts/prac4.sol\":6413:6421  isActive */\n      0x00\n      0x00\n      swap1\n      sload\n      swap1\n      0x0100\n      exp\n      swap1\n      div\n      0xff\n      and\n        /* \"contracts/prac4.sol\":6406:6421  return isActive */\n      swap1\n      pop\n        /* \"contracts/prac4.sol\":6347:6429  function getStatus() public view returns (bool) {... */\n      swap1\n      jump\t// out\n        /* \"contracts/prac4.sol\":6185:6262  function setStatus(bool _status) public {... */\n    tag_17:\n        /* \"contracts/prac4.sol\":6247:6254  _status */\n      dup1\n        /* \"contracts/prac4.sol\":6236:6244  isActive */\n      0x00\n      0x00\n        /* \"contracts/prac4.sol\":6236:6254  isActive = _status */\n      0x0100\n      exp\n      dup2\n      sload\n      dup2\n      0xff\n      mul\n      not\n      and\n      swap1\n      dup4\n      iszero\n      iszero\n      mul\n      or\n      swap1\n      sstore\n      pop\n        /* \"contracts/prac4.sol\":6185:6262  function setStatus(bool _status) public {... */\n      pop\n      jump\t// out\n        /* \"contracts/prac4.sol\":6270:6339  function toggleStatus() public{... */\n    tag_19:\n        /* \"contracts/prac4.sol\":6323:6331  isActive */\n      0x00\n      0x00\n      swap1\n      sload\n      swap1\n      0x0100\n      exp\n      swap1\n      div\n      0xff\n      and\n        /* \"contracts/prac4.sol\":6322:6331  !isActive */\n      iszero\n        /* \"contracts/prac4.sol\":6311:6319  isActive */\n      0x00\n      0x00\n        /* \"contracts/prac4.sol\":6311:6331  isActive = !isActive */\n      0x0100\n      exp\n      dup2\n      sload\n      dup2\n      0xff\n      mul\n      not\n      and\n      swap1\n      dup4\n      iszero\n      iszero\n      mul\n      or\n      swap1\n      sstore\n      pop\n        /* \"contracts/prac4.sol\":6270:6339  function toggleStatus() public{... */\n      jump\t// out\n        /* \"#utility.yul\":7:97   */\n    tag_23:\n        /* \"#utility.yul\":41:48   */\n      0x00\n        /* \"#utility.yul\":84:89   */\n      dup2\n        /* \"#utility.yul\":77:90   */\n      iszero\n        /* \"#utility.yul\":70:91   */\n      iszero\n        /* \"#utility.yul\":59:91   */\n      swap1\n      pop\n        /* \"#utility.yul\":7:97   */\n      swap2\n      swap1\n      pop\n      jump\t// out\n        /* \"#utility.yul\":103:212   */\n    tag_24:\n        /* \"#utility.yul\":184:205   */\n      tag_33\n        /* \"#utility.yul\":199:204   */\n      dup2\n        /* \"#utility.yul\":184:205   */\n      tag_23\n      jump\t// in\n    tag_33:\n        /* \"#utility.yul\":179:182   */\n      dup3\n        /* \"#utility.yul\":172:206   */\n      mstore\n        /* \"#utility.yul\":103:212   */\n      pop\n      pop\n      jump\t// out\n        /* \"#utility.yul\":218:428   */\n    tag_10:\n        /* \"#utility.yul\":305:309   */\n      0x00\n        /* \"#utility.yul\":343:345   */\n      0x20\n        /* \"#utility.yul\":332:341   */\n      dup3\n        /* \"#utility.yul\":328:346   */\n      add\n        /* \"#utility.yul\":320:346   */\n      swap1\n      pop\n        /* \"#utility.yul\":356:421   */\n      tag_35\n        /* \"#utility.yul\":418:419   */\n      0x00\n        /* \"#utility.yul\":407:416   */\n      dup4\n        /* \"#utility.yul\":403:420   */\n      add\n        /* \"#utility.yul\":394:400   */\n      dup5\n        /* \"#utility.yul\":356:421   */\n      tag_24\n      jump\t// in\n    tag_35:\n        /* \"#utility.yul\":218:428   */\n      swap3\n      swap2\n      pop\n      pop\n      jump\t// out\n        /* \"#utility.yul\":515:632   */\n    tag_26:\n        /* \"#utility.yul\":624:625   */\n      0x00\n        /* \"#utility.yul\":621:622   */\n      0x00\n        /* \"#utility.yul\":614:626   */\n      revert\n        /* \"#utility.yul\":761:877   */\n    tag_28:\n        /* \"#utility.yul\":831:852   */\n      tag_40\n        /* \"#utility.yul\":846:851   */\n      dup2\n        /* \"#utility.yul\":831:852   */\n      tag_23\n      jump\t// in\n    tag_40:\n        /* \"#utility.yul\":824:829   */\n      dup2\n        /* \"#utility.yul\":821:853   */\n      eq\n        /* \"#utility.yul\":811:871   */\n      tag_41\n      jumpi\n        /* \"#utility.yul\":867:868   */\n      0x00\n        /* \"#utility.yul\":864:865   */\n      0x00\n        /* \"#utility.yul\":857:869   */\n      revert\n        /* \"#utility.yul\":811:871   */\n    tag_41:\n        /* \"#utility.yul\":761:877   */\n      pop\n      jump\t// out\n        /* \"#utility.yul\":883:1016   */\n    tag_29:\n        /* \"#utility.yul\":926:931   */\n      0x00\n        /* \"#utility.yul\":964:970   */\n      dup2\n        /* \"#utility.yul\":951:971   */\n      calldataload\n        /* \"#utility.yul\":942:971   */\n      swap1\n      pop\n        /* \"#utility.yul\":980:1010   */\n      tag_43\n        /* \"#utility.yul\":1004:1009   */\n      dup2\n        /* \"#utility.yul\":980:1010   */\n      tag_28\n      jump\t// in\n    tag_43:\n        /* \"#utility.yul\":883:1016   */\n      swap3\n      swap2\n      pop\n      pop\n      jump\t// out\n        /* \"#utility.yul\":1022:1345   */\n    tag_16:\n        /* \"#utility.yul\":1078:1084   */\n      0x00\n        /* \"#utility.yul\":1127:1129   */\n      0x20\n        /* \"#utility.yul\":1115:1124   */\n      dup3\n        /* \"#utility.yul\":1106:1113   */\n      dup5\n        /* \"#utility.yul\":1102:1125   */\n      sub\n        /* \"#utility.yul\":1098:1130   */\n      slt\n        /* \"#utility.yul\":1095:1214   */\n      iszero\n      tag_45\n      jumpi\n        /* \"#utility.yul\":1133:1212   */\n      tag_46\n      tag_26\n      jump\t// in\n    tag_46:\n        /* \"#utility.yul\":1095:1214   */\n    tag_45:\n        /* \"#utility.yul\":1253:1254   */\n      0x00\n        /* \"#utility.yul\":1278:1328   */\n      tag_47\n        /* \"#utility.yul\":1320:1327   */\n      dup5\n        /* \"#utility.yul\":1311:1317   */\n      dup3\n        /* \"#utility.yul\":1300:1309   */\n      dup6\n        /* \"#utility.yul\":1296:1318   */\n      add\n        /* \"#utility.yul\":1278:1328   */\n      tag_29\n      jump\t// in\n    tag_47:\n        /* \"#utility.yul\":1268:1328   */\n      swap2\n      pop\n        /* \"#utility.yul\":1224:1338   */\n      pop\n        /* \"#utility.yul\":1022:1345   */\n      swap3\n      swap2\n      pop\n      pop\n      jump\t// out\n\n    auxdata: 0xa2646970667358221220c1f594d27ab49531d981e92060f1c1f3132e88fcb176080e3393c6cfa24722cb64736f6c63430008220033\n}\n",
				"bytecode": {
					"linkReferences": {},
					"object": "6080604052348015600e575f5ffd5b506101da8061001c5f395ff3fe608060405234801561000f575f5ffd5b506004361061004a575f3560e01c806322f3e2d41461004e5780634e69d5601461006c5780635c40f6f41461008a578063c02857bd146100a6575b5f5ffd5b6100566100b0565b6040516100639190610132565b60405180910390f35b6100746100c1565b6040516100819190610132565b60405180910390f35b6100a4600480360381019061009f9190610179565b6100d5565b005b6100ae6100f0565b005b5f5f9054906101000a900460ff1681565b5f5f5f9054906101000a900460ff16905090565b805f5f6101000a81548160ff02191690831515021790555050565b5f5f9054906101000a900460ff16155f5f6101000a81548160ff021916908315150217905550565b5f8115159050919050565b61012c81610118565b82525050565b5f6020820190506101455f830184610123565b92915050565b5f5ffd5b61015881610118565b8114610162575f5ffd5b50565b5f813590506101738161014f565b92915050565b5f6020828403121561018e5761018d61014b565b5b5f61019b84828501610165565b9150509291505056fea2646970667358221220c1f594d27ab49531d981e92060f1c1f3132e88fcb176080e3393c6cfa24722cb64736f6c63430008220033",
					"opcodes": "PUSH1 0x80 PUSH1 0x40 MSTORE CALLVALUE DUP1 ISZERO PUSH1 0xE JUMPI PUSH0 PUSH0 REVERT JUMPDEST POP PUSH2 0x1DA DUP1 PUSH2 0x1C PUSH0 CODECOPY PUSH0 RETURN INVALID PUSH1 0x80 PUSH1 0x40 MSTORE CALLVALUE DUP1 ISZERO PUSH2 0xF JUMPI PUSH0 PUSH0 REVERT JUMPDEST POP PUSH1 0x4 CALLDATASIZE LT PUSH2 0x4A JUMPI PUSH0 CALLDATALOAD PUSH1 0xE0 SHR DUP1 PUSH4 0x22F3E2D4 EQ PUSH2 0x4E JUMPI DUP1 PUSH4 0x4E69D560 EQ PUSH2 0x6C JUMPI DUP1 PUSH4 0x5C40F6F4 EQ PUSH2 0x8A JUMPI DUP1 PUSH4 0xC02857BD EQ PUSH2 0xA6 JUMPI JUMPDEST PUSH0 PUSH0 REVERT JUMPDEST PUSH2 0x56 PUSH2 0xB0 JUMP JUMPDEST PUSH1 0x40 MLOAD PUSH2 0x63 SWAP2 SWAP1 PUSH2 0x132 JUMP JUMPDEST PUSH1 0x40 MLOAD DUP1 SWAP2 SUB SWAP1 RETURN JUMPDEST PUSH2 0x74 PUSH2 0xC1 JUMP JUMPDEST PUSH1 0x40 MLOAD PUSH2 0x81 SWAP2 SWAP1 PUSH2 0x132 JUMP JUMPDEST PUSH1 0x40 MLOAD DUP1 SWAP2 SUB SWAP1 RETURN JUMPDEST PUSH2 0xA4 PUSH1 0x4 DUP1 CALLDATASIZE SUB DUP2 ADD SWAP1 PUSH2 0x9F SWAP2 SWAP1 PUSH2 0x179 JUMP JUMPDEST PUSH2 0xD5 JUMP JUMPDEST STOP JUMPDEST PUSH2 0xAE PUSH2 0xF0 JUMP JUMPDEST STOP JUMPDEST PUSH0 PUSH0 SWAP1 SLOAD SWAP1 PUSH2 0x100 EXP SWAP1 DIV PUSH1 0xFF AND DUP2 JUMP JUMPDEST PUSH0 PUSH0 PUSH0 SWAP1 SLOAD SWAP1 PUSH2 0x100 EXP SWAP1 DIV PUSH1 0xFF AND SWAP1 POP SWAP1 JUMP JUMPDEST DUP1 PUSH0 PUSH0 PUSH2 0x100 EXP DUP2 SLOAD DUP2 PUSH1 0xFF MUL NOT AND SWAP1 DUP4 ISZERO ISZERO MUL OR SWAP1 SSTORE POP POP JUMP JUMPDEST PUSH0 PUSH0 SWAP1 SLOAD SWAP1 PUSH2 0x100 EXP SWAP1 DIV PUSH1 0xFF AND ISZERO PUSH0 PUSH0 PUSH2 0x100 EXP DUP2 SLOAD DUP2 PUSH1 0xFF MUL NOT AND SWAP1 DUP4 ISZERO ISZERO MUL OR SWAP1 SSTORE POP JUMP JUMPDEST PUSH0 DUP2 ISZERO ISZERO SWAP1 POP SWAP2 SWAP1 POP JUMP JUMPDEST PUSH2 0x12C DUP2 PUSH2 0x118 JUMP JUMPDEST DUP3 MSTORE POP POP JUMP JUMPDEST PUSH0 PUSH1 0x20 DUP3 ADD SWAP1 POP PUSH2 0x145 PUSH0 DUP4 ADD DUP5 PUSH2 0x123 JUMP JUMPDEST SWAP3 SWAP2 POP POP JUMP JUMPDEST PUSH0 PUSH0 REVERT JUMPDEST PUSH2 0x158 DUP2 PUSH2 0x118 JUMP JUMPDEST DUP2 EQ PUSH2 0x162 JUMPI PUSH0 PUSH0 REVERT JUMPDEST POP JUMP JUMPDEST PUSH0 DUP2 CALLDATALOAD SWAP1 POP PUSH2 0x173 DUP2 PUSH2 0x14F JUMP JUMPDEST SWAP3 SWAP2 POP POP JUMP JUMPDEST PUSH0 PUSH1 0x20 DUP3 DUP5 SUB SLT ISZERO PUSH2 0x18E JUMPI PUSH2 0x18D PUSH2 0x14B JUMP JUMPDEST JUMPDEST PUSH0 PUSH2 0x19B DUP5 DUP3 DUP6 ADD PUSH2 0x165 JUMP JUMPDEST SWAP2 POP POP SWAP3 SWAP2 POP POP JUMP INVALID LOG2 PUSH5 0x6970667358 0x22 SLT KECCAK256 0xC1 CREATE2 SWAP5 0xD2 PUSH27 0xB49531D981E92060F1C1F3132E88FCB176080E3393C6CFA24722CB PUSH5 0x736F6C6343 STOP ADDMOD 0x22 STOP CALLER "
				},
				"gasEstimates": {
					"creation": {
						"codeDepositCost": "94800",
						"executionCost": "139",
						"totalCost": "94939"
					},
					"external": {
						"getStatus()": "2472",
						"isActive()": "2443",
						"setStatus(bool)": "24694",
						"toggleStatus()": "26589"
					}
				},
				"methodIdentifiers": {
					"getStatus()": "4e69d560",
					"isActive()": "22f3e2d4",
					"setStatus(bool)": "5c40f6f4",
					"toggleStatus()": "c02857bd"
				}
			},
			"storageLayout": {
				"storage": [
					{
						"astId": 24,
						"contract": "contracts/prac4.sol:StoreBoolean",
						"label": "isActive",
						"offset": 0,
						"slot": "0",
						"type": "t_bool"
					}
				],
				"types": {
					"t_bool": {
						"encoding": "inplace",
						"label": "bool",
						"numberOfBytes": "1"
					}
				}
			},
			"userdoc": {
				"kind": "user",
				"methods": {},
				"version": 1
			}
		}
	}
}