{
	"contracts/prac17.sol": {
		"MemoryLifecycleFixed": {
			"abi": [
				{
					"inputs": [],
					"name": "copyStorageToMemory",
					"outputs": [
						{
							"internalType": "string",
							"name": "memoryValue",
							"type": "string"
						},
						{
							"internalType": "string",
							"name": "storageValue",
							"type": "string"
						}
					],
					"stateMutability": "view",
					"type": "function"
				},
				{
					"inputs": [],
					"name": "createMemoryVariable",
					"outputs": [
						{
							"internalType": "uint256",
							"name": "",
							"type": "uint256"
						}
					],
					"stateMutability": "pure",
					"type": "function"
				},
				{
					"inputs": [],
					"name": "returnMemoryString",
					"outputs": [
						{
							"internalType": "string",
							"name": "",
							"type": "string"
						}
					],
					"stateMutability": "pure",
					"type": "function"
				},
				{
					"inputs": [],
					"name": "storedName",
					"outputs": [
						{
							"internalType": "string",
							"name": "",
							"type": "string"
						}
					],
					"stateMutability": "view",
					"type": "function"
				}
			],
			"devdoc": {
				"kind": "dev",
				"methods": {},
				"version": 1
			},
			"evm": {
				"assembly": "    /* \"contracts/prac17.sol\":11592:12839  contract MemoryLifecycleFixed {... */\n  mstore(0x40, 0x80)\n    /* \"contracts/prac17.sol\":11631:11670  string public storedName = \"Blockchain\" */\n  mload(0x40)\n  dup1\n  0x40\n  add\n  0x40\n  mstore\n  dup1\n  0x0a\n  dup2\n  mstore\n  0x20\n  add\n  0x426c6f636b636861696e00000000000000000000000000000000000000000000\n  dup2\n  mstore\n  pop\n  0x00\n  swap1\n  dup2\n  tag_1\n  swap2\n  swap1\n  tag_2\n  jump\t// in\ntag_1:\n  pop\n    /* \"contracts/prac17.sol\":11592:12839  contract MemoryLifecycleFixed {... */\n  callvalue\n  dup1\n  iszero\n  tag_3\n  jumpi\n  revert(0x00, 0x00)\ntag_3:\n  pop\n  jump(tag_4)\n    /* \"#utility.yul\":7:106   */\ntag_5:\n    /* \"#utility.yul\":59:65   */\n  0x00\n    /* \"#utility.yul\":93:98   */\n  dup2\n    /* \"#utility.yul\":87:99   */\n  mload\n    /* \"#utility.yul\":77:99   */\n  swap1\n  pop\n    /* \"#utility.yul\":7:106   */\n  swap2\n  swap1\n  pop\n  jump\t// out\n    /* \"#utility.yul\":112:292   */\ntag_6:\n    /* \"#utility.yul\":160:237   */\n  0x4e487b7100000000000000000000000000000000000000000000000000000000\n    /* \"#utility.yul\":157:158   */\n  0x00\n    /* \"#utility.yul\":150:238   */\n  mstore\n    /* \"#utility.yul\":257:261   */\n  0x41\n    /* \"#utility.yul\":254:255   */\n  0x04\n    /* \"#utility.yul\":247:262   */\n  mstore\n    /* \"#utility.yul\":281:285   */\n  0x24\n    /* \"#utility.yul\":278:279   */\n  0x00\n    /* \"#utility.yul\":271:286   */\n  revert\n    /* \"#utility.yul\":298:478   */\ntag_7:\n    /* \"#utility.yul\":346:423   */\n  0x4e487b7100000000000000000000000000000000000000000000000000000000\n    /* \"#utility.yul\":343:344   */\n  0x00\n    /* \"#utility.yul\":336:424   */\n  mstore\n    /* \"#utility.yul\":443:447   */\n  0x22\n    /* \"#utility.yul\":440:441   */\n  0x04\n    /* \"#utility.yul\":433:448   */\n  mstore\n    /* \"#utility.yul\":467:471   */\n  0x24\n    /* \"#utility.yul\":464:465   */\n  0x00\n    /* \"#utility.yul\":457:472   */\n  revert\n    /* \"#utility.yul\":484:804   */\ntag_8:\n    /* \"#utility.yul\":528:534   */\n  0x00\n    /* \"#utility.yul\":565:566   */\n  0x02\n    /* \"#utility.yul\":559:563   */\n  dup3\n    /* \"#utility.yul\":555:567   */\n  div\n    /* \"#utility.yul\":545:567   */\n  swap1\n  pop\n    /* \"#utility.yul\":612:613   */\n  0x01\n    /* \"#utility.yul\":606:610   */\n  dup3\n    /* \"#utility.yul\":602:614   */\n  and\n    /* \"#utility.yul\":633:651   */\n  dup1\n    /* \"#utility.yul\":623:704   */\n  tag_30\n  jumpi\n    /* \"#utility.yul\":689:693   */\n  0x7f\n    /* \"#utility.yul\":681:687   */\n  dup3\n    /* \"#utility.yul\":677:694   */\n  and\n    /* \"#utility.yul\":667:694   */\n  swap2\n  pop\n    /* \"#utility.yul\":623:704   */\ntag_30:\n    /* \"#utility.yul\":751:753   */\n  0x20\n    /* \"#utility.yul\":743:749   */\n  dup3\n    /* \"#utility.yul\":740:754   */\n  lt\n    /* \"#utility.yul\":720:738   */\n  dup2\n    /* \"#utility.yul\":717:755   */\n  sub\n    /* \"#utility.yul\":714:798   */\n  tag_31\n  jumpi\n    /* \"#utility.yul\":770:788   */\n  tag_32\n  tag_7\n  jump\t// in\ntag_32:\n    /* \"#utility.yul\":714:798   */\ntag_31:\n    /* \"#utility.yul\":535:804   */\n  pop\n    /* \"#utility.yul\":484:804   */\n  swap2\n  swap1\n  pop\n  jump\t// out\n    /* \"#utility.yul\":810:951   */\ntag_9:\n    /* \"#utility.yul\":859:863   */\n  0x00\n    /* \"#utility.yul\":882:885   */\n  dup2\n    /* \"#utility.yul\":874:885   */\n  swap1\n  pop\n    /* \"#utility.yul\":905:908   */\n  dup2\n    /* \"#utility.yul\":902:903   */\n  0x00\n    /* \"#utility.yul\":895:909   */\n  mstore\n    /* \"#utility.yul\":939:943   */\n  0x20\n    /* \"#utility.yul\":936:937   */\n  0x00\n    /* \"#utility.yul\":926:944   */\n  keccak256\n    /* \"#utility.yul\":918:944   */\n  swap1\n  pop\n    /* \"#utility.yul\":810:951   */\n  swap2\n  swap1\n  pop\n  jump\t// out\n    /* \"#utility.yul\":957:1050   */\ntag_10:\n    /* \"#utility.yul\":994:1000   */\n  0x00\n    /* \"#utility.yul\":1041:1043   */\n  0x20\n    /* \"#utility.yul\":1036:1038   */\n  0x1f\n    /* \"#utility.yul\":1029:1034   */\n  dup4\n    /* \"#utility.yul\":1025:1039   */\n  add\n    /* \"#utility.yul\":1021:1044   */\n  div\n    /* \"#utility.yul\":1011:1044   */\n  swap1\n  pop\n    /* \"#utility.yul\":957:1050   */\n  swap2\n  swap1\n  pop\n  jump\t// out\n    /* \"#utility.yul\":1056:1163   */\ntag_11:\n    /* \"#utility.yul\":1100:1108   */\n  0x00\n    /* \"#utility.yul\":1150:1155   */\n  dup3\n    /* \"#utility.yul\":1144:1148   */\n  dup3\n    /* \"#utility.yul\":1140:1156   */\n  shl\n    /* \"#utility.yul\":1119:1156   */\n  swap1\n  pop\n    /* \"#utility.yul\":1056:1163   */\n  swap3\n  swap2\n  pop\n  pop\n  jump\t// out\n    /* \"#utility.yul\":1169:1562   */\ntag_12:\n    /* \"#utility.yul\":1238:1244   */\n  0x00\n    /* \"#utility.yul\":1288:1289   */\n  0x08\n    /* \"#utility.yul\":1276:1286   */\n  dup4\n    /* \"#utility.yul\":1272:1290   */\n  mul\n    /* \"#utility.yul\":1311:1408   */\n  tag_37\n    /* \"#utility.yul\":1341:1407   */\n  0xffffffffffffffffffffffffffffffffffffffffffffffffffffffffffffffff\n    /* \"#utility.yul\":1330:1339   */\n  dup3\n    /* \"#utility.yul\":1311:1408   */\n  tag_11\n  jump\t// in\ntag_37:\n    /* \"#utility.yul\":1429:1468   */\n  tag_38\n    /* \"#utility.yul\":1459:1467   */\n  dup7\n    /* \"#utility.yul\":1448:1457   */\n  dup4\n    /* \"#utility.yul\":1429:1468   */\n  tag_11\n  jump\t// in\ntag_38:\n    /* \"#utility.yul\":1417:1468   */\n  swap6\n  pop\n    /* \"#utility.yul\":1501:1505   */\n  dup1\n    /* \"#utility.yul\":1497:1506   */\n  not\n    /* \"#utility.yul\":1490:1495   */\n  dup5\n    /* \"#utility.yul\":1486:1507   */\n  and\n    /* \"#utility.yul\":1477:1507   */\n  swap4\n  pop\n    /* \"#utility.yul\":1550:1554   */\n  dup1\n    /* \"#utility.yul\":1540:1548   */\n  dup7\n    /* \"#utility.yul\":1536:1555   */\n  and\n    /* \"#utility.yul\":1529:1534   */\n  dup5\n    /* \"#utility.yul\":1526:1556   */\n  or\n    /* \"#utility.yul\":1516:1556   */\n  swap3\n  pop\n    /* \"#utility.yul\":1245:1562   */\n  pop\n  pop\n    /* \"#utility.yul\":1169:1562   */\n  swap4\n  swap3\n  pop\n  pop\n  pop\n  jump\t// out\n    /* \"#utility.yul\":1568:1645   */\ntag_13:\n    /* \"#utility.yul\":1605:1612   */\n  0x00\n    /* \"#utility.yul\":1634:1639   */\n  dup2\n    /* \"#utility.yul\":1623:1639   */\n  swap1\n  pop\n    /* \"#utility.yul\":1568:1645   */\n  swap2\n  swap1\n  pop\n  jump\t// out\n    /* \"#utility.yul\":1651:1711   */\ntag_14:\n    /* \"#utility.yul\":1679:1682   */\n  0x00\n    /* \"#utility.yul\":1700:1705   */\n  dup2\n    /* \"#utility.yul\":1693:1705   */\n  swap1\n  pop\n    /* \"#utility.yul\":1651:1711   */\n  swap2\n  swap1\n  pop\n  jump\t// out\n    /* \"#utility.yul\":1717:1859   */\ntag_15:\n    /* \"#utility.yul\":1767:1776   */\n  0x00\n    /* \"#utility.yul\":1800:1853   */\n  tag_42\n    /* \"#utility.yul\":1818:1852   */\n  tag_43\n    /* \"#utility.yul\":1827:1851   */\n  tag_44\n    /* \"#utility.yul\":1845:1850   */\n  dup5\n    /* \"#utility.yul\":1827:1851   */\n  tag_13\n  jump\t// in\ntag_44:\n    /* \"#utility.yul\":1818:1852   */\n  tag_14\n  jump\t// in\ntag_43:\n    /* \"#utility.yul\":1800:1853   */\n  tag_13\n  jump\t// in\ntag_42:\n    /* \"#utility.yul\":1787:1853   */\n  swap1\n  pop\n    /* \"#utility.yul\":1717:1859   */\n  swap2\n  swap1\n  pop\n  jump\t// out\n    /* \"#utility.yul\":1865:1940   */\ntag_16:\n    /* \"#utility.yul\":1908:1911   */\n  0x00\n    /* \"#utility.yul\":1929:1934   */\n  dup2\n    /* \"#utility.yul\":1922:1934   */\n  swap1\n  pop\n    /* \"#utility.yul\":1865:1940   */\n  swap2\n  swap1\n  pop\n  jump\t// out\n    /* \"#utility.yul\":1946:2215   */\ntag_17:\n    /* \"#utility.yul\":2056:2095   */\n  tag_47\n    /* \"#utility.yul\":2087:2094   */\n  dup4\n    /* \"#utility.yul\":2056:2095   */\n  tag_15\n  jump\t// in\ntag_47:\n    /* \"#utility.yul\":2117:2208   */\n  tag_48\n    /* \"#utility.yul\":2166:2207   */\n  tag_49\n    /* \"#utility.yul\":2190:2206   */\n  dup3\n    /* \"#utility.yul\":2166:2207   */\n  tag_16\n  jump\t// in\ntag_49:\n    /* \"#utility.yul\":2158:2164   */\n  dup5\n    /* \"#utility.yul\":2151:2155   */\n  dup5\n    /* \"#utility.yul\":2145:2156   */\n  sload\n    /* \"#utility.yul\":2117:2208   */\n  tag_12\n  jump\t// in\ntag_48:\n    /* \"#utility.yul\":2111:2115   */\n  dup3\n    /* \"#utility.yul\":2104:2209   */\n  sstore\n    /* \"#utility.yul\":2022:2215   */\n  pop\n    /* \"#utility.yul\":1946:2215   */\n  pop\n  pop\n  pop\n  jump\t// out\n    /* \"#utility.yul\":2221:2294   */\ntag_18:\n    /* \"#utility.yul\":2266:2269   */\n  0x00\n    /* \"#utility.yul\":2287:2288   */\n  0x00\n    /* \"#utility.yul\":2280:2288   */\n  swap1\n  pop\n    /* \"#utility.yul\":2221:2294   */\n  swap1\n  jump\t// out\n    /* \"#utility.yul\":2300:2489   */\ntag_19:\n    /* \"#utility.yul\":2377:2409   */\n  tag_52\n  tag_18\n  jump\t// in\ntag_52:\n    /* \"#utility.yul\":2418:2483   */\n  tag_53\n    /* \"#utility.yul\":2476:2482   */\n  dup2\n    /* \"#utility.yul\":2468:2474   */\n  dup5\n    /* \"#utility.yul\":2462:2466   */\n  dup5\n    /* \"#utility.yul\":2418:2483   */\n  tag_17\n  jump\t// in\ntag_53:\n    /* \"#utility.yul\":2353:2489   */\n  pop\n    /* \"#utility.yul\":2300:2489   */\n  pop\n  pop\n  jump\t// out\n    /* \"#utility.yul\":2495:2709   */\ntag_20:\n    /* \"#utility.yul\":2580:2581   */\n  0x00\n    /* \"#utility.yul\":2565:2703   */\ntag_55:\n    /* \"#utility.yul\":2590:2599   */\n  dup3\n    /* \"#utility.yul\":2587:2588   */\n  dup2\n    /* \"#utility.yul\":2584:2600   */\n  lt\n    /* \"#utility.yul\":2565:2703   */\n  iszero\n  tag_57\n  jumpi\n    /* \"#utility.yul\":2642:2693   */\n  tag_58\n    /* \"#utility.yul\":2691:2692   */\n  0x00\n    /* \"#utility.yul\":2687:2688   */\n  dup3\n    /* \"#utility.yul\":2676:2685   */\n  dup5\n    /* \"#utility.yul\":2672:2689   */\n  add\n    /* \"#utility.yul\":2642:2693   */\n  tag_19\n  jump\t// in\ntag_58:\n    /* \"#utility.yul\":2615:2616   */\n  0x01\n    /* \"#utility.yul\":2612:2613   */\n  dup2\n    /* \"#utility.yul\":2608:2617   */\n  add\n    /* \"#utility.yul\":2603:2617   */\n  swap1\n  pop\n    /* \"#utility.yul\":2565:2703   */\n  jump(tag_55)\ntag_57:\n    /* \"#utility.yul\":2569:2583   */\n  pop\n    /* \"#utility.yul\":2495:2709   */\n  pop\n  pop\n  jump\t// out\n    /* \"#utility.yul\":2715:3461   */\ntag_21:\n    /* \"#utility.yul\":2816:2818   */\n  0x1f\n    /* \"#utility.yul\":2811:2814   */\n  dup3\n    /* \"#utility.yul\":2808:2819   */\n  gt\n    /* \"#utility.yul\":2805:3454   */\n  iszero\n  tag_60\n  jumpi\n    /* \"#utility.yul\":2845:2855   */\n  dup3\n    /* \"#utility.yul\":2840:2843   */\n  dup3\n    /* \"#utility.yul\":2837:2856   */\n  gt\n    /* \"#utility.yul\":2834:3444   */\n  iszero\n  tag_61\n  jumpi\n    /* \"#utility.yul\":2891:2929   */\n  tag_62\n    /* \"#utility.yul\":2923:2928   */\n  dup2\n    /* \"#utility.yul\":2891:2929   */\n  tag_9\n  jump\t// in\ntag_62:\n    /* \"#utility.yul\":2966:2988   */\n  tag_63\n    /* \"#utility.yul\":2984:2987   */\n  dup4\n    /* \"#utility.yul\":2966:2988   */\n  tag_10\n  jump\t// in\ntag_63:\n    /* \"#utility.yul\":3025:3054   */\n  tag_64\n    /* \"#utility.yul\":3043:3053   */\n  dup6\n    /* \"#utility.yul\":3025:3054   */\n  tag_10\n  jump\t// in\ntag_64:\n    /* \"#utility.yul\":3215:3217   */\n  0x20\n    /* \"#utility.yul\":3203:3213   */\n  dup7\n    /* \"#utility.yul\":3200:3218   */\n  lt\n    /* \"#utility.yul\":3197:3276   */\n  iszero\n  tag_65\n  jumpi\n    /* \"#utility.yul\":3257:3258   */\n  0x00\n    /* \"#utility.yul\":3241:3258   */\n  swap1\n  pop\n    /* \"#utility.yul\":3197:3276   */\ntag_65:\n    /* \"#utility.yul\":3326:3338   */\n  dup1\n    /* \"#utility.yul\":3316:3324   */\n  dup4\n    /* \"#utility.yul\":3312:3339   */\n  add\n    /* \"#utility.yul\":3356:3430   */\n  tag_66\n    /* \"#utility.yul\":3416:3428   */\n  dup3\n    /* \"#utility.yul\":3402:3414   */\n  dup5\n    /* \"#utility.yul\":3398:3429   */\n  sub\n    /* \"#utility.yul\":3385:3396   */\n  dup3\n    /* \"#utility.yul\":3356:3430   */\n  tag_20\n  jump\t// in\ntag_66:\n    /* \"#utility.yul\":2857:3444   */\n  pop\n  pop\n  pop\n  pop\n    /* \"#utility.yul\":2834:3444   */\ntag_61:\n    /* \"#utility.yul\":2805:3454   */\ntag_60:\n    /* \"#utility.yul\":2715:3461   */\n  pop\n  pop\n  pop\n  jump\t// out\n    /* \"#utility.yul\":3467:3584   */\ntag_22:\n    /* \"#utility.yul\":3521:3529   */\n  0x00\n    /* \"#utility.yul\":3571:3576   */\n  dup3\n    /* \"#utility.yul\":3565:3569   */\n  dup3\n    /* \"#utility.yul\":3561:3577   */\n  shr\n    /* \"#utility.yul\":3540:3577   */\n  swap1\n  pop\n    /* \"#utility.yul\":3467:3584   */\n  swap3\n  swap2\n  pop\n  pop\n  jump\t// out\n    /* \"#utility.yul\":3590:3759   */\ntag_23:\n    /* \"#utility.yul\":3634:3640   */\n  0x00\n    /* \"#utility.yul\":3667:3718   */\n  tag_69\n    /* \"#utility.yul\":3715:3716   */\n  0x00\n    /* \"#utility.yul\":3711:3717   */\n  not\n    /* \"#utility.yul\":3703:3708   */\n  dup5\n    /* \"#utility.yul\":3700:3701   */\n  0x08\n    /* \"#utility.yul\":3696:3709   */\n  mul\n    /* \"#utility.yul\":3667:3718   */\n  tag_22\n  jump\t// in\ntag_69:\n    /* \"#utility.yul\":3663:3719   */\n  not\n    /* \"#utility.yul\":3748:3752   */\n  dup1\n    /* \"#utility.yul\":3742:3746   */\n  dup4\n    /* \"#utility.yul\":3738:3753   */\n  and\n    /* \"#utility.yul\":3728:3753   */\n  swap2\n  pop\n    /* \"#utility.yul\":3641:3759   */\n  pop\n    /* \"#utility.yul\":3590:3759   */\n  swap3\n  swap2\n  pop\n  pop\n  jump\t// out\n    /* \"#utility.yul\":3764:4059   */\ntag_24:\n    /* \"#utility.yul\":3840:3844   */\n  0x00\n    /* \"#utility.yul\":3986:4015   */\n  tag_71\n    /* \"#utility.yul\":4011:4014   */\n  dup4\n    /* \"#utility.yul\":4005:4009   */\n  dup4\n    /* \"#utility.yul\":3986:4015   */\n  tag_23\n  jump\t// in\ntag_71:\n    /* \"#utility.yul\":3978:4015   */\n  swap2\n  pop\n    /* \"#utility.yul\":4048:4051   */\n  dup3\n    /* \"#utility.yul\":4045:4046   */\n  0x02\n    /* \"#utility.yul\":4041:4052   */\n  mul\n    /* \"#utility.yul\":4035:4039   */\n  dup3\n    /* \"#utility.yul\":4032:4053   */\n  or\n    /* \"#utility.yul\":4024:4053   */\n  swap1\n  pop\n    /* \"#utility.yul\":3764:4059   */\n  swap3\n  swap2\n  pop\n  pop\n  jump\t// out\n    /* \"#utility.yul\":4064:5459   */\ntag_2:\n    /* \"#utility.yul\":4181:4218   */\n  tag_73\n    /* \"#utility.yul\":4214:4217   */\n  dup3\n    /* \"#utility.yul\":4181:4218   */\n  tag_5\n  jump\t// in\ntag_73:\n    /* \"#utility.yul\":4283:4301   */\n  0xffffffffffffffff\n    /* \"#utility.yul\":4275:4281   */\n  dup2\n    /* \"#utility.yul\":4272:4302   */\n  gt\n    /* \"#utility.yul\":4269:4325   */\n  iszero\n  tag_74\n  jumpi\n    /* \"#utility.yul\":4305:4323   */\n  tag_75\n  tag_6\n  jump\t// in\ntag_75:\n    /* \"#utility.yul\":4269:4325   */\ntag_74:\n    /* \"#utility.yul\":4349:4387   */\n  tag_76\n    /* \"#utility.yul\":4381:4385   */\n  dup3\n    /* \"#utility.yul\":4375:4386   */\n  sload\n    /* \"#utility.yul\":4349:4387   */\n  tag_8\n  jump\t// in\ntag_76:\n    /* \"#utility.yul\":4434:4501   */\n  tag_77\n    /* \"#utility.yul\":4494:4500   */\n  dup3\n    /* \"#utility.yul\":4486:4492   */\n  dup3\n    /* \"#utility.yul\":4480:4484   */\n  dup6\n    /* \"#utility.yul\":4434:4501   */\n  tag_21\n  jump\t// in\ntag_77:\n    /* \"#utility.yul\":4528:4529   */\n  0x00\n    /* \"#utility.yul\":4552:4556   */\n  0x20\n    /* \"#utility.yul\":4539:4556   */\n  swap1\n  pop\n    /* \"#utility.yul\":4584:4586   */\n  0x1f\n    /* \"#utility.yul\":4576:4582   */\n  dup4\n    /* \"#utility.yul\":4573:4587   */\n  gt\n    /* \"#utility.yul\":4601:4602   */\n  0x01\n    /* \"#utility.yul\":4596:5214   */\n  dup2\n  eq\n  tag_79\n  jumpi\n    /* \"#utility.yul\":5258:5259   */\n  0x00\n    /* \"#utility.yul\":5275:5281   */\n  dup5\n    /* \"#utility.yul\":5272:5349   */\n  iszero\n  tag_80\n  jumpi\n    /* \"#utility.yul\":5324:5333   */\n  dup3\n    /* \"#utility.yul\":5319:5322   */\n  dup8\n    /* \"#utility.yul\":5315:5334   */\n  add\n    /* \"#utility.yul\":5309:5335   */\n  mload\n    /* \"#utility.yul\":5300:5335   */\n  swap1\n  pop\n    /* \"#utility.yul\":5272:5349   */\ntag_80:\n    /* \"#utility.yul\":5375:5442   */\n  tag_81\n    /* \"#utility.yul\":5435:5441   */\n  dup6\n    /* \"#utility.yul\":5428:5433   */\n  dup3\n    /* \"#utility.yul\":5375:5442   */\n  tag_24\n  jump\t// in\ntag_81:\n    /* \"#utility.yul\":5369:5373   */\n  dup7\n    /* \"#utility.yul\":5362:5443   */\n  sstore\n    /* \"#utility.yul\":5231:5453   */\n  pop\n    /* \"#utility.yul\":4566:5453   */\n  jump(tag_78)\n    /* \"#utility.yul\":4596:5214   */\ntag_79:\n    /* \"#utility.yul\":4648:4652   */\n  0x1f\n    /* \"#utility.yul\":4644:4653   */\n  not\n    /* \"#utility.yul\":4636:4642   */\n  dup5\n    /* \"#utility.yul\":4632:4654   */\n  and\n    /* \"#utility.yul\":4682:4719   */\n  tag_82\n    /* \"#utility.yul\":4714:4718   */\n  dup7\n    /* \"#utility.yul\":4682:4719   */\n  tag_9\n  jump\t// in\ntag_82:\n    /* \"#utility.yul\":4741:4742   */\n  0x00\n    /* \"#utility.yul\":4755:4963   */\ntag_83:\n    /* \"#utility.yul\":4769:4776   */\n  dup3\n    /* \"#utility.yul\":4766:4767   */\n  dup2\n    /* \"#utility.yul\":4763:4777   */\n  lt\n    /* \"#utility.yul\":4755:4963   */\n  iszero\n  tag_85\n  jumpi\n    /* \"#utility.yul\":4848:4857   */\n  dup5\n    /* \"#utility.yul\":4843:4846   */\n  dup10\n    /* \"#utility.yul\":4839:4858   */\n  add\n    /* \"#utility.yul\":4833:4859   */\n  mload\n    /* \"#utility.yul\":4825:4831   */\n  dup3\n    /* \"#utility.yul\":4818:4860   */\n  sstore\n    /* \"#utility.yul\":4899:4900   */\n  0x01\n    /* \"#utility.yul\":4891:4897   */\n  dup3\n    /* \"#utility.yul\":4887:4901   */\n  add\n    /* \"#utility.yul\":4877:4901   */\n  swap2\n  pop\n    /* \"#utility.yul\":4946:4948   */\n  0x20\n    /* \"#utility.yul\":4935:4944   */\n  dup6\n    /* \"#utility.yul\":4931:4949   */\n  add\n    /* \"#utility.yul\":4918:4949   */\n  swap5\n  pop\n    /* \"#utility.yul\":4792:4796   */\n  0x20\n    /* \"#utility.yul\":4789:4790   */\n  dup2\n    /* \"#utility.yul\":4785:4797   */\n  add\n    /* \"#utility.yul\":4780:4797   */\n  swap1\n  pop\n    /* \"#utility.yul\":4755:4963   */\n  jump(tag_83)\ntag_85:\n    /* \"#utility.yul\":4991:4997   */\n  dup7\n    /* \"#utility.yul\":4982:4989   */\n  dup4\n    /* \"#utility.yul\":4979:4998   */\n  lt\n    /* \"#utility.yul\":4976:5155   */\n  iszero\n  tag_86\n  jumpi\n    /* \"#utility.yul\":5049:5058   */\n  dup5\n    /* \"#utility.yul\":5044:5047   */\n  dup10\n    /* \"#utility.yul\":5040:5059   */\n  add\n    /* \"#utility.yul\":5034:5060   */\n  mload\n    /* \"#utility.yul\":5092:5140   */\n  tag_87\n    /* \"#utility.yul\":5134:5138   */\n  0x1f\n    /* \"#utility.yul\":5126:5132   */\n  dup10\n    /* \"#utility.yul\":5122:5139   */\n  and\n    /* \"#utility.yul\":5111:5120   */\n  dup3\n    /* \"#utility.yul\":5092:5140   */\n  tag_23\n  jump\t// in\ntag_87:\n    /* \"#utility.yul\":5084:5090   */\n  dup4\n    /* \"#utility.yul\":5077:5141   */\n  sstore\n    /* \"#utility.yul\":4999:5155   */\n  pop\n    /* \"#utility.yul\":4976:5155   */\ntag_86:\n    /* \"#utility.yul\":5201:5202   */\n  0x01\n    /* \"#utility.yul\":5197:5198   */\n  0x02\n    /* \"#utility.yul\":5189:5195   */\n  dup9\n    /* \"#utility.yul\":5185:5199   */\n  mul\n    /* \"#utility.yul\":5181:5203   */\n  add\n    /* \"#utility.yul\":5175:5179   */\n  dup9\n    /* \"#utility.yul\":5168:5204   */\n  sstore\n    /* \"#utility.yul\":4603:5214   */\n  pop\n  pop\n  pop\n    /* \"#utility.yul\":4566:5453   */\ntag_78:\n  pop\n    /* \"#utility.yul\":4156:5459   */\n  pop\n  pop\n  pop\n    /* \"#utility.yul\":4064:5459   */\n  pop\n  pop\n  jump\t// out\n    /* \"contracts/prac17.sol\":11592:12839  contract MemoryLifecycleFixed {... */\ntag_4:\n  dataSize(sub_0)\n  dup1\n  dataOffset(sub_0)\n  0x00\n  codecopy\n  0x00\n  return\nstop\n\nsub_0: assembly {\n        /* \"contracts/prac17.sol\":11592:12839  contract MemoryLifecycleFixed {... */\n      mstore(0x40, 0x80)\n      callvalue\n      dup1\n      iszero\n      tag_1\n      jumpi\n      revert(0x00, 0x00)\n    tag_1:\n      pop\n      jumpi(tag_2, lt(calldatasize, 0x04))\n      shr(0xe0, calldataload(0x00))\n      dup1\n      0x3940516b\n      eq\n      tag_3\n      jumpi\n      dup1\n      0x46d724d3\n      eq\n      tag_4\n      jumpi\n      dup1\n      0xa05a3874\n      eq\n      tag_5\n      jumpi\n      dup1\n      0xe10a949c\n      eq\n      tag_6\n      jumpi\n    tag_2:\n      revert(0x00, 0x00)\n        /* \"contracts/prac17.sol\":11934:12203  function returnMemoryString() public pure returns (string memory)... */\n    tag_3:\n      tag_7\n      tag_8\n      jump\t// in\n    tag_7:\n      mload(0x40)\n      tag_9\n      swap2\n      swap1\n      tag_10\n      jump\t// in\n    tag_9:\n      mload(0x40)\n      dup1\n      swap2\n      sub\n      swap1\n      return\n        /* \"contracts/prac17.sol\":12211:12836  function copyStorageToMemory() public view returns ( string memory memoryValue, string memory storageValue )... */\n    tag_4:\n      tag_11\n      tag_12\n      jump\t// in\n    tag_11:\n      mload(0x40)\n      tag_13\n      swap3\n      swap2\n      swap1\n      tag_14\n      jump\t// in\n    tag_13:\n      mload(0x40)\n      dup1\n      swap2\n      sub\n      swap1\n      return\n        /* \"contracts/prac17.sol\":11679:11926  function createMemoryVariable() public pure returns (uint256)... */\n    tag_5:\n      tag_15\n      tag_16\n      jump\t// in\n    tag_15:\n      mload(0x40)\n      tag_17\n      swap2\n      swap1\n      tag_18\n      jump\t// in\n    tag_17:\n      mload(0x40)\n      dup1\n      swap2\n      sub\n      swap1\n      return\n        /* \"contracts/prac17.sol\":11631:11670  string public storedName = \"Blockchain\" */\n    tag_6:\n      tag_19\n      tag_20\n      jump\t// in\n    tag_19:\n      mload(0x40)\n      tag_21\n      swap2\n      swap1\n      tag_10\n      jump\t// in\n    tag_21:\n      mload(0x40)\n      dup1\n      swap2\n      sub\n      swap1\n      return\n        /* \"contracts/prac17.sol\":11934:12203  function returnMemoryString() public pure returns (string memory)... */\n    tag_8:\n        /* \"contracts/prac17.sol\":11985:11998  string memory */\n      0x60\n        /* \"contracts/prac17.sol\":12132:12154  string memory tempName */\n      0x00\n        /* \"contracts/prac17.sol\":12132:12167  string memory tempName = \"Solidity\" */\n      mload(0x40)\n      dup1\n      0x40\n      add\n      0x40\n      mstore\n      dup1\n      0x08\n      dup2\n      mstore\n      0x20\n      add\n      0x536f6c6964697479000000000000000000000000000000000000000000000000\n      dup2\n      mstore\n      pop\n      swap1\n      pop\n        /* \"contracts/prac17.sol\":12187:12195  tempName */\n      dup1\n        /* \"contracts/prac17.sol\":12180:12195  return tempName */\n      swap2\n      pop\n      pop\n        /* \"contracts/prac17.sol\":11934:12203  function returnMemoryString() public pure returns (string memory)... */\n      swap1\n      jump\t// out\n        /* \"contracts/prac17.sol\":12211:12836  function copyStorageToMemory() public view returns ( string memory memoryValue, string memory storageValue )... */\n    tag_12:\n        /* \"contracts/prac17.sol\":12264:12289  string memory memoryValue */\n      0x60\n        /* \"contracts/prac17.sol\":12291:12317  string memory storageValue */\n      dup1\n        /* \"contracts/prac17.sol\":12457:12480  string memory localCopy */\n      0x00\n        /* \"contracts/prac17.sol\":12483:12493  storedName */\n      0x00\n        /* \"contracts/prac17.sol\":12457:12493  string memory localCopy = storedName */\n      dup1\n      sload\n      tag_24\n      swap1\n      tag_25\n      jump\t// in\n    tag_24:\n      dup1\n      0x1f\n      add\n      0x20\n      dup1\n      swap2\n      div\n      mul\n      0x20\n      add\n      mload(0x40)\n      swap1\n      dup2\n      add\n      0x40\n      mstore\n      dup1\n      swap3\n      swap2\n      swap1\n      dup2\n      dup2\n      mstore\n      0x20\n      add\n      dup3\n      dup1\n      sload\n      tag_26\n      swap1\n      tag_25\n      jump\t// in\n    tag_26:\n      dup1\n      iszero\n      tag_27\n      jumpi\n      dup1\n      0x1f\n      lt\n      tag_28\n      jumpi\n      0x0100\n      dup1\n      dup4\n      sload\n      div\n      mul\n      dup4\n      mstore\n      swap2\n      0x20\n      add\n      swap2\n      jump(tag_27)\n    tag_28:\n      dup3\n      add\n      swap2\n      swap1\n      0x00\n      mstore\n      keccak256(0x00, 0x20)\n      swap1\n    tag_29:\n      dup2\n      sload\n      dup2\n      mstore\n      swap1\n      0x01\n      add\n      swap1\n      0x20\n      add\n      dup1\n      dup4\n      gt\n      tag_29\n      jumpi\n      dup3\n      swap1\n      sub\n      0x1f\n      and\n      dup3\n      add\n      swap2\n    tag_27:\n      pop\n      pop\n      pop\n      pop\n      pop\n      swap1\n      pop\n        /* \"contracts/prac17.sol\":12612:12634  localCopy = \"Modified\" */\n      mload(0x40)\n      dup1\n      0x40\n      add\n      0x40\n      mstore\n      dup1\n      0x08\n      dup2\n      mstore\n      0x20\n      add\n      0x4d6f646966696564000000000000000000000000000000000000000000000000\n      dup2\n      mstore\n      pop\n      swap1\n      pop\n        /* \"contracts/prac17.sol\":12805:12814  localCopy */\n      dup1\n        /* \"contracts/prac17.sol\":12816:12826  storedName */\n      0x00\n        /* \"contracts/prac17.sol\":12796:12828  return ( localCopy, storedName ) */\n      dup1\n      dup1\n      sload\n      tag_30\n      swap1\n      tag_25\n      jump\t// in\n    tag_30:\n      dup1\n      0x1f\n      add\n      0x20\n      dup1\n      swap2\n      div\n      mul\n      0x20\n      add\n      mload(0x40)\n      swap1\n      dup2\n      add\n      0x40\n      mstore\n      dup1\n      swap3\n      swap2\n      swap1\n      dup2\n      dup2\n      mstore\n      0x20\n      add\n      dup3\n      dup1\n      sload\n      tag_31\n      swap1\n      tag_25\n      jump\t// in\n    tag_31:\n      dup1\n      iszero\n      tag_32\n      jumpi\n      dup1\n      0x1f\n      lt\n      tag_33\n      jumpi\n      0x0100\n      dup1\n      dup4\n      sload\n      div\n      mul\n      dup4\n      mstore\n      swap2\n      0x20\n      add\n      swap2\n      jump(tag_32)\n    tag_33:\n      dup3\n      add\n      swap2\n      swap1\n      0x00\n      mstore\n      keccak256(0x00, 0x20)\n      swap1\n    tag_34:\n      dup2\n      sload\n      dup2\n      mstore\n      swap1\n      0x01\n      add\n      swap1\n      0x20\n      add\n      dup1\n      dup4\n      gt\n      tag_34\n      jumpi\n      dup3\n      swap1\n      sub\n      0x1f\n      and\n      dup3\n      add\n      swap2\n    tag_32:\n      pop\n      pop\n      pop\n      pop\n      pop\n      swap1\n      pop\n      swap3\n      pop\n      swap3\n      pop\n      pop\n        /* \"contracts/prac17.sol\":12211:12836  function copyStorageToMemory() public view returns ( string memory memoryValue, string memory storageValue )... */\n      swap1\n      swap2\n      jump\t// out\n        /* \"contracts/prac17.sol\":11679:11926  function createMemoryVariable() public pure returns (uint256)... */\n    tag_16:\n        /* \"contracts/prac17.sol\":11732:11739  uint256 */\n      0x00\n        /* \"contracts/prac17.sol\":11864:11882  uint256 localValue */\n      0x00\n        /* \"contracts/prac17.sol\":11885:11888  100 */\n      0x64\n        /* \"contracts/prac17.sol\":11864:11888  uint256 localValue = 100 */\n      swap1\n      pop\n        /* \"contracts/prac17.sol\":11908:11918  localValue */\n      dup1\n        /* \"contracts/prac17.sol\":11901:11918  return localValue */\n      swap2\n      pop\n      pop\n        /* \"contracts/prac17.sol\":11679:11926  function createMemoryVariable() public pure returns (uint256)... */\n      swap1\n      jump\t// out\n        /* \"contracts/prac17.sol\":11631:11670  string public storedName = \"Blockchain\" */\n    tag_20:\n      0x00\n      dup1\n      sload\n      tag_36\n      swap1\n      tag_25\n      jump\t// in\n    tag_36:\n      dup1\n      0x1f\n      add\n      0x20\n      dup1\n      swap2\n      div\n      mul\n      0x20\n      add\n      mload(0x40)\n      swap1\n      dup2\n      add\n      0x40\n      mstore\n      dup1\n      swap3\n      swap2\n      swap1\n      dup2\n      dup2\n      mstore\n      0x20\n      add\n      dup3\n      dup1\n      sload\n      tag_37\n      swap1\n      tag_25\n      jump\t// in\n    tag_37:\n      dup1\n      iszero\n      tag_38\n      jumpi\n      dup1\n      0x1f\n      lt\n      tag_39\n      jumpi\n      0x0100\n      dup1\n      dup4\n      sload\n      div\n      mul\n      dup4\n      mstore\n      swap2\n      0x20\n      add\n      swap2\n      jump(tag_38)\n    tag_39:\n      dup3\n      add\n      swap2\n      swap1\n      0x00\n      mstore\n      keccak256(0x00, 0x20)\n      swap1\n    tag_40:\n      dup2\n      sload\n      dup2\n      mstore\n      swap1\n      0x01\n      add\n      swap1\n      0x20\n      add\n      dup1\n      dup4\n      gt\n      tag_40\n      jumpi\n      dup3\n      swap1\n      sub\n      0x1f\n      and\n      dup3\n      add\n      swap2\n    tag_38:\n      pop\n      pop\n      pop\n      pop\n      pop\n      dup2\n      jump\t// out\n        /* \"#utility.yul\":7:106   */\n    tag_41:\n        /* \"#utility.yul\":59:65   */\n      0x00\n        /* \"#utility.yul\":93:98   */\n      dup2\n        /* \"#utility.yul\":87:99   */\n      mload\n        /* \"#utility.yul\":77:99   */\n      swap1\n      pop\n        /* \"#utility.yul\":7:106   */\n      swap2\n      swap1\n      pop\n      jump\t// out\n        /* \"#utility.yul\":112:281   */\n    tag_42:\n        /* \"#utility.yul\":196:207   */\n      0x00\n        /* \"#utility.yul\":230:236   */\n      dup3\n        /* \"#utility.yul\":225:228   */\n      dup3\n        /* \"#utility.yul\":218:237   */\n      mstore\n        /* \"#utility.yul\":270:274   */\n      0x20\n        /* \"#utility.yul\":265:268   */\n      dup3\n        /* \"#utility.yul\":261:275   */\n      add\n        /* \"#utility.yul\":246:275   */\n      swap1\n      pop\n        /* \"#utility.yul\":112:281   */\n      swap3\n      swap2\n      pop\n      pop\n      jump\t// out\n        /* \"#utility.yul\":287:426   */\n    tag_43:\n        /* \"#utility.yul\":376:382   */\n      dup3\n        /* \"#utility.yul\":371:374   */\n      dup2\n        /* \"#utility.yul\":366:369   */\n      dup4\n        /* \"#utility.yul\":360:383   */\n      mcopy\n        /* \"#utility.yul\":417:418   */\n      0x00\n        /* \"#utility.yul\":408:414   */\n      dup4\n        /* \"#utility.yul\":403:406   */\n      dup4\n        /* \"#utility.yul\":399:415   */\n      add\n        /* \"#utility.yul\":392:419   */\n      mstore\n        /* \"#utility.yul\":287:426   */\n      pop\n      pop\n      pop\n      jump\t// out\n        /* \"#utility.yul\":432:534   */\n    tag_44:\n        /* \"#utility.yul\":473:479   */\n      0x00\n        /* \"#utility.yul\":524:526   */\n      0x1f\n        /* \"#utility.yul\":520:527   */\n      not\n        /* \"#utility.yul\":515:517   */\n      0x1f\n        /* \"#utility.yul\":508:513   */\n      dup4\n        /* \"#utility.yul\":504:518   */\n      add\n        /* \"#utility.yul\":500:528   */\n      and\n        /* \"#utility.yul\":490:528   */\n      swap1\n      pop\n        /* \"#utility.yul\":432:534   */\n      swap2\n      swap1\n      pop\n      jump\t// out\n        /* \"#utility.yul\":540:917   */\n    tag_45:\n        /* \"#utility.yul\":628:631   */\n      0x00\n        /* \"#utility.yul\":656:695   */\n      tag_55\n        /* \"#utility.yul\":689:694   */\n      dup3\n        /* \"#utility.yul\":656:695   */\n      tag_41\n      jump\t// in\n    tag_55:\n        /* \"#utility.yul\":711:782   */\n      tag_56\n        /* \"#utility.yul\":775:781   */\n      dup2\n        /* \"#utility.yul\":770:773   */\n      dup6\n        /* \"#utility.yul\":711:782   */\n      tag_42\n      jump\t// in\n    tag_56:\n        /* \"#utility.yul\":704:782   */\n      swap4\n      pop\n        /* \"#utility.yul\":791:856   */\n      tag_57\n        /* \"#utility.yul\":849:855   */\n      dup2\n        /* \"#utility.yul\":844:847   */\n      dup6\n        /* \"#utility.yul\":837:841   */\n      0x20\n        /* \"#utility.yul\":830:835   */\n      dup7\n        /* \"#utility.yul\":826:842   */\n      add\n        /* \"#utility.yul\":791:856   */\n      tag_43\n      jump\t// in\n    tag_57:\n        /* \"#utility.yul\":881:910   */\n      tag_58\n        /* \"#utility.yul\":903:909   */\n      dup2\n        /* \"#utility.yul\":881:910   */\n      tag_44\n      jump\t// in\n    tag_58:\n        /* \"#utility.yul\":876:879   */\n      dup5\n        /* \"#utility.yul\":872:911   */\n      add\n        /* \"#utility.yul\":865:911   */\n      swap2\n      pop\n        /* \"#utility.yul\":632:917   */\n      pop\n        /* \"#utility.yul\":540:917   */\n      swap3\n      swap2\n      pop\n      pop\n      jump\t// out\n        /* \"#utility.yul\":923:1236   */\n    tag_10:\n        /* \"#utility.yul\":1036:1040   */\n      0x00\n        /* \"#utility.yul\":1074:1076   */\n      0x20\n        /* \"#utility.yul\":1063:1072   */\n      dup3\n        /* \"#utility.yul\":1059:1077   */\n      add\n        /* \"#utility.yul\":1051:1077   */\n      swap1\n      pop\n        /* \"#utility.yul\":1123:1132   */\n      dup2\n        /* \"#utility.yul\":1117:1121   */\n      dup2\n        /* \"#utility.yul\":1113:1133   */\n      sub\n        /* \"#utility.yul\":1109:1110   */\n      0x00\n        /* \"#utility.yul\":1098:1107   */\n      dup4\n        /* \"#utility.yul\":1094:1111   */\n      add\n        /* \"#utility.yul\":1087:1134   */\n      mstore\n        /* \"#utility.yul\":1151:1229   */\n      tag_60\n        /* \"#utility.yul\":1224:1228   */\n      dup2\n        /* \"#utility.yul\":1215:1221   */\n      dup5\n        /* \"#utility.yul\":1151:1229   */\n      tag_45\n      jump\t// in\n    tag_60:\n        /* \"#utility.yul\":1143:1229   */\n      swap1\n      pop\n        /* \"#utility.yul\":923:1236   */\n      swap3\n      swap2\n      pop\n      pop\n      jump\t// out\n        /* \"#utility.yul\":1242:1756   */\n    tag_14:\n        /* \"#utility.yul\":1403:1407   */\n      0x00\n        /* \"#utility.yul\":1441:1443   */\n      0x40\n        /* \"#utility.yul\":1430:1439   */\n      dup3\n        /* \"#utility.yul\":1426:1444   */\n      add\n        /* \"#utility.yul\":1418:1444   */\n      swap1\n      pop\n        /* \"#utility.yul\":1490:1499   */\n      dup2\n        /* \"#utility.yul\":1484:1488   */\n      dup2\n        /* \"#utility.yul\":1480:1500   */\n      sub\n        /* \"#utility.yul\":1476:1477   */\n      0x00\n        /* \"#utility.yul\":1465:1474   */\n      dup4\n        /* \"#utility.yul\":1461:1478   */\n      add\n        /* \"#utility.yul\":1454:1501   */\n      mstore\n        /* \"#utility.yul\":1518:1596   */\n      tag_62\n        /* \"#utility.yul\":1591:1595   */\n      dup2\n        /* \"#utility.yul\":1582:1588   */\n      dup6\n        /* \"#utility.yul\":1518:1596   */\n      tag_45\n      jump\t// in\n    tag_62:\n        /* \"#utility.yul\":1510:1596   */\n      swap1\n      pop\n        /* \"#utility.yul\":1643:1652   */\n      dup2\n        /* \"#utility.yul\":1637:1641   */\n      dup2\n        /* \"#utility.yul\":1633:1653   */\n      sub\n        /* \"#utility.yul\":1628:1630   */\n      0x20\n        /* \"#utility.yul\":1617:1626   */\n      dup4\n        /* \"#utility.yul\":1613:1631   */\n      add\n        /* \"#utility.yul\":1606:1654   */\n      mstore\n        /* \"#utility.yul\":1671:1749   */\n      tag_63\n        /* \"#utility.yul\":1744:1748   */\n      dup2\n        /* \"#utility.yul\":1735:1741   */\n      dup5\n        /* \"#utility.yul\":1671:1749   */\n      tag_45\n      jump\t// in\n    tag_63:\n        /* \"#utility.yul\":1663:1749   */\n      swap1\n      pop\n        /* \"#utility.yul\":1242:1756   */\n      swap4\n      swap3\n      pop\n      pop\n      pop\n      jump\t// out\n        /* \"#utility.yul\":1762:1839   */\n    tag_46:\n        /* \"#utility.yul\":1799:1806   */\n      0x00\n        /* \"#utility.yul\":1828:1833   */\n      dup2\n        /* \"#utility.yul\":1817:1833   */\n      swap1\n      pop\n        /* \"#utility.yul\":1762:1839   */\n      swap2\n      swap1\n      pop\n      jump\t// out\n        /* \"#utility.yul\":1845:1963   */\n    tag_47:\n        /* \"#utility.yul\":1932:1956   */\n      tag_66\n        /* \"#utility.yul\":1950:1955   */\n      dup2\n        /* \"#utility.yul\":1932:1956   */\n      tag_46\n      jump\t// in\n    tag_66:\n        /* \"#utility.yul\":1927:1930   */\n      dup3\n        /* \"#utility.yul\":1920:1957   */\n      mstore\n        /* \"#utility.yul\":1845:1963   */\n      pop\n      pop\n      jump\t// out\n        /* \"#utility.yul\":1969:2191   */\n    tag_18:\n        /* \"#utility.yul\":2062:2066   */\n      0x00\n        /* \"#utility.yul\":2100:2102   */\n      0x20\n        /* \"#utility.yul\":2089:2098   */\n      dup3\n        /* \"#utility.yul\":2085:2103   */\n      add\n        /* \"#utility.yul\":2077:2103   */\n      swap1\n      pop\n        /* \"#utility.yul\":2113:2184   */\n      tag_68\n        /* \"#utility.yul\":2181:2182   */\n      0x00\n        /* \"#utility.yul\":2170:2179   */\n      dup4\n        /* \"#utility.yul\":2166:2183   */\n      add\n        /* \"#utility.yul\":2157:2163   */\n      dup5\n        /* \"#utility.yul\":2113:2184   */\n      tag_47\n      jump\t// in\n    tag_68:\n        /* \"#utility.yul\":1969:2191   */\n      swap3\n      swap2\n      pop\n      pop\n      jump\t// out\n        /* \"#utility.yul\":2197:2377   */\n    tag_48:\n        /* \"#utility.yul\":2245:2322   */\n      0x4e487b7100000000000000000000000000000000000000000000000000000000\n        /* \"#utility.yul\":2242:2243   */\n      0x00\n        /* \"#utility.yul\":2235:2323   */\n      mstore\n        /* \"#utility.yul\":2342:2346   */\n      0x22\n        /* \"#utility.yul\":2339:2340   */\n      0x04\n        /* \"#utility.yul\":2332:2347   */\n      mstore\n        /* \"#utility.yul\":2366:2370   */\n      0x24\n        /* \"#utility.yul\":2363:2364   */\n      0x00\n        /* \"#utility.yul\":2356:2371   */\n      revert\n        /* \"#utility.yul\":2383:2703   */\n    tag_25:\n        /* \"#utility.yul\":2427:2433   */\n      0x00\n        /* \"#utility.yul\":2464:2465   */\n      0x02\n        /* \"#utility.yul\":2458:2462   */\n      dup3\n        /* \"#utility.yul\":2454:2466   */\n      div\n        /* \"#utility.yul\":2444:2466   */\n      swap1\n      pop\n        /* \"#utility.yul\":2511:2512   */\n      0x01\n        /* \"#utility.yul\":2505:2509   */\n      dup3\n        /* \"#utility.yul\":2501:2513   */\n      and\n        /* \"#utility.yul\":2532:2550   */\n      dup1\n        /* \"#utility.yul\":2522:2603   */\n      tag_71\n      jumpi\n        /* \"#utility.yul\":2588:2592   */\n      0x7f\n        /* \"#utility.yul\":2580:2586   */\n      dup3\n        /* \"#utility.yul\":2576:2593   */\n      and\n        /* \"#utility.yul\":2566:2593   */\n      swap2\n      pop\n        /* \"#utility.yul\":2522:2603   */\n    tag_71:\n        /* \"#utility.yul\":2650:2652   */\n      0x20\n        /* \"#utility.yul\":2642:2648   */\n      dup3\n        /* \"#utility.yul\":2639:2653   */\n      lt\n        /* \"#utility.yul\":2619:2637   */\n      dup2\n        /* \"#utility.yul\":2616:2654   */\n      sub\n        /* \"#utility.yul\":2613:2697   */\n      tag_72\n      jumpi\n        /* \"#utility.yul\":2669:2687   */\n      tag_73\n      tag_48\n      jump\t// in\n    tag_73:\n        /* \"#utility.yul\":2613:2697   */\n    tag_72:\n        /* \"#utility.yul\":2434:2703   */\n      pop\n        /* \"#utility.yul\":2383:2703   */\n      swap2\n      swap1\n      pop\n      jump\t// out\n\n    auxdata: 0xa26469706673582212201c9f437993ff5c9f942d339c35f5ddcfeca7628910e7cff0d37aa586877b2cd264736f6c63430008220033\n}\n",
				"bytecode": {
					"linkReferences": {},
					"object": "60806040526040518060400160405280600a81526020017f426c6f636b636861696e000000000000000000000000000000000000000000008152505f908161004791906102a7565b50348015610053575f5ffd5b50610376565b5f81519050919050565b7f4e487b71000000000000000000000000000000000000000000000000000000005f52604160045260245ffd5b7f4e487b71000000000000000000000000000000000000000000000000000000005f52602260045260245ffd5b5f60028204905060018216806100d457607f821691505b6020821081036100e7576100e6610090565b5b50919050565b5f819050815f5260205f209050919050565b5f6020601f8301049050919050565b5f82821b905092915050565b5f600883026101497fffffffffffffffffffffffffffffffffffffffffffffffffffffffffffffffff8261010e565b610153868361010e565b95508019841693508086168417925050509392505050565b5f819050919050565b5f819050919050565b5f61019761019261018d8461016b565b610174565b61016b565b9050919050565b5f819050919050565b6101b08361017d565b6101c46101bc8261019e565b84845461011a565b825550505050565b5f5f905090565b6101db6101cc565b6101e68184846101a7565b505050565b5f5b8281101561020c576102015f8284016101d3565b6001810190506101ed565b505050565b601f82111561025f578282111561025e5761022b816100ed565b610234836100ff565b61023d856100ff565b602086101561024a575f90505b808301610259828403826101eb565b505050505b5b505050565b5f82821c905092915050565b5f61027f5f1984600802610264565b1980831691505092915050565b5f6102978383610270565b9150826002028217905092915050565b6102b082610059565b67ffffffffffffffff8111156102c9576102c8610063565b5b6102d382546100bd565b6102de828285610211565b5f60209050601f83116001811461030f575f84156102fd578287015190505b610307858261028c565b86555061036e565b601f19841661031d866100ed565b5f5b828110156103445784890151825560018201915060208501945060208101905061031f565b86831015610361578489015161035d601f891682610270565b8355505b6001600288020188555050505b505050505050565b610485806103835f395ff3fe608060405234801561000f575f5ffd5b506004361061004a575f3560e01c80633940516b1461004e57806346d724d31461006c578063a05a38741461008b578063e10a949c146100a9575b5f5ffd5b6100566100c7565b604051610063919061036c565b60405180910390f35b610074610109565b60405161008292919061038c565b60405180910390f35b610093610264565b6040516100a091906103d9565b60405180910390f35b6100b1610271565b6040516100be919061036c565b60405180910390f35b60605f6040518060400160405280600881526020017f536f6c696469747900000000000000000000000000000000000000000000000081525090508091505090565b6060805f5f80546101199061041f565b80601f01602080910402602001604051908101604052809291908181526020018280546101459061041f565b80156101905780601f1061016757610100808354040283529160200191610190565b820191905f5260205f20905b81548152906001019060200180831161017357829003601f168201915b505050505090506040518060400160405280600881526020017f4d6f6469666965640000000000000000000000000000000000000000000000008152509050805f8080546101dd9061041f565b80601f01602080910402602001604051908101604052809291908181526020018280546102099061041f565b80156102545780601f1061022b57610100808354040283529160200191610254565b820191905f5260205f20905b81548152906001019060200180831161023757829003601f168201915b5050505050905092509250509091565b5f5f606490508091505090565b5f805461027d9061041f565b80601f01602080910402602001604051908101604052809291908181526020018280546102a99061041f565b80156102f45780601f106102cb576101008083540402835291602001916102f4565b820191905f5260205f20905b8154815290600101906020018083116102d757829003601f168201915b505050505081565b5f81519050919050565b5f82825260208201905092915050565b8281835e5f83830152505050565b5f601f19601f8301169050919050565b5f61033e826102fc565b6103488185610306565b9350610358818560208601610316565b61036181610324565b840191505092915050565b5f6020820190508181035f8301526103848184610334565b905092915050565b5f6040820190508181035f8301526103a48185610334565b905081810360208301526103b88184610334565b90509392505050565b5f819050919050565b6103d3816103c1565b82525050565b5f6020820190506103ec5f8301846103ca565b92915050565b7f4e487b71000000000000000000000000000000000000000000000000000000005f52602260045260245ffd5b5f600282049050600182168061043657607f821691505b602082108103610449576104486103f2565b5b5091905056fea26469706673582212201c9f437993ff5c9f942d339c35f5ddcfeca7628910e7cff0d37aa586877b2cd264736f6c63430008220033",
					"opcodes": "PUSH1 0x80 PUSH1 0x40 MSTORE PUSH1 0x40 MLOAD DUP1 PUSH1 0x40 ADD PUSH1 0x40 MSTORE DUP1 PUSH1 0xA DUP2 MSTORE PUSH1 0x20 ADD PUSH32 0x426C6F636B636861696E00000000000000000000000000000000000000000000 DUP2 MSTORE POP PUSH0 SWAP1 DUP2 PUSH2 0x47 SWAP2 SWAP1 PUSH2 0x2A7 JUMP JUMPDEST POP CALLVALUE DUP1 ISZERO PUSH2 0x53 JUMPI PUSH0 PUSH0 REVERT JUMPDEST POP PUSH2 0x376 JUMP JUMPDEST PUSH0 DUP2 MLOAD SWAP1 POP SWAP2 SWAP1 POP JUMP JUMPDEST PUSH32 0x4E487B7100000000000000000000000000000000000000000000000000000000 PUSH0 MSTORE PUSH1 0x41 PUSH1 0x4 MSTORE PUSH1 0x24 PUSH0 REVERT JUMPDEST PUSH32 0x4E487B7100000000000000000000000000000000000000000000000000000000 PUSH0 MSTORE PUSH1 0x22 PUSH1 0x4 MSTORE PUSH1 0x24 PUSH0 REVERT JUMPDEST PUSH0 PUSH1 0x2 DUP3 DIV SWAP1 POP PUSH1 0x1 DUP3 AND DUP1 PUSH2 0xD4 JUMPI PUSH1 0x7F DUP3 AND SWAP2 POP JUMPDEST PUSH1 0x20 DUP3 LT DUP2 SUB PUSH2 0xE7 JUMPI PUSH2 0xE6 PUSH2 0x90 JUMP JUMPDEST JUMPDEST POP SWAP2 SWAP1 POP JUMP JUMPDEST PUSH0 DUP2 SWAP1 POP DUP2 PUSH0 MSTORE PUSH1 0x20 PUSH0 KECCAK256 SWAP1 POP SWAP2 SWAP1 POP JUMP JUMPDEST PUSH0 PUSH1 0x20 PUSH1 0x1F DUP4 ADD DIV SWAP1 POP SWAP2 SWAP1 POP JUMP JUMPDEST PUSH0 DUP3 DUP3 SHL SWAP1 POP SWAP3 SWAP2 POP POP JUMP JUMPDEST PUSH0 PUSH1 0x8 DUP4 MUL PUSH2 0x149 PUSH32 0xFFFFFFFFFFFFFFFFFFFFFFFFFFFFFFFFFFFFFFFFFFFFFFFFFFFFFFFFFFFFFFFF DUP3 PUSH2 0x10E JUMP JUMPDEST PUSH2 0x153 DUP7 DUP4 PUSH2 0x10E JUMP JUMPDEST SWAP6 POP DUP1 NOT DUP5 AND SWAP4 POP DUP1 DUP7 AND DUP5 OR SWAP3 POP POP POP SWAP4 SWAP3 POP POP POP JUMP JUMPDEST PUSH0 DUP2 SWAP1 POP SWAP2 SWAP1 POP JUMP JUMPDEST PUSH0 DUP2 SWAP1 POP SWAP2 SWAP1 POP JUMP JUMPDEST PUSH0 PUSH2 0x197 PUSH2 0x192 PUSH2 0x18D DUP5 PUSH2 0x16B JUMP JUMPDEST PUSH2 0x174 JUMP JUMPDEST PUSH2 0x16B JUMP JUMPDEST SWAP1 POP SWAP2 SWAP1 POP JUMP JUMPDEST PUSH0 DUP2 SWAP1 POP SWAP2 SWAP1 POP JUMP JUMPDEST PUSH2 0x1B0 DUP4 PUSH2 0x17D JUMP JUMPDEST PUSH2 0x1C4 PUSH2 0x1BC DUP3 PUSH2 0x19E JUMP JUMPDEST DUP5 DUP5 SLOAD PUSH2 0x11A JUMP JUMPDEST DUP3 SSTORE POP POP POP POP JUMP JUMPDEST PUSH0 PUSH0 SWAP1 POP SWAP1 JUMP JUMPDEST PUSH2 0x1DB PUSH2 0x1CC JUMP JUMPDEST PUSH2 0x1E6 DUP2 DUP5 DUP5 PUSH2 0x1A7 JUMP JUMPDEST POP POP POP JUMP JUMPDEST PUSH0 JUMPDEST DUP3 DUP2 LT ISZERO PUSH2 0x20C JUMPI PUSH2 0x201 PUSH0 DUP3 DUP5 ADD PUSH2 0x1D3 JUMP JUMPDEST PUSH1 0x1 DUP2 ADD SWAP1 POP PUSH2 0x1ED JUMP JUMPDEST POP POP POP JUMP JUMPDEST PUSH1 0x1F DUP3 GT ISZERO PUSH2 0x25F JUMPI DUP3 DUP3 GT ISZERO PUSH2 0x25E JUMPI PUSH2 0x22B DUP2 PUSH2 0xED JUMP JUMPDEST PUSH2 0x234 DUP4 PUSH2 0xFF JUMP JUMPDEST PUSH2 0x23D DUP6 PUSH2 0xFF JUMP JUMPDEST PUSH1 0x20 DUP7 LT ISZERO PUSH2 0x24A JUMPI PUSH0 SWAP1 POP JUMPDEST DUP1 DUP4 ADD PUSH2 0x259 DUP3 DUP5 SUB DUP3 PUSH2 0x1EB JUMP JUMPDEST POP POP POP POP JUMPDEST JUMPDEST POP POP POP JUMP JUMPDEST PUSH0 DUP3 DUP3 SHR SWAP1 POP SWAP3 SWAP2 POP POP JUMP JUMPDEST PUSH0 PUSH2 0x27F PUSH0 NOT DUP5 PUSH1 0x8 MUL PUSH2 0x264 JUMP JUMPDEST NOT DUP1 DUP4 AND SWAP2 POP POP SWAP3 SWAP2 POP POP JUMP JUMPDEST PUSH0 PUSH2 0x297 DUP4 DUP4 PUSH2 0x270 JUMP JUMPDEST SWAP2 POP DUP3 PUSH1 0x2 MUL DUP3 OR SWAP1 POP SWAP3 SWAP2 POP POP JUMP JUMPDEST PUSH2 0x2B0 DUP3 PUSH2 0x59 JUMP JUMPDEST PUSH8 0xFFFFFFFFFFFFFFFF DUP2 GT ISZERO PUSH2 0x2C9 JUMPI PUSH2 0x2C8 PUSH2 0x63 JUMP JUMPDEST JUMPDEST PUSH2 0x2D3 DUP3 SLOAD PUSH2 0xBD JUMP JUMPDEST PUSH2 0x2DE DUP3 DUP3 DUP6 PUSH2 0x211 JUMP JUMPDEST PUSH0 PUSH1 0x20 SWAP1 POP PUSH1 0x1F DUP4 GT PUSH1 0x1 DUP2 EQ PUSH2 0x30F JUMPI PUSH0 DUP5 ISZERO PUSH2 0x2FD JUMPI DUP3 DUP8 ADD MLOAD SWAP1 POP JUMPDEST PUSH2 0x307 DUP6 DUP3 PUSH2 0x28C JUMP JUMPDEST DUP7 SSTORE POP PUSH2 0x36E JUMP JUMPDEST PUSH1 0x1F NOT DUP5 AND PUSH2 0x31D DUP7 PUSH2 0xED JUMP JUMPDEST PUSH0 JUMPDEST DUP3 DUP2 LT ISZERO PUSH2 0x344 JUMPI DUP5 DUP10 ADD MLOAD DUP3 SSTORE PUSH1 0x1 DUP3 ADD SWAP2 POP PUSH1 0x20 DUP6 ADD SWAP5 POP PUSH1 0x20 DUP2 ADD SWAP1 POP PUSH2 0x31F JUMP JUMPDEST DUP7 DUP4 LT ISZERO PUSH2 0x361 JUMPI DUP5 DUP10 ADD MLOAD PUSH2 0x35D PUSH1 0x1F DUP10 AND DUP3 PUSH2 0x270 JUMP JUMPDEST DUP4 SSTORE POP JUMPDEST PUSH1 0x1 PUSH1 0x2 DUP9 MUL ADD DUP9 SSTORE POP POP POP JUMPDEST POP POP POP POP POP POP JUMP JUMPDEST PUSH2 0x485 DUP1 PUSH2 0x383 PUSH0 CODECOPY PUSH0 RETURN INVALID PUSH1 0x80 PUSH1 0x40 MSTORE CALLVALUE DUP1 ISZERO PUSH2 0xF JUMPI PUSH0 PUSH0 REVERT JUMPDEST POP PUSH1 0x4 CALLDATASIZE LT PUSH2 0x4A JUMPI PUSH0 CALLDATALOAD PUSH1 0xE0 SHR DUP1 PUSH4 0x3940516B EQ PUSH2 0x4E JUMPI DUP1 PUSH4 0x46D724D3 EQ PUSH2 0x6C JUMPI DUP1 PUSH4 0xA05A3874 EQ PUSH2 0x8B JUMPI DUP1 PUSH4 0xE10A949C EQ PUSH2 0xA9 JUMPI JUMPDEST PUSH0 PUSH0 REVERT JUMPDEST PUSH2 0x56 PUSH2 0xC7 JUMP JUMPDEST PUSH1 0x40 MLOAD PUSH2 0x63 SWAP2 SWAP1 PUSH2 0x36C JUMP JUMPDEST PUSH1 0x40 MLOAD DUP1 SWAP2 SUB SWAP1 RETURN JUMPDEST PUSH2 0x74 PUSH2 0x109 JUMP JUMPDEST PUSH1 0x40 MLOAD PUSH2 0x82 SWAP3 SWAP2 SWAP1 PUSH2 0x38C JUMP JUMPDEST PUSH1 0x40 MLOAD DUP1 SWAP2 SUB SWAP1 RETURN JUMPDEST PUSH2 0x93 PUSH2 0x264 JUMP JUMPDEST PUSH1 0x40 MLOAD PUSH2 0xA0 SWAP2 SWAP1 PUSH2 0x3D9 JUMP JUMPDEST PUSH1 0x40 MLOAD DUP1 SWAP2 SUB SWAP1 RETURN JUMPDEST PUSH2 0xB1 PUSH2 0x271 JUMP JUMPDEST PUSH1 0x40 MLOAD PUSH2 0xBE SWAP2 SWAP1 PUSH2 0x36C JUMP JUMPDEST PUSH1 0x40 MLOAD DUP1 SWAP2 SUB SWAP1 RETURN JUMPDEST PUSH1 0x60 PUSH0 PUSH1 0x40 MLOAD DUP1 PUSH1 0x40 ADD PUSH1 0x40 MSTORE DUP1 PUSH1 0x8 DUP2 MSTORE PUSH1 0x20 ADD PUSH32 0x536F6C6964697479000000000000000000000000000000000000000000000000 DUP2 MSTORE POP SWAP1 POP DUP1 SWAP2 POP POP SWAP1 JUMP JUMPDEST PUSH1 0x60 DUP1 PUSH0 PUSH0 DUP1 SLOAD PUSH2 0x119 SWAP1 PUSH2 0x41F JUMP JUMPDEST DUP1 PUSH1 0x1F ADD PUSH1 0x20 DUP1 SWAP2 DIV MUL PUSH1 0x20 ADD PUSH1 0x40 MLOAD SWAP1 DUP2 ADD PUSH1 0x40 MSTORE DUP1 SWAP3 SWAP2 SWAP1 DUP2 DUP2 MSTORE PUSH1 0x20 ADD DUP3 DUP1 SLOAD PUSH2 0x145 SWAP1 PUSH2 0x41F JUMP JUMPDEST DUP1 ISZERO PUSH2 0x190 JUMPI DUP1 PUSH1 0x1F LT PUSH2 0x167 JUMPI PUSH2 0x100 DUP1 DUP4 SLOAD DIV MUL DUP4 MSTORE SWAP2 PUSH1 0x20 ADD SWAP2 PUSH2 0x190 JUMP JUMPDEST DUP3 ADD SWAP2 SWAP1 PUSH0 MSTORE PUSH1 0x20 PUSH0 KECCAK256 SWAP1 JUMPDEST DUP2 SLOAD DUP2 MSTORE SWAP1 PUSH1 0x1 ADD SWAP1 PUSH1 0x20 ADD DUP1 DUP4 GT PUSH2 0x173 JUMPI DUP3 SWAP1 SUB PUSH1 0x1F AND DUP3 ADD SWAP2 JUMPDEST POP POP POP POP POP SWAP1 POP PUSH1 0x40 MLOAD DUP1 PUSH1 0x40 ADD PUSH1 0x40 MSTORE DUP1 PUSH1 0x8 DUP2 MSTORE PUSH1 0x20 ADD PUSH32 0x4D6F646966696564000000000000000000000000000000000000000000000000 DUP2 MSTORE POP SWAP1 POP DUP1 PUSH0 DUP1 DUP1 SLOAD PUSH2 0x1DD SWAP1 PUSH2 0x41F JUMP JUMPDEST DUP1 PUSH1 0x1F ADD PUSH1 0x20 DUP1 SWAP2 DIV MUL PUSH1 0x20 ADD PUSH1 0x40 MLOAD SWAP1 DUP2 ADD PUSH1 0x40 MSTORE DUP1 SWAP3 SWAP2 SWAP1 DUP2 DUP2 MSTORE PUSH1 0x20 ADD DUP3 DUP1 SLOAD PUSH2 0x209 SWAP1 PUSH2 0x41F JUMP JUMPDEST DUP1 ISZERO PUSH2 0x254 JUMPI DUP1 PUSH1 0x1F LT PUSH2 0x22B JUMPI PUSH2 0x100 DUP1 DUP4 SLOAD DIV MUL DUP4 MSTORE SWAP2 PUSH1 0x20 ADD SWAP2 PUSH2 0x254 JUMP JUMPDEST DUP3 ADD SWAP2 SWAP1 PUSH0 MSTORE PUSH1 0x20 PUSH0 KECCAK256 SWAP1 JUMPDEST DUP2 SLOAD DUP2 MSTORE SWAP1 PUSH1 0x1 ADD SWAP1 PUSH1 0x20 ADD DUP1 DUP4 GT PUSH2 0x237 JUMPI DUP3 SWAP1 SUB PUSH1 0x1F AND DUP3 ADD SWAP2 JUMPDEST POP POP POP POP POP SWAP1 POP SWAP3 POP SWAP3 POP POP SWAP1 SWAP2 JUMP JUMPDEST PUSH0 PUSH0 PUSH1 0x64 SWAP1 POP DUP1 SWAP2 POP POP SWAP1 JUMP JUMPDEST PUSH0 DUP1 SLOAD PUSH2 0x27D SWAP1 PUSH2 0x41F JUMP JUMPDEST DUP1 PUSH1 0x1F ADD PUSH1 0x20 DUP1 SWAP2 DIV MUL PUSH1 0x20 ADD PUSH1 0x40 MLOAD SWAP1 DUP2 ADD PUSH1 0x40 MSTORE DUP1 SWAP3 SWAP2 SWAP1 DUP2 DUP2 MSTORE PUSH1 0x20 ADD DUP3 DUP1 SLOAD PUSH2 0x2A9 SWAP1 PUSH2 0x41F JUMP JUMPDEST DUP1 ISZERO PUSH2 0x2F4 JUMPI DUP1 PUSH1 0x1F LT PUSH2 0x2CB JUMPI PUSH2 0x100 DUP1 DUP4 SLOAD DIV MUL DUP4 MSTORE SWAP2 PUSH1 0x20 ADD SWAP2 PUSH2 0x2F4 JUMP JUMPDEST DUP3 ADD SWAP2 SWAP1 PUSH0 MSTORE PUSH1 0x20 PUSH0 KECCAK256 SWAP1 JUMPDEST DUP2 SLOAD DUP2 MSTORE SWAP1 PUSH1 0x1 ADD SWAP1 PUSH1 0x20 ADD DUP1 DUP4 GT PUSH2 0x2D7 JUMPI DUP3 SWAP1 SUB PUSH1 0x1F AND DUP3 ADD SWAP2 JUMPDEST POP POP POP POP POP DUP2 JUMP JUMPDEST PUSH0 DUP2 MLOAD SWAP1 POP SWAP2 SWAP1 POP JUMP JUMPDEST PUSH0 DUP3 DUP3 MSTORE PUSH1 0x20 DUP3 ADD SWAP1 POP SWAP3 SWAP2 POP POP JUMP JUMPDEST DUP3 DUP2 DUP4 MCOPY PUSH0 DUP4 DUP4 ADD MSTORE POP POP POP JUMP JUMPDEST PUSH0 PUSH1 0x1F NOT PUSH1 0x1F DUP4 ADD AND SWAP1 POP SWAP2 SWAP1 POP JUMP JUMPDEST PUSH0 PUSH2 0x33E DUP3 PUSH2 0x2FC JUMP JUMPDEST PUSH2 0x348 DUP2 DUP6 PUSH2 0x306 JUMP JUMPDEST SWAP4 POP PUSH2 0x358 DUP2 DUP6 PUSH1 0x20 DUP7 ADD PUSH2 0x316 JUMP JUMPDEST PUSH2 0x361 DUP2 PUSH2 0x324 JUMP JUMPDEST DUP5 ADD SWAP2 POP POP SWAP3 SWAP2 POP POP JUMP JUMPDEST PUSH0 PUSH1 0x20 DUP3 ADD SWAP1 POP DUP2 DUP2 SUB PUSH0 DUP4 ADD MSTORE PUSH2 0x384 DUP2 DUP5 PUSH2 0x334 JUMP JUMPDEST SWAP1 POP SWAP3 SWAP2 POP POP JUMP JUMPDEST PUSH0 PUSH1 0x40 DUP3 ADD SWAP1 POP DUP2 DUP2 SUB PUSH0 DUP4 ADD MSTORE PUSH2 0x3A4 DUP2 DUP6 PUSH2 0x334 JUMP JUMPDEST SWAP1 POP DUP2 DUP2 SUB PUSH1 0x20 DUP4 ADD MSTORE PUSH2 0x3B8 DUP2 DUP5 PUSH2 0x334 JUMP JUMPDEST SWAP1 POP SWAP4 SWAP3 POP POP POP JUMP JUMPDEST PUSH0 DUP2 SWAP1 POP SWAP2 SWAP1 POP JUMP JUMPDEST PUSH2 0x3D3 DUP2 PUSH2 0x3C1 JUMP JUMPDEST DUP3 MSTORE POP POP JUMP JUMPDEST PUSH0 PUSH1 0x20 DUP3 ADD SWAP1 POP PUSH2 0x3EC PUSH0 DUP4 ADD DUP5 PUSH2 0x3CA JUMP JUMPDEST SWAP3 SWAP2 POP POP JUMP JUMPDEST PUSH32 0x4E487B7100000000000000000000000000000000000000000000000000000000 PUSH0 MSTORE PUSH1 0x22 PUSH1 0x4 MSTORE PUSH1 0x24 PUSH0 REVERT JUMPDEST PUSH0 PUSH1 0x2 DUP3 DIV SWAP1 POP PUSH1 0x1 DUP3 AND DUP1 PUSH2 0x436 JUMPI PUSH1 0x7F DUP3 AND SWAP2 POP JUMPDEST PUSH1 0x20 DUP3 LT DUP2 SUB PUSH2 0x449 JUMPI PUSH2 0x448 PUSH2 0x3F2 JUMP JUMPDEST JUMPDEST POP SWAP2 SWAP1 POP JUMP INVALID LOG2 PUSH5 0x6970667358 0x22 SLT KECCAK256 SHR SWAP16 NUMBER PUSH26 0x93FF5C9F942D339C35F5DDCFECA7628910E7CFF0D37AA586877B 0x2C 0xD2 PUSH5 0x736F6C6343 STOP ADDMOD 0x22 STOP CALLER "
				},
				"gasEstimates": {
					"creation": {
						"codeDepositCost": "231400",
						"executionCost": "infinite",
						"totalCost": "infinite"
					},
					"external": {
						"copyStorageToMemory()": "infinite",
						"createMemoryVariable()": "366",
						"returnMemoryString()": "infinite",
						"storedName()": "infinite"
					}
				},
				"methodIdentifiers": {
					"copyStorageToMemory()": "46d724d3",
					"createMemoryVariable()": "a05a3874",
					"returnMemoryString()": "3940516b",
					"storedName()": "e10a949c"
				}
			},
			"storageLayout": {
				"storage": [
					{
						"astId": 44,
						"contract": "contracts/prac17.sol:MemoryLifecycleFixed",
						"label": "storedName",
						"offset": 0,
						"slot": "0",
						"type": "t_string_storage"
					}
				],
				"types": {
					"t_string_storage": {
						"encoding": "bytes",
						"label": "string",
						"numberOfBytes": "32"
					}
				}
			},
			"userdoc": {
				"kind": "user",
				"methods": {},
				"version": 1
			}
		}
	}
}